{
  "_format": "hh-sol-artifact-1",
  "contractName": "EntityForging",
  "sourceName": "contracts/EntityForging/EntityForging.sol",
  "abi": [
    {
      "inputs": [
        {
          "internalType": "address",
          "name": "_traitForgeNft",
          "type": "address"
        }
      ],
      "stateMutability": "nonpayable",
      "type": "constructor"
    },
    {
      "anonymous": false,
      "inputs": [
        {
          "indexed": false,
          "internalType": "uint256",
          "name": "tokenId",
          "type": "uint256"
        }
      ],
      "name": "CancelledListingForForging",
      "type": "event"
    },
    {
      "anonymous": false,
      "inputs": [
        {
          "indexed": true,
          "internalType": "uint256",
          "name": "newTokenid",
          "type": "uint256"
        },
        {
          "indexed": false,
          "internalType": "uint256",
          "name": "parent1Id",
          "type": "uint256"
        },
        {
          "indexed": false,
          "internalType": "uint256",
          "name": "parent2Id",
          "type": "uint256"
        },
        {
          "indexed": false,
          "internalType": "uint256",
          "name": "newEntropy",
          "type": "uint256"
        }
      ],
      "name": "EntityForged",
      "type": "event"
    },
    {
      "anonymous": false,
      "inputs": [
        {
          "indexed": false,
          "internalType": "uint256",
          "name": "forgerTokenId",
          "type": "uint256"
        },
        {
          "indexed": false,
          "internalType": "uint256",
          "name": "mergerTokenId",
          "type": "uint256"
        },
        {
          "indexed": false,
          "internalType": "uint256",
          "name": "feePaid",
          "type": "uint256"
        }
      ],
      "name": "FeePaid",
      "type": "event"
    },
    {
      "anonymous": false,
      "inputs": [
        {
          "indexed": false,
          "internalType": "uint256",
          "name": "tokenId",
          "type": "uint256"
        },
        {
          "indexed": false,
          "internalType": "uint256",
          "name": "fee",
          "type": "uint256"
        }
      ],
      "name": "ListedForForging",
      "type": "event"
    },
    {
      "anonymous": false,
      "inputs": [
        {
          "indexed": true,
          "internalType": "address",
          "name": "previousOwner",
          "type": "address"
        },
        {
          "indexed": true,
          "internalType": "address",
          "name": "newOwner",
          "type": "address"
        }
      ],
      "name": "OwnershipTransferred",
      "type": "event"
    },
    {
      "anonymous": false,
      "inputs": [
        {
          "indexed": false,
          "internalType": "address",
          "name": "account",
          "type": "address"
        }
      ],
      "name": "Paused",
      "type": "event"
    },
    {
      "anonymous": false,
      "inputs": [
        {
          "indexed": false,
          "internalType": "address",
          "name": "account",
          "type": "address"
        }
      ],
      "name": "Unpaused",
      "type": "event"
    },
    {
      "inputs": [
        {
          "internalType": "uint256",
          "name": "tokenId",
          "type": "uint256"
        }
      ],
      "name": "cancelListingForForging",
      "outputs": [],
      "stateMutability": "nonpayable",
      "type": "function"
    },
    {
      "inputs": [],
      "name": "fetchListings",
      "outputs": [
        {
          "components": [
            {
              "internalType": "address",
              "name": "account",
              "type": "address"
            },
            {
              "internalType": "uint256",
              "name": "tokenId",
              "type": "uint256"
            },
            {
              "internalType": "bool",
              "name": "isListed",
              "type": "bool"
            },
            {
              "internalType": "uint256",
              "name": "fee",
              "type": "uint256"
            }
          ],
          "internalType": "struct IEntityForging.Listing[]",
          "name": "_listings",
          "type": "tuple[]"
        }
      ],
      "stateMutability": "view",
      "type": "function"
    },
    {
      "inputs": [
        {
          "internalType": "uint256",
          "name": "forgerTokenId",
          "type": "uint256"
        },
        {
          "internalType": "uint256",
          "name": "mergerTokenId",
          "type": "uint256"
        }
      ],
      "name": "forgeWithListed",
      "outputs": [
        {
          "internalType": "uint256",
          "name": "",
          "type": "uint256"
        }
      ],
      "stateMutability": "payable",
      "type": "function"
    },
    {
      "inputs": [
        {
          "internalType": "uint256",
          "name": "",
          "type": "uint256"
        }
      ],
      "name": "forgingCounts",
      "outputs": [
        {
          "internalType": "uint8",
          "name": "",
          "type": "uint8"
        }
      ],
      "stateMutability": "view",
      "type": "function"
    },
    {
      "inputs": [
        {
          "internalType": "uint256",
          "name": "tokenId",
          "type": "uint256"
        },
        {
          "internalType": "uint256",
          "name": "fee",
          "type": "uint256"
        }
      ],
      "name": "listForForging",
      "outputs": [],
      "stateMutability": "nonpayable",
      "type": "function"
    },
    {
      "inputs": [
        {
          "internalType": "uint256",
          "name": "",
          "type": "uint256"
        }
      ],
      "name": "listedTokenIds",
      "outputs": [
        {
          "internalType": "uint256",
          "name": "",
          "type": "uint256"
        }
      ],
      "stateMutability": "view",
      "type": "function"
    },
    {
      "inputs": [],
      "name": "listingCount",
      "outputs": [
        {
          "internalType": "uint256",
          "name": "",
          "type": "uint256"
        }
      ],
      "stateMutability": "view",
      "type": "function"
    },
    {
      "inputs": [
        {
          "internalType": "uint256",
          "name": "",
          "type": "uint256"
        }
      ],
      "name": "listings",
      "outputs": [
        {
          "internalType": "address",
          "name": "account",
          "type": "address"
        },
        {
          "internalType": "uint256",
          "name": "tokenId",
          "type": "uint256"
        },
        {
          "internalType": "bool",
          "name": "isListed",
          "type": "bool"
        },
        {
          "internalType": "uint256",
          "name": "fee",
          "type": "uint256"
        }
      ],
      "stateMutability": "view",
      "type": "function"
    },
    {
      "inputs": [],
      "name": "minimumListFee",
      "outputs": [
        {
          "internalType": "uint256",
          "name": "",
          "type": "uint256"
        }
      ],
      "stateMutability": "view",
      "type": "function"
    },
    {
      "inputs": [],
      "name": "nftContract",
      "outputs": [
        {
          "internalType": "contract ITraitForgeNft",
          "name": "",
          "type": "address"
        }
      ],
      "stateMutability": "view",
      "type": "function"
    },
    {
      "inputs": [],
      "name": "nukeFundAddress",
      "outputs": [
        {
          "internalType": "address payable",
          "name": "",
          "type": "address"
        }
      ],
      "stateMutability": "view",
      "type": "function"
    },
    {
      "inputs": [],
      "name": "oneYearInDays",
      "outputs": [
        {
          "internalType": "uint256",
          "name": "",
          "type": "uint256"
        }
      ],
      "stateMutability": "view",
      "type": "function"
    },
    {
      "inputs": [],
      "name": "owner",
      "outputs": [
        {
          "internalType": "address",
          "name": "",
          "type": "address"
        }
      ],
      "stateMutability": "view",
      "type": "function"
    },
    {
      "inputs": [],
      "name": "paused",
      "outputs": [
        {
          "internalType": "bool",
          "name": "",
          "type": "bool"
        }
      ],
      "stateMutability": "view",
      "type": "function"
    },
    {
      "inputs": [],
      "name": "renounceOwnership",
      "outputs": [],
      "stateMutability": "nonpayable",
      "type": "function"
    },
    {
      "inputs": [
        {
          "internalType": "uint256",
          "name": "_fee",
          "type": "uint256"
        }
      ],
      "name": "setMinimumListingFee",
      "outputs": [],
      "stateMutability": "nonpayable",
      "type": "function"
    },
    {
      "inputs": [
        {
          "internalType": "address payable",
          "name": "_nukeFundAddress",
          "type": "address"
        }
      ],
      "name": "setNukeFundAddress",
      "outputs": [],
      "stateMutability": "nonpayable",
      "type": "function"
    },
    {
      "inputs": [
        {
          "internalType": "uint256",
          "name": "value",
          "type": "uint256"
        }
      ],
      "name": "setOneYearInDays",
      "outputs": [],
      "stateMutability": "nonpayable",
      "type": "function"
    },
    {
      "inputs": [
        {
          "internalType": "uint256",
          "name": "_taxCut",
          "type": "uint256"
        }
      ],
      "name": "setTaxCut",
      "outputs": [],
      "stateMutability": "nonpayable",
      "type": "function"
    },
    {
      "inputs": [],
      "name": "taxCut",
      "outputs": [
        {
          "internalType": "uint256",
          "name": "",
          "type": "uint256"
        }
      ],
      "stateMutability": "view",
      "type": "function"
    },
    {
      "inputs": [
        {
          "internalType": "address",
          "name": "newOwner",
          "type": "address"
        }
      ],
      "name": "transferOwnership",
      "outputs": [],
      "stateMutability": "nonpayable",
      "type": "function"
    }
  ],
  "bytecode": "0x6080604052600a6004556301e133806005556000600655662386f26fc1000060075534801561002d57600080fd5b5060405161193d38038061193d83398101604081905261004c916100de565b600160005561005a3361008c565b6001805460ff60a01b19169055600280546001600160a01b0319166001600160a01b039290921691909117905561010e565b600180546001600160a01b038381166001600160a01b0319831681179093556040519116919082907f8be0079c531659141344cd1fd0a4f28419497f9722a3daafe3b4186f6b6457e090600090a35050565b6000602082840312156100f057600080fd5b81516001600160a01b038116811461010757600080fd5b9392505050565b6118208061011d6000396000f3fe60806040526004361061012a5760003560e01c8063a9b07c26116100ab578063c023eed61161006f578063c023eed614610331578063d56d229d14610351578063de74e57b14610371578063ee9151ae146103f3578063f2fde38b14610413578063f77f27061461043357600080fd5b8063a9b07c26146102a5578063b6feadc8146102bb578063b7c916bb146102e8578063bc54d6d7146102fb578063be1904681461031b57600080fd5b8063715018a6116100f2578063715018a6146102065780638da5cb5b1461021b5780639bc5f5a91461024d578063a5bb19b21461026d578063a80f99ec1461028357600080fd5b8063023f2dbe1461012f5780632f3db9c41461015157806346b582c7146101715780635c448e9a146101b85780635c975abb146101dc575b600080fd5b34801561013b57600080fd5b5061014f61014a366004611608565b610453565b005b34801561015d57600080fd5b5061014f61016c36600461162c565b61047d565b34801561017d57600080fd5b506101a161018c36600461162c565b600b6020526000908152604090205460ff1681565b60405160ff90911681526020015b60405180910390f35b3480156101c457600080fd5b506101ce60045481565b6040519081526020016101af565b3480156101e857600080fd5b50600154600160a01b900460ff1660405190151581526020016101af565b34801561021257600080fd5b5061014f61048a565b34801561022757600080fd5b506001546001600160a01b03165b6040516001600160a01b0390911681526020016101af565b34801561025957600080fd5b5061014f61026836600461162c565b61049e565b34801561027957600080fd5b506101ce60055481565b34801561028f57600080fd5b506102986104ab565b6040516101af9190611645565b3480156102b157600080fd5b506101ce60065481565b3480156102c757600080fd5b506101ce6102d636600461162c565b60086020526000908152604090205481565b6101ce6102f63660046116b4565b6105b9565b34801561030757600080fd5b5061014f61031636600461162c565b610dfb565b34801561032757600080fd5b506101ce60075481565b34801561033d57600080fd5b5061014f61034c36600461162c565b610fae565b34801561035d57600080fd5b50600254610235906001600160a01b031681565b34801561037d57600080fd5b506103c361038c36600461162c565b60096020526000908152604090208054600182015460028301546003909301546001600160a01b0390921692909160ff9091169084565b604080516001600160a01b03909516855260208501939093529015159183019190915260608201526080016101af565b3480156103ff57600080fd5b50600354610235906001600160a01b031681565b34801561041f57600080fd5b5061014f61042e366004611608565b610fbb565b34801561043f57600080fd5b5061014f61044e3660046116b4565b611031565b61045b61142f565b600380546001600160a01b0319166001600160a01b0392909216919091179055565b61048561142f565b600755565b61049261142f565b61049c6000611489565b565b6104a661142f565b600555565b606060065467ffffffffffffffff8111156104c8576104c86116d6565b60405190808252806020026020018201604052801561051a57816020015b6040805160808101825260008082526020808301829052928201819052606082015282526000199092019101816104e65790505b50905060005b6006548110156105b5576000818152600860209081526040808320548084526009835292819020815160808101835281546001600160a01b03168152600182015493810193909352600281015460ff161515918301919091526003015460608201528351849084908110610596576105966116ec565b60200260200101819052505080806105ad90611718565b915050610520565b5090565b60006105c36114db565b6105cb611528565b60008381526009602052604090206002015460ff166106405760405162461bcd60e51b815260206004820152602660248201527f466f72676572277320656e74697479206e6f74206c697374656420666f7220666044820152656f7267696e6760d01b60648201526084015b60405180910390fd5b6002546040516331a9108f60e11b81526004810184905233916001600160a01b031690636352211e90602401602060405180830381865afa158015610689573d6000803e3d6000fd5b505050506040513d601f19601f820116820180604052508101906106ad9190611731565b6001600160a01b0316146107035760405162461bcd60e51b815260206004820181905260248201527f43616c6c6572206d757374206f776e20746865206d657267657220746f6b656e6044820152606401610637565b6002546040516331a9108f60e11b81526004810185905233916001600160a01b031690636352211e90602401602060405180830381865afa15801561074c573d6000803e3d6000fd5b505050506040513d601f19601f820116820180604052508101906107709190611731565b6001600160a01b0316036107e15760405162461bcd60e51b815260206004820152603260248201527f43616c6c65722073686f756c6420626520646966666572656e742066726f6d206044820152713337b933b2b9103a37b5b2b71037bbb732b960711b6064820152608401610637565b6002546040516391785e6d60e01b8152600481018590526001600160a01b03909116906391785e6d90602401602060405180830381865afa15801561082a573d6000803e3d6000fd5b505050506040513d601f19601f8201168201806040525081019061084e919061174e565b6002546040516391785e6d60e01b8152600481018590526001600160a01b03909116906391785e6d90602401602060405180830381865afa158015610897573d6000803e3d6000fd5b505050506040513d601f19601f820116820180604052508101906108bb919061174e565b146109085760405162461bcd60e51b815260206004820152601860248201527f496e76616c696420746f6b656e2067656e65726174696f6e00000000000000006044820152606401610637565b6000838152600960205260409020600301543481111561096a5760405162461bcd60e51b815260206004820152601c60248201527f496e73756666696369656e742066656520666f7220666f7267696e67000000006044820152606401610637565b61097384611581565b61097c83611581565b6000848152600b60205260408120805460ff169161099983611767565b825460ff9182166101009390930a9283029190920219909116179055506002546040516306b6c00b60e01b8152600481018590526000916001600160a01b0316906306b6c00b90602401602060405180830381865afa158015610a00573d6000803e3d6000fd5b505050506040513d601f19601f82011682018060405250810190610a24919061174e565b9050610a3160038261179c565b600003610a6d5760405162461bcd60e51b815260206004820152600a6024820152692737ba1036b2b933b2b960b11b6044820152606401610637565b6000600a610a7b81846117b0565b610a85919061179c565b6000868152600b60205260408120805492935060ff9092169190610aa883611767565b91906101000a81548160ff021916908360ff1602179055505060008160ff16118015610ae857506000858152600b602052604090205460ff808316911611155b610b345760405162461bcd60e51b815260206004820152601b60248201527f666f726765506f74656e7469616c20696e73756666696369656e7400000000006044820152606401610637565b600060045484610b4491906117b0565b90506000610b5282866117c4565b6002546040516331a9108f60e11b8152600481018b90529192506000916001600160a01b0390911690636352211e90602401602060405180830381865afa158015610ba1573d6000803e3d6000fd5b505050506040513d601f19601f82011682018060405250810190610bc59190611731565b600254604051637e6405c160e01b8152336004820152602481018c9052604481018b9052608060648201526000608482018190529293506001600160a01b0390911690637e6405c19060a4016020604051808303816000875af1158015610c30573d6000803e3d6000fd5b505050506040513d601f19601f82011682018060405250810190610c54919061174e565b6003546040519192506000916001600160a01b039091169086908381818185875af1925050503d8060008114610ca6576040519150601f19603f3d011682016040523d82523d6000602084013e610cab565b606091505b5050905080610cfc5760405162461bcd60e51b815260206004820152601a60248201527f4661696c656420746f2073656e6420746f204e756b6546756e640000000000006044820152606401610637565b6000836001600160a01b03168560405160006040518083038185875af1925050503d8060008114610d49576040519150601f19603f3d011682016040523d82523d6000602084013e610d4e565b606091505b5050905080610d9f5760405162461bcd60e51b815260206004820152601d60248201527f4661696c656420746f2073656e6420746f20466f726765204f776e65720000006044820152606401610637565b604080518d8152602081018d90529081018a90527f9bec96fb6d100e4d478528377d4ef6e077836973c5de940a41a1e684522999929060600160405180910390a15090975050505050505050610df56001600055565b92915050565b610e036114db565b610e0b611528565b6002546040516331a9108f60e11b81526004810183905233916001600160a01b031690636352211e90602401602060405180830381865afa158015610e54573d6000803e3d6000fd5b505050506040513d601f19601f82011682018060405250810190610e789190611731565b6001600160a01b031614610eca5760405162461bcd60e51b815260206004820152601960248201527821b0b63632b91036bab9ba1037bbb7103a3432903a37b5b2b760391b6044820152606401610637565b60008181526009602052604090206002015460ff16610f2b5760405162461bcd60e51b815260206004820152601c60248201527f546f6b656e206e6f74206c697374656420666f7220666f7267696e67000000006044820152606401610637565b60008181526009602052604080822080546001600160a01b03191681556001810183905560028101805460ff19169055600301829055517fad9a746a334a8de4c0333b5452637bc5a53fe8dce405468ff37e62add0a0365e91610f9991849190918252602082015260400190565b60405180910390a1610fab6001600055565b50565b610fb661142f565b600455565b610fc361142f565b6001600160a01b0381166110285760405162461bcd60e51b815260206004820152602660248201527f4f776e61626c653a206e6577206f776e657220697320746865207a65726f206160448201526564647265737360d01b6064820152608401610637565b610fab81611489565b6110396114db565b611041611528565b60008281526009602052604090206002015460ff16156110af5760405162461bcd60e51b815260206004820152602360248201527f546f6b656e20697320616c7265616479206c697374656420666f7220666f7267604482015262696e6760e81b6064820152608401610637565b6002546040516331a9108f60e11b81526004810184905233916001600160a01b031690636352211e90602401602060405180830381865afa1580156110f8573d6000803e3d6000fd5b505050506040513d601f19601f8201168201806040525081019061111c9190611731565b6001600160a01b03161461116e5760405162461bcd60e51b815260206004820152601960248201527821b0b63632b91036bab9ba1037bbb7103a3432903a37b5b2b760391b6044820152606401610637565b6007548110156111d65760405162461bcd60e51b815260206004820152602d60248201527f4665652073686f756c6420626520686967686572207468616e206d696e696d7560448201526c6d206c697374696e672066656560981b6064820152608401610637565b6111df82611581565b6002546040516306b6c00b60e01b8152600481018490526000916001600160a01b0316906306b6c00b90602401602060405180830381865afa158015611229573d6000803e3d6000fd5b505050506040513d601f19601f8201168201806040525081019061124d919061174e565b90506000600a61125d81846117b0565b611267919061179c565b905060008160ff1611801561129057506000848152600b602052604090205460ff808316911611155b6112e85760405162461bcd60e51b8152602060048201526024808201527f456e746974792068617320726561636865642069747320666f7267696e67206c6044820152631a5b5a5d60e21b6064820152608401610637565b60006112f560038461179c565b1590508061134f5760405162461bcd60e51b815260206004820152602160248201527f4f6e6c7920666f72676572732063616e206c69737420666f7220666f7267696e6044820152606760f81b6064820152608401610637565b6040805160808101825233815260208082018881526001838501818152606085018a815260008c815260098652878120965187546001600160a01b0319166001600160a01b039091161787559351928601929092555160028501805460ff1916911515919091179055516003909301929092556006805483526008909152918120879055815491906113e083611718565b909155505060408051868152602081018690527fad9a746a334a8de4c0333b5452637bc5a53fe8dce405468ff37e62add0a0365e910160405180910390a150505061142b6001600055565b5050565b6001546001600160a01b0316331461049c5760405162461bcd60e51b815260206004820181905260248201527f4f776e61626c653a2063616c6c6572206973206e6f7420746865206f776e65726044820152606401610637565b600180546001600160a01b038381166001600160a01b0319831681179093556040519116919082907f8be0079c531659141344cd1fd0a4f28419497f9722a3daafe3b4186f6b6457e090600090a35050565b600154600160a01b900460ff161561049c5760405162461bcd60e51b815260206004820152601060248201526f14185d5cd8589b194e881c185d5cd95960821b6044820152606401610637565b60026000540361157a5760405162461bcd60e51b815260206004820152601f60248201527f5265656e7472616e637947756172643a207265656e7472616e742063616c6c006044820152606401610637565b6002600055565b6005546000828152600c602052604081205490036115ad57506000908152600c60205260409020429055565b6000828152600c60205260409020546115c79082906117d7565b421061142b57506000908152600b60209081526040808320805460ff19169055600c9091529020429055565b6001600160a01b0381168114610fab57600080fd5b60006020828403121561161a57600080fd5b8135611625816115f3565b9392505050565b60006020828403121561163e57600080fd5b5035919050565b602080825282518282018190526000919060409081850190868401855b828110156116a757815180516001600160a01b031685528681015187860152858101511515868601526060908101519085015260809093019290850190600101611662565b5091979650505050505050565b600080604083850312156116c757600080fd5b50508035926020909101359150565b634e487b7160e01b600052604160045260246000fd5b634e487b7160e01b600052603260045260246000fd5b634e487b7160e01b600052601160045260246000fd5b60006001820161172a5761172a611702565b5060010190565b60006020828403121561174357600080fd5b8151611625816115f3565b60006020828403121561176057600080fd5b5051919050565b600060ff821660ff810361177d5761177d611702565b60010192915050565b634e487b7160e01b600052601260045260246000fd5b6000826117ab576117ab611786565b500690565b6000826117bf576117bf611786565b500490565b81810381811115610df557610df5611702565b80820180821115610df557610df561170256fea2646970667358221220e2efdd514f2e4c4ced47ccf402bd47d8343b2fe1e2925946c2d6184cbad3517364736f6c63430008140033",
  "linkReferences": {},
  "deployedLinkReferences": {}
}