{
  "_format": "hh-sol-artifact-1",
  "contractName": "EntityForging",
  "sourceName": "contracts/EntityForging/EntityForging.sol",
  "abi": [
    {
      "inputs": [
        {
          "internalType": "address",
          "name": "_traitForgeNft",
          "type": "address"
        }
      ],
      "stateMutability": "nonpayable",
      "type": "constructor"
    },
    {
      "anonymous": false,
      "inputs": [
        {
          "indexed": false,
          "internalType": "uint256",
          "name": "tokenId",
          "type": "uint256"
        }
      ],
      "name": "CancelledListingForForging",
      "type": "event"
    },
    {
      "anonymous": false,
      "inputs": [
        {
          "indexed": true,
          "internalType": "uint256",
          "name": "newTokenid",
          "type": "uint256"
        },
        {
          "indexed": false,
          "internalType": "uint256",
          "name": "parent1Id",
          "type": "uint256"
        },
        {
          "indexed": false,
          "internalType": "uint256",
          "name": "parent2Id",
          "type": "uint256"
        },
        {
          "indexed": false,
          "internalType": "uint256",
          "name": "newEntropy",
          "type": "uint256"
        }
      ],
      "name": "EntityForged",
      "type": "event"
    },
    {
      "anonymous": false,
      "inputs": [
        {
          "indexed": false,
          "internalType": "uint256",
          "name": "forgerTokenId",
          "type": "uint256"
        },
        {
          "indexed": false,
          "internalType": "uint256",
          "name": "mergerTokenId",
          "type": "uint256"
        },
        {
          "indexed": false,
          "internalType": "uint256",
          "name": "feePaid",
          "type": "uint256"
        }
      ],
      "name": "FeePaid",
      "type": "event"
    },
    {
      "anonymous": false,
      "inputs": [
        {
          "indexed": false,
          "internalType": "uint256",
          "name": "tokenId",
          "type": "uint256"
        },
        {
          "indexed": false,
          "internalType": "uint256",
          "name": "fee",
          "type": "uint256"
        }
      ],
      "name": "ListedForForging",
      "type": "event"
    },
    {
      "anonymous": false,
      "inputs": [
        {
          "indexed": true,
          "internalType": "address",
          "name": "previousOwner",
          "type": "address"
        },
        {
          "indexed": true,
          "internalType": "address",
          "name": "newOwner",
          "type": "address"
        }
      ],
      "name": "OwnershipTransferred",
      "type": "event"
    },
    {
      "anonymous": false,
      "inputs": [
        {
          "indexed": false,
          "internalType": "address",
          "name": "account",
          "type": "address"
        }
      ],
      "name": "Paused",
      "type": "event"
    },
    {
      "anonymous": false,
      "inputs": [
        {
          "indexed": false,
          "internalType": "address",
          "name": "account",
          "type": "address"
        }
      ],
      "name": "Unpaused",
      "type": "event"
    },
    {
      "inputs": [
        {
          "internalType": "uint256",
          "name": "tokenId",
          "type": "uint256"
        }
      ],
      "name": "cancelListingForForging",
      "outputs": [],
      "stateMutability": "nonpayable",
      "type": "function"
    },
    {
      "inputs": [],
      "name": "fetchListings",
      "outputs": [
        {
          "components": [
            {
              "internalType": "address",
              "name": "account",
              "type": "address"
            },
            {
              "internalType": "uint256",
              "name": "tokenId",
              "type": "uint256"
            },
            {
              "internalType": "bool",
              "name": "isListed",
              "type": "bool"
            },
            {
              "internalType": "uint256",
              "name": "fee",
              "type": "uint256"
            }
          ],
          "internalType": "struct IEntityForging.Listing[]",
          "name": "_listings",
          "type": "tuple[]"
        }
      ],
      "stateMutability": "view",
      "type": "function"
    },
    {
      "inputs": [
        {
          "internalType": "uint256",
          "name": "forgerTokenId",
          "type": "uint256"
        },
        {
          "internalType": "uint256",
          "name": "mergerTokenId",
          "type": "uint256"
        }
      ],
      "name": "forgeWithListed",
      "outputs": [
        {
          "internalType": "uint256",
          "name": "",
          "type": "uint256"
        }
      ],
      "stateMutability": "payable",
      "type": "function"
    },
    {
      "inputs": [
        {
          "internalType": "uint256",
          "name": "",
          "type": "uint256"
        }
      ],
      "name": "forgingCounts",
      "outputs": [
        {
          "internalType": "uint8",
          "name": "",
          "type": "uint8"
        }
      ],
      "stateMutability": "view",
      "type": "function"
    },
    {
      "inputs": [
        {
          "internalType": "uint256",
          "name": "tokenId",
          "type": "uint256"
        },
        {
          "internalType": "uint256",
          "name": "fee",
          "type": "uint256"
        }
      ],
      "name": "listForForging",
      "outputs": [],
      "stateMutability": "nonpayable",
      "type": "function"
    },
    {
      "inputs": [
        {
          "internalType": "uint256",
          "name": "",
          "type": "uint256"
        }
      ],
      "name": "listedTokenIds",
      "outputs": [
        {
          "internalType": "uint256",
          "name": "",
          "type": "uint256"
        }
      ],
      "stateMutability": "view",
      "type": "function"
    },
    {
      "inputs": [],
      "name": "listingCount",
      "outputs": [
        {
          "internalType": "uint256",
          "name": "",
          "type": "uint256"
        }
      ],
      "stateMutability": "view",
      "type": "function"
    },
    {
      "inputs": [
        {
          "internalType": "uint256",
          "name": "",
          "type": "uint256"
        }
      ],
      "name": "listings",
      "outputs": [
        {
          "internalType": "address",
          "name": "account",
          "type": "address"
        },
        {
          "internalType": "uint256",
          "name": "tokenId",
          "type": "uint256"
        },
        {
          "internalType": "bool",
          "name": "isListed",
          "type": "bool"
        },
        {
          "internalType": "uint256",
          "name": "fee",
          "type": "uint256"
        }
      ],
      "stateMutability": "view",
      "type": "function"
    },
    {
      "inputs": [],
      "name": "minimumListFee",
      "outputs": [
        {
          "internalType": "uint256",
          "name": "",
          "type": "uint256"
        }
      ],
      "stateMutability": "view",
      "type": "function"
    },
    {
      "inputs": [],
      "name": "nftContract",
      "outputs": [
        {
          "internalType": "contract ITraitForgeNft",
          "name": "",
          "type": "address"
        }
      ],
      "stateMutability": "view",
      "type": "function"
    },
    {
      "inputs": [],
      "name": "nukeFundAddress",
      "outputs": [
        {
          "internalType": "address payable",
          "name": "",
          "type": "address"
        }
      ],
      "stateMutability": "view",
      "type": "function"
    },
    {
      "inputs": [],
      "name": "oneYearInDays",
      "outputs": [
        {
          "internalType": "uint256",
          "name": "",
          "type": "uint256"
        }
      ],
      "stateMutability": "view",
      "type": "function"
    },
    {
      "inputs": [],
      "name": "owner",
      "outputs": [
        {
          "internalType": "address",
          "name": "",
          "type": "address"
        }
      ],
      "stateMutability": "view",
      "type": "function"
    },
    {
      "inputs": [],
      "name": "paused",
      "outputs": [
        {
          "internalType": "bool",
          "name": "",
          "type": "bool"
        }
      ],
      "stateMutability": "view",
      "type": "function"
    },
    {
      "inputs": [],
      "name": "renounceOwnership",
      "outputs": [],
      "stateMutability": "nonpayable",
      "type": "function"
    },
    {
      "inputs": [
        {
          "internalType": "uint256",
          "name": "_fee",
          "type": "uint256"
        }
      ],
      "name": "setMinimumListingFee",
      "outputs": [],
      "stateMutability": "nonpayable",
      "type": "function"
    },
    {
      "inputs": [
        {
          "internalType": "address payable",
          "name": "_nukeFundAddress",
          "type": "address"
        }
      ],
      "name": "setNukeFundAddress",
      "outputs": [],
      "stateMutability": "nonpayable",
      "type": "function"
    },
    {
      "inputs": [
        {
          "internalType": "uint256",
          "name": "value",
          "type": "uint256"
        }
      ],
      "name": "setOneYearInDays",
      "outputs": [],
      "stateMutability": "nonpayable",
      "type": "function"
    },
    {
      "inputs": [
        {
          "internalType": "uint256",
          "name": "_taxCut",
          "type": "uint256"
        }
      ],
      "name": "setTaxCut",
      "outputs": [],
      "stateMutability": "nonpayable",
      "type": "function"
    },
    {
      "inputs": [],
      "name": "taxCut",
      "outputs": [
        {
          "internalType": "uint256",
          "name": "",
          "type": "uint256"
        }
      ],
      "stateMutability": "view",
      "type": "function"
    },
    {
      "inputs": [
        {
          "internalType": "address",
          "name": "newOwner",
          "type": "address"
        }
      ],
      "name": "transferOwnership",
      "outputs": [],
      "stateMutability": "nonpayable",
      "type": "function"
    }
  ],
  "bytecode": "0x6080604052600a6004556301e133806005556000600655662386f26fc1000060075534801561002d57600080fd5b5060405161193738038061193783398101604081905261004c916100de565b600160005561005a3361008c565b6001805460ff60a01b19169055600280546001600160a01b0319166001600160a01b039290921691909117905561010e565b600180546001600160a01b038381166001600160a01b0319831681179093556040519116919082907f8be0079c531659141344cd1fd0a4f28419497f9722a3daafe3b4186f6b6457e090600090a35050565b6000602082840312156100f057600080fd5b81516001600160a01b038116811461010757600080fd5b9392505050565b61181a8061011d6000396000f3fe60806040526004361061012a5760003560e01c8063a9b07c26116100ab578063c023eed61161006f578063c023eed614610331578063d56d229d14610351578063de74e57b14610371578063ee9151ae146103f3578063f2fde38b14610413578063f77f27061461043357600080fd5b8063a9b07c26146102a5578063b6feadc8146102bb578063b7c916bb146102e8578063bc54d6d7146102fb578063be1904681461031b57600080fd5b8063715018a6116100f2578063715018a6146102065780638da5cb5b1461021b5780639bc5f5a91461024d578063a5bb19b21461026d578063a80f99ec1461028357600080fd5b8063023f2dbe1461012f5780632f3db9c41461015157806346b582c7146101715780635c448e9a146101b85780635c975abb146101dc575b600080fd5b34801561013b57600080fd5b5061014f61014a366004611602565b610453565b005b34801561015d57600080fd5b5061014f61016c366004611626565b61047d565b34801561017d57600080fd5b506101a161018c366004611626565b600b6020526000908152604090205460ff1681565b60405160ff90911681526020015b60405180910390f35b3480156101c457600080fd5b506101ce60045481565b6040519081526020016101af565b3480156101e857600080fd5b50600154600160a01b900460ff1660405190151581526020016101af565b34801561021257600080fd5b5061014f61048a565b34801561022757600080fd5b506001546001600160a01b03165b6040516001600160a01b0390911681526020016101af565b34801561025957600080fd5b5061014f610268366004611626565b61049e565b34801561027957600080fd5b506101ce60055481565b34801561028f57600080fd5b506102986104ab565b6040516101af919061163f565b3480156102b157600080fd5b506101ce60065481565b3480156102c757600080fd5b506101ce6102d6366004611626565b60086020526000908152604090205481565b6101ce6102f63660046116ae565b6105b9565b34801561030757600080fd5b5061014f610316366004611626565b610df5565b34801561032757600080fd5b506101ce60075481565b34801561033d57600080fd5b5061014f61034c366004611626565b610fa8565b34801561035d57600080fd5b50600254610235906001600160a01b031681565b34801561037d57600080fd5b506103c361038c366004611626565b60096020526000908152604090208054600182015460028301546003909301546001600160a01b0390921692909160ff9091169084565b604080516001600160a01b03909516855260208501939093529015159183019190915260608201526080016101af565b3480156103ff57600080fd5b50600354610235906001600160a01b031681565b34801561041f57600080fd5b5061014f61042e366004611602565b610fb5565b34801561043f57600080fd5b5061014f61044e3660046116ae565b61102b565b61045b611429565b600380546001600160a01b0319166001600160a01b0392909216919091179055565b610485611429565b600755565b610492611429565b61049c6000611483565b565b6104a6611429565b600555565b606060065467ffffffffffffffff8111156104c8576104c86116d0565b60405190808252806020026020018201604052801561051a57816020015b6040805160808101825260008082526020808301829052928201819052606082015282526000199092019101816104e65790505b50905060005b6006548110156105b5576000818152600860209081526040808320548084526009835292819020815160808101835281546001600160a01b03168152600182015493810193909352600281015460ff161515918301919091526003015460608201528351849084908110610596576105966116e6565b60200260200101819052505080806105ad90611712565b915050610520565b5090565b60006105c36114d5565b6105cb611522565b60008381526009602052604090206002015460ff166106405760405162461bcd60e51b815260206004820152602660248201527f466f72676572277320656e74697479206e6f74206c697374656420666f7220666044820152656f7267696e6760d01b60648201526084015b60405180910390fd5b6002546040516331a9108f60e11b81526004810184905233916001600160a01b031690636352211e90602401602060405180830381865afa158015610689573d6000803e3d6000fd5b505050506040513d601f19601f820116820180604052508101906106ad919061172b565b6001600160a01b0316146107035760405162461bcd60e51b815260206004820181905260248201527f43616c6c6572206d757374206f776e20746865206d657267657220746f6b656e6044820152606401610637565b6002546040516331a9108f60e11b81526004810185905233916001600160a01b031690636352211e90602401602060405180830381865afa15801561074c573d6000803e3d6000fd5b505050506040513d601f19601f82011682018060405250810190610770919061172b565b6001600160a01b0316036107e15760405162461bcd60e51b815260206004820152603260248201527f43616c6c65722073686f756c6420626520646966666572656e742066726f6d206044820152713337b933b2b9103a37b5b2b71037bbb732b960711b6064820152608401610637565b6002546040516391785e6d60e01b8152600481018590526001600160a01b03909116906391785e6d90602401602060405180830381865afa15801561082a573d6000803e3d6000fd5b505050506040513d601f19601f8201168201806040525081019061084e9190611748565b6002546040516391785e6d60e01b8152600481018590526001600160a01b03909116906391785e6d90602401602060405180830381865afa158015610897573d6000803e3d6000fd5b505050506040513d601f19601f820116820180604052508101906108bb9190611748565b146109085760405162461bcd60e51b815260206004820152601860248201527f496e76616c696420746f6b656e2067656e65726174696f6e00000000000000006044820152606401610637565b6000838152600960205260409020600301543481111561096a5760405162461bcd60e51b815260206004820152601c60248201527f496e73756666696369656e742066656520666f7220666f7267696e67000000006044820152606401610637565b6109738461157b565b61097c8361157b565b6000848152600b60205260408120805460ff169161099983611761565b825460ff9182166101009390930a9283029190920219909116179055506002546040516306b6c00b60e01b8152600481018590526000916001600160a01b0316906306b6c00b90602401602060405180830381865afa158015610a00573d6000803e3d6000fd5b505050506040513d601f19601f82011682018060405250810190610a249190611748565b9050610a31600382611796565b600003610a6d5760405162461bcd60e51b815260206004820152600a6024820152692737ba1036b2b933b2b960b11b6044820152606401610637565b6000600a610a7b81846117aa565b610a859190611796565b6000868152600b60205260408120805492935060ff9092169190610aa883611761565b91906101000a81548160ff021916908360ff1602179055505060008160ff16118015610ae857506000858152600b602052604090205460ff808316911611155b610b345760405162461bcd60e51b815260206004820152601b60248201527f666f726765506f74656e7469616c20696e73756666696369656e7400000000006044820152606401610637565b600060045484610b4491906117aa565b90506000610b5282866117be565b6002546040516331a9108f60e11b8152600481018b90529192506000916001600160a01b0390911690636352211e90602401602060405180830381865afa158015610ba1573d6000803e3d6000fd5b505050506040513d601f19601f82011682018060405250810190610bc5919061172b565b600254604051630965a56360e41b8152600481018c9052602481018b9052606060448201526000606482018190529293506001600160a01b039091169063965a5630906084016020604051808303816000875af1158015610c2a573d6000803e3d6000fd5b505050506040513d601f19601f82011682018060405250810190610c4e9190611748565b6003546040519192506000916001600160a01b039091169086908381818185875af1925050503d8060008114610ca0576040519150601f19603f3d011682016040523d82523d6000602084013e610ca5565b606091505b5050905080610cf65760405162461bcd60e51b815260206004820152601a60248201527f4661696c656420746f2073656e6420746f204e756b6546756e640000000000006044820152606401610637565b6000836001600160a01b03168560405160006040518083038185875af1925050503d8060008114610d43576040519150601f19603f3d011682016040523d82523d6000602084013e610d48565b606091505b5050905080610d995760405162461bcd60e51b815260206004820152601d60248201527f4661696c656420746f2073656e6420746f20466f726765204f776e65720000006044820152606401610637565b604080518d8152602081018d90529081018a90527f9bec96fb6d100e4d478528377d4ef6e077836973c5de940a41a1e684522999929060600160405180910390a15090975050505050505050610def6001600055565b92915050565b610dfd6114d5565b610e05611522565b6002546040516331a9108f60e11b81526004810183905233916001600160a01b031690636352211e90602401602060405180830381865afa158015610e4e573d6000803e3d6000fd5b505050506040513d601f19601f82011682018060405250810190610e72919061172b565b6001600160a01b031614610ec45760405162461bcd60e51b815260206004820152601960248201527821b0b63632b91036bab9ba1037bbb7103a3432903a37b5b2b760391b6044820152606401610637565b60008181526009602052604090206002015460ff16610f255760405162461bcd60e51b815260206004820152601c60248201527f546f6b656e206e6f74206c697374656420666f7220666f7267696e67000000006044820152606401610637565b60008181526009602052604080822080546001600160a01b03191681556001810183905560028101805460ff19169055600301829055517fad9a746a334a8de4c0333b5452637bc5a53fe8dce405468ff37e62add0a0365e91610f9391849190918252602082015260400190565b60405180910390a1610fa56001600055565b50565b610fb0611429565b600455565b610fbd611429565b6001600160a01b0381166110225760405162461bcd60e51b815260206004820152602660248201527f4f776e61626c653a206e6577206f776e657220697320746865207a65726f206160448201526564647265737360d01b6064820152608401610637565b610fa581611483565b6110336114d5565b61103b611522565b60008281526009602052604090206002015460ff16156110a95760405162461bcd60e51b815260206004820152602360248201527f546f6b656e20697320616c7265616479206c697374656420666f7220666f7267604482015262696e6760e81b6064820152608401610637565b6002546040516331a9108f60e11b81526004810184905233916001600160a01b031690636352211e90602401602060405180830381865afa1580156110f2573d6000803e3d6000fd5b505050506040513d601f19601f82011682018060405250810190611116919061172b565b6001600160a01b0316146111685760405162461bcd60e51b815260206004820152601960248201527821b0b63632b91036bab9ba1037bbb7103a3432903a37b5b2b760391b6044820152606401610637565b6007548110156111d05760405162461bcd60e51b815260206004820152602d60248201527f4665652073686f756c6420626520686967686572207468616e206d696e696d7560448201526c6d206c697374696e672066656560981b6064820152608401610637565b6111d98261157b565b6002546040516306b6c00b60e01b8152600481018490526000916001600160a01b0316906306b6c00b90602401602060405180830381865afa158015611223573d6000803e3d6000fd5b505050506040513d601f19601f820116820180604052508101906112479190611748565b90506000600a61125781846117aa565b6112619190611796565b905060008160ff1611801561128a57506000848152600b602052604090205460ff808316911611155b6112e25760405162461bcd60e51b8152602060048201526024808201527f456e746974792068617320726561636865642069747320666f7267696e67206c6044820152631a5b5a5d60e21b6064820152608401610637565b60006112ef600384611796565b159050806113495760405162461bcd60e51b815260206004820152602160248201527f4f6e6c7920666f72676572732063616e206c69737420666f7220666f7267696e6044820152606760f81b6064820152608401610637565b6040805160808101825233815260208082018881526001838501818152606085018a815260008c815260098652878120965187546001600160a01b0319166001600160a01b039091161787559351928601929092555160028501805460ff1916911515919091179055516003909301929092556006805483526008909152918120879055815491906113da83611712565b909155505060408051868152602081018690527fad9a746a334a8de4c0333b5452637bc5a53fe8dce405468ff37e62add0a0365e910160405180910390a15050506114256001600055565b5050565b6001546001600160a01b0316331461049c5760405162461bcd60e51b815260206004820181905260248201527f4f776e61626c653a2063616c6c6572206973206e6f7420746865206f776e65726044820152606401610637565b600180546001600160a01b038381166001600160a01b0319831681179093556040519116919082907f8be0079c531659141344cd1fd0a4f28419497f9722a3daafe3b4186f6b6457e090600090a35050565b600154600160a01b900460ff161561049c5760405162461bcd60e51b815260206004820152601060248201526f14185d5cd8589b194e881c185d5cd95960821b6044820152606401610637565b6002600054036115745760405162461bcd60e51b815260206004820152601f60248201527f5265656e7472616e637947756172643a207265656e7472616e742063616c6c006044820152606401610637565b6002600055565b6005546000828152600c602052604081205490036115a757506000908152600c60205260409020429055565b6000828152600c60205260409020546115c19082906117d1565b421061142557506000908152600b60209081526040808320805460ff19169055600c9091529020429055565b6001600160a01b0381168114610fa557600080fd5b60006020828403121561161457600080fd5b813561161f816115ed565b9392505050565b60006020828403121561163857600080fd5b5035919050565b602080825282518282018190526000919060409081850190868401855b828110156116a157815180516001600160a01b03168552868101518786015285810151151586860152606090810151908501526080909301929085019060010161165c565b5091979650505050505050565b600080604083850312156116c157600080fd5b50508035926020909101359150565b634e487b7160e01b600052604160045260246000fd5b634e487b7160e01b600052603260045260246000fd5b634e487b7160e01b600052601160045260246000fd5b600060018201611724576117246116fc565b5060010190565b60006020828403121561173d57600080fd5b815161161f816115ed565b60006020828403121561175a57600080fd5b5051919050565b600060ff821660ff8103611777576117776116fc565b60010192915050565b634e487b7160e01b600052601260045260246000fd5b6000826117a5576117a5611780565b500690565b6000826117b9576117b9611780565b500490565b81810381811115610def57610def6116fc565b80820180821115610def57610def6116fc56fea2646970667358221220081ad65d7b897132a339cdae96417b57f2b5f9e9f6c92646a68d4e54c6f5f0b864736f6c63430008140033",
  "linkReferences": {},
  "deployedLinkReferences": {}
}