{
  "_format": "hh-sol-artifact-1",
  "contractName": "TraitForgeNft",
  "sourceName": "contracts/TraitForgeNft/TraitForgeNft.sol",
  "abi": [
    {
      "inputs": [],
      "stateMutability": "nonpayable",
      "type": "constructor"
    },
    {
      "anonymous": false,
      "inputs": [
        {
          "indexed": true,
          "internalType": "address",
          "name": "owner",
          "type": "address"
        },
        {
          "indexed": true,
          "internalType": "address",
          "name": "approved",
          "type": "address"
        },
        {
          "indexed": true,
          "internalType": "uint256",
          "name": "tokenId",
          "type": "uint256"
        }
      ],
      "name": "Approval",
      "type": "event"
    },
    {
      "anonymous": false,
      "inputs": [
        {
          "indexed": true,
          "internalType": "address",
          "name": "owner",
          "type": "address"
        },
        {
          "indexed": true,
          "internalType": "address",
          "name": "operator",
          "type": "address"
        },
        {
          "indexed": false,
          "internalType": "bool",
          "name": "approved",
          "type": "bool"
        }
      ],
      "name": "ApprovalForAll",
      "type": "event"
    },
    {
      "anonymous": false,
      "inputs": [
        {
          "indexed": true,
          "internalType": "uint256",
          "name": "newTokenId",
          "type": "uint256"
        },
        {
          "indexed": false,
          "internalType": "uint256",
          "name": "parent1Id",
          "type": "uint256"
        },
        {
          "indexed": false,
          "internalType": "uint256",
          "name": "parent2Id",
          "type": "uint256"
        },
        {
          "indexed": false,
          "internalType": "uint256",
          "name": "newEntropy",
          "type": "uint256"
        }
      ],
      "name": "EntityForged",
      "type": "event"
    },
    {
      "anonymous": false,
      "inputs": [
        {
          "indexed": true,
          "internalType": "address",
          "name": "to",
          "type": "address"
        },
        {
          "indexed": false,
          "internalType": "uint256",
          "name": "amount",
          "type": "uint256"
        }
      ],
      "name": "FundsDistributedToNukeFund",
      "type": "event"
    },
    {
      "anonymous": false,
      "inputs": [
        {
          "indexed": false,
          "internalType": "uint256",
          "name": "newGeneration",
          "type": "uint256"
        }
      ],
      "name": "GenerationIncremented",
      "type": "event"
    },
    {
      "anonymous": false,
      "inputs": [
        {
          "indexed": true,
          "internalType": "address",
          "name": "minter",
          "type": "address"
        },
        {
          "indexed": true,
          "internalType": "uint256",
          "name": "itemId",
          "type": "uint256"
        },
        {
          "indexed": false,
          "internalType": "uint256",
          "name": "entropyValue",
          "type": "uint256"
        }
      ],
      "name": "Minted",
      "type": "event"
    },
    {
      "anonymous": false,
      "inputs": [
        {
          "indexed": false,
          "internalType": "address",
          "name": "owner",
          "type": "address"
        },
        {
          "indexed": false,
          "internalType": "uint256",
          "name": "tokenId",
          "type": "uint256"
        },
        {
          "indexed": false,
          "internalType": "uint256",
          "name": "entropy",
          "type": "uint256"
        },
        {
          "indexed": false,
          "internalType": "uint256",
          "name": "generation",
          "type": "uint256"
        }
      ],
      "name": "NewEntityMinted",
      "type": "event"
    },
    {
      "anonymous": false,
      "inputs": [
        {
          "indexed": false,
          "internalType": "address",
          "name": "nukeFundAddress",
          "type": "address"
        }
      ],
      "name": "NukeFundContractUpdated",
      "type": "event"
    },
    {
      "anonymous": false,
      "inputs": [
        {
          "indexed": true,
          "internalType": "address",
          "name": "previousOwner",
          "type": "address"
        },
        {
          "indexed": true,
          "internalType": "address",
          "name": "newOwner",
          "type": "address"
        }
      ],
      "name": "OwnershipTransferred",
      "type": "event"
    },
    {
      "anonymous": false,
      "inputs": [
        {
          "indexed": false,
          "internalType": "address",
          "name": "account",
          "type": "address"
        }
      ],
      "name": "Paused",
      "type": "event"
    },
    {
      "anonymous": false,
      "inputs": [
        {
          "indexed": true,
          "internalType": "address",
          "name": "from",
          "type": "address"
        },
        {
          "indexed": true,
          "internalType": "address",
          "name": "to",
          "type": "address"
        },
        {
          "indexed": true,
          "internalType": "uint256",
          "name": "tokenId",
          "type": "uint256"
        }
      ],
      "name": "Transfer",
      "type": "event"
    },
    {
      "anonymous": false,
      "inputs": [
        {
          "indexed": false,
          "internalType": "address",
          "name": "account",
          "type": "address"
        }
      ],
      "name": "Unpaused",
      "type": "event"
    },
    {
      "inputs": [],
      "name": "airdropContract",
      "outputs": [
        {
          "internalType": "contract IAirdrop",
          "name": "",
          "type": "address"
        }
      ],
      "stateMutability": "view",
      "type": "function"
    },
    {
      "inputs": [
        {
          "internalType": "address",
          "name": "to",
          "type": "address"
        },
        {
          "internalType": "uint256",
          "name": "tokenId",
          "type": "uint256"
        }
      ],
      "name": "approve",
      "outputs": [],
      "stateMutability": "nonpayable",
      "type": "function"
    },
    {
      "inputs": [
        {
          "internalType": "address",
          "name": "owner",
          "type": "address"
        }
      ],
      "name": "balanceOf",
      "outputs": [
        {
          "internalType": "uint256",
          "name": "",
          "type": "uint256"
        }
      ],
      "stateMutability": "view",
      "type": "function"
    },
    {
      "inputs": [
        {
          "internalType": "uint256",
          "name": "tokenId",
          "type": "uint256"
        }
      ],
      "name": "burn",
      "outputs": [],
      "stateMutability": "nonpayable",
      "type": "function"
    },
    {
      "inputs": [],
      "name": "calculateMintPrice",
      "outputs": [
        {
          "internalType": "uint256",
          "name": "",
          "type": "uint256"
        }
      ],
      "stateMutability": "view",
      "type": "function"
    },
    {
      "inputs": [],
      "name": "currentGeneration",
      "outputs": [
        {
          "internalType": "uint256",
          "name": "",
          "type": "uint256"
        }
      ],
      "stateMutability": "view",
      "type": "function"
    },
    {
      "inputs": [],
      "name": "entityForgingContract",
      "outputs": [
        {
          "internalType": "contract IEntityForging",
          "name": "",
          "type": "address"
        }
      ],
      "stateMutability": "view",
      "type": "function"
    },
    {
      "inputs": [],
      "name": "entropyGenerator",
      "outputs": [
        {
          "internalType": "contract IEntropyGenerator",
          "name": "",
          "type": "address"
        }
      ],
      "stateMutability": "view",
      "type": "function"
    },
    {
      "inputs": [
        {
          "internalType": "uint256",
          "name": "parent1Id",
          "type": "uint256"
        },
        {
          "internalType": "uint256",
          "name": "parent2Id",
          "type": "uint256"
        },
        {
          "internalType": "string",
          "name": "",
          "type": "string"
        }
      ],
      "name": "forge",
      "outputs": [
        {
          "internalType": "uint256",
          "name": "",
          "type": "uint256"
        }
      ],
      "stateMutability": "nonpayable",
      "type": "function"
    },
    {
      "inputs": [
        {
          "internalType": "uint256",
          "name": "",
          "type": "uint256"
        }
      ],
      "name": "generationMintCounts",
      "outputs": [
        {
          "internalType": "uint256",
          "name": "",
          "type": "uint256"
        }
      ],
      "stateMutability": "view",
      "type": "function"
    },
    {
      "inputs": [
        {
          "internalType": "uint256",
          "name": "tokenId",
          "type": "uint256"
        }
      ],
      "name": "getApproved",
      "outputs": [
        {
          "internalType": "address",
          "name": "",
          "type": "address"
        }
      ],
      "stateMutability": "view",
      "type": "function"
    },
    {
      "inputs": [
        {
          "internalType": "uint256",
          "name": "forgerTokenId",
          "type": "uint256"
        },
        {
          "internalType": "uint256",
          "name": "mergerTokenId",
          "type": "uint256"
        }
      ],
      "name": "getEntropiesForTokens",
      "outputs": [
        {
          "internalType": "uint256",
          "name": "forgerEntropy",
          "type": "uint256"
        },
        {
          "internalType": "uint256",
          "name": "mergerEntropy",
          "type": "uint256"
        }
      ],
      "stateMutability": "view",
      "type": "function"
    },
    {
      "inputs": [],
      "name": "getGeneration",
      "outputs": [
        {
          "internalType": "uint256",
          "name": "",
          "type": "uint256"
        }
      ],
      "stateMutability": "view",
      "type": "function"
    },
    {
      "inputs": [
        {
          "internalType": "uint256",
          "name": "tokenId",
          "type": "uint256"
        }
      ],
      "name": "getTokenAge",
      "outputs": [
        {
          "internalType": "uint256",
          "name": "",
          "type": "uint256"
        }
      ],
      "stateMutability": "view",
      "type": "function"
    },
    {
      "inputs": [
        {
          "internalType": "uint256",
          "name": "tokenId",
          "type": "uint256"
        }
      ],
      "name": "getTokenCreationTimestamp",
      "outputs": [
        {
          "internalType": "uint256",
          "name": "",
          "type": "uint256"
        }
      ],
      "stateMutability": "view",
      "type": "function"
    },
    {
      "inputs": [
        {
          "internalType": "uint256",
          "name": "tokenId",
          "type": "uint256"
        }
      ],
      "name": "getTokenEntropy",
      "outputs": [
        {
          "internalType": "uint256",
          "name": "",
          "type": "uint256"
        }
      ],
      "stateMutability": "view",
      "type": "function"
    },
    {
      "inputs": [
        {
          "internalType": "uint256",
          "name": "tokenId",
          "type": "uint256"
        }
      ],
      "name": "getTokenGeneration",
      "outputs": [
        {
          "internalType": "uint256",
          "name": "",
          "type": "uint256"
        }
      ],
      "stateMutability": "view",
      "type": "function"
    },
    {
      "inputs": [
        {
          "internalType": "uint256",
          "name": "",
          "type": "uint256"
        }
      ],
      "name": "initialOwners",
      "outputs": [
        {
          "internalType": "address",
          "name": "",
          "type": "address"
        }
      ],
      "stateMutability": "view",
      "type": "function"
    },
    {
      "inputs": [
        {
          "internalType": "address",
          "name": "owner",
          "type": "address"
        },
        {
          "internalType": "address",
          "name": "operator",
          "type": "address"
        }
      ],
      "name": "isApprovedForAll",
      "outputs": [
        {
          "internalType": "bool",
          "name": "",
          "type": "bool"
        }
      ],
      "stateMutability": "view",
      "type": "function"
    },
    {
      "inputs": [
        {
          "internalType": "address",
          "name": "spender",
          "type": "address"
        },
        {
          "internalType": "uint256",
          "name": "tokenId",
          "type": "uint256"
        }
      ],
      "name": "isApprovedOrOwner",
      "outputs": [
        {
          "internalType": "bool",
          "name": "",
          "type": "bool"
        }
      ],
      "stateMutability": "view",
      "type": "function"
    },
    {
      "inputs": [
        {
          "internalType": "uint256",
          "name": "tokenId",
          "type": "uint256"
        }
      ],
      "name": "isForger",
      "outputs": [
        {
          "internalType": "bool",
          "name": "",
          "type": "bool"
        }
      ],
      "stateMutability": "view",
      "type": "function"
    },
    {
      "inputs": [],
      "name": "maxTokensPerGen",
      "outputs": [
        {
          "internalType": "uint256",
          "name": "",
          "type": "uint256"
        }
      ],
      "stateMutability": "view",
      "type": "function"
    },
    {
      "inputs": [],
      "name": "mintToken",
      "outputs": [],
      "stateMutability": "payable",
      "type": "function"
    },
    {
      "inputs": [],
      "name": "mintWithBudget",
      "outputs": [],
      "stateMutability": "payable",
      "type": "function"
    },
    {
      "inputs": [],
      "name": "name",
      "outputs": [
        {
          "internalType": "string",
          "name": "",
          "type": "string"
        }
      ],
      "stateMutability": "view",
      "type": "function"
    },
    {
      "inputs": [],
      "name": "nukeFundAddress",
      "outputs": [
        {
          "internalType": "address",
          "name": "",
          "type": "address"
        }
      ],
      "stateMutability": "view",
      "type": "function"
    },
    {
      "inputs": [],
      "name": "owner",
      "outputs": [
        {
          "internalType": "address",
          "name": "",
          "type": "address"
        }
      ],
      "stateMutability": "view",
      "type": "function"
    },
    {
      "inputs": [
        {
          "internalType": "uint256",
          "name": "tokenId",
          "type": "uint256"
        }
      ],
      "name": "ownerOf",
      "outputs": [
        {
          "internalType": "address",
          "name": "",
          "type": "address"
        }
      ],
      "stateMutability": "view",
      "type": "function"
    },
    {
      "inputs": [],
      "name": "paused",
      "outputs": [
        {
          "internalType": "bool",
          "name": "",
          "type": "bool"
        }
      ],
      "stateMutability": "view",
      "type": "function"
    },
    {
      "inputs": [],
      "name": "priceIncrement",
      "outputs": [
        {
          "internalType": "uint256",
          "name": "",
          "type": "uint256"
        }
      ],
      "stateMutability": "view",
      "type": "function"
    },
    {
      "inputs": [],
      "name": "renounceOwnership",
      "outputs": [],
      "stateMutability": "nonpayable",
      "type": "function"
    },
    {
      "inputs": [
        {
          "internalType": "address",
          "name": "from",
          "type": "address"
        },
        {
          "internalType": "address",
          "name": "to",
          "type": "address"
        },
        {
          "internalType": "uint256",
          "name": "tokenId",
          "type": "uint256"
        }
      ],
      "name": "safeTransferFrom",
      "outputs": [],
      "stateMutability": "nonpayable",
      "type": "function"
    },
    {
      "inputs": [
        {
          "internalType": "address",
          "name": "from",
          "type": "address"
        },
        {
          "internalType": "address",
          "name": "to",
          "type": "address"
        },
        {
          "internalType": "uint256",
          "name": "tokenId",
          "type": "uint256"
        },
        {
          "internalType": "bytes",
          "name": "data",
          "type": "bytes"
        }
      ],
      "name": "safeTransferFrom",
      "outputs": [],
      "stateMutability": "nonpayable",
      "type": "function"
    },
    {
      "inputs": [
        {
          "internalType": "address",
          "name": "_airdrop",
          "type": "address"
        }
      ],
      "name": "setAirdropContract",
      "outputs": [],
      "stateMutability": "nonpayable",
      "type": "function"
    },
    {
      "inputs": [
        {
          "internalType": "address",
          "name": "operator",
          "type": "address"
        },
        {
          "internalType": "bool",
          "name": "approved",
          "type": "bool"
        }
      ],
      "name": "setApprovalForAll",
      "outputs": [],
      "stateMutability": "nonpayable",
      "type": "function"
    },
    {
      "inputs": [
        {
          "internalType": "address",
          "name": "_entityForgingAddress",
          "type": "address"
        }
      ],
      "name": "setEntityForgingContract",
      "outputs": [],
      "stateMutability": "nonpayable",
      "type": "function"
    },
    {
      "inputs": [
        {
          "internalType": "address",
          "name": "_entropyGeneratorAddress",
          "type": "address"
        }
      ],
      "name": "setEntropyGenerator",
      "outputs": [],
      "stateMutability": "nonpayable",
      "type": "function"
    },
    {
      "inputs": [
        {
          "internalType": "address payable",
          "name": "_nukeFundAddress",
          "type": "address"
        }
      ],
      "name": "setNukeFundContract",
      "outputs": [],
      "stateMutability": "nonpayable",
      "type": "function"
    },
    {
      "inputs": [
        {
          "internalType": "uint256",
          "name": "_priceIncrement",
          "type": "uint256"
        }
      ],
      "name": "setPriceIncrement",
      "outputs": [],
      "stateMutability": "nonpayable",
      "type": "function"
    },
    {
      "inputs": [
        {
          "internalType": "uint256",
          "name": "_startPrice",
          "type": "uint256"
        }
      ],
      "name": "setStartPrice",
      "outputs": [],
      "stateMutability": "nonpayable",
      "type": "function"
    },
    {
      "inputs": [
        {
          "internalType": "uint256",
          "name": "amount",
          "type": "uint256"
        }
      ],
      "name": "startAirdrop",
      "outputs": [],
      "stateMutability": "nonpayable",
      "type": "function"
    },
    {
      "inputs": [],
      "name": "startPrice",
      "outputs": [
        {
          "internalType": "uint256",
          "name": "",
          "type": "uint256"
        }
      ],
      "stateMutability": "view",
      "type": "function"
    },
    {
      "inputs": [
        {
          "internalType": "bytes4",
          "name": "interfaceId",
          "type": "bytes4"
        }
      ],
      "name": "supportsInterface",
      "outputs": [
        {
          "internalType": "bool",
          "name": "",
          "type": "bool"
        }
      ],
      "stateMutability": "view",
      "type": "function"
    },
    {
      "inputs": [],
      "name": "symbol",
      "outputs": [
        {
          "internalType": "string",
          "name": "",
          "type": "string"
        }
      ],
      "stateMutability": "view",
      "type": "function"
    },
    {
      "inputs": [
        {
          "internalType": "uint256",
          "name": "index",
          "type": "uint256"
        }
      ],
      "name": "tokenByIndex",
      "outputs": [
        {
          "internalType": "uint256",
          "name": "",
          "type": "uint256"
        }
      ],
      "stateMutability": "view",
      "type": "function"
    },
    {
      "inputs": [
        {
          "internalType": "uint256",
          "name": "",
          "type": "uint256"
        }
      ],
      "name": "tokenCreationTimestamps",
      "outputs": [
        {
          "internalType": "uint256",
          "name": "",
          "type": "uint256"
        }
      ],
      "stateMutability": "view",
      "type": "function"
    },
    {
      "inputs": [
        {
          "internalType": "uint256",
          "name": "",
          "type": "uint256"
        }
      ],
      "name": "tokenEntropy",
      "outputs": [
        {
          "internalType": "uint256",
          "name": "",
          "type": "uint256"
        }
      ],
      "stateMutability": "view",
      "type": "function"
    },
    {
      "inputs": [
        {
          "internalType": "uint256",
          "name": "",
          "type": "uint256"
        }
      ],
      "name": "tokenGenerations",
      "outputs": [
        {
          "internalType": "uint256",
          "name": "",
          "type": "uint256"
        }
      ],
      "stateMutability": "view",
      "type": "function"
    },
    {
      "inputs": [
        {
          "internalType": "address",
          "name": "owner",
          "type": "address"
        },
        {
          "internalType": "uint256",
          "name": "index",
          "type": "uint256"
        }
      ],
      "name": "tokenOfOwnerByIndex",
      "outputs": [
        {
          "internalType": "uint256",
          "name": "",
          "type": "uint256"
        }
      ],
      "stateMutability": "view",
      "type": "function"
    },
    {
      "inputs": [
        {
          "internalType": "uint256",
          "name": "tokenId",
          "type": "uint256"
        }
      ],
      "name": "tokenURI",
      "outputs": [
        {
          "internalType": "string",
          "name": "",
          "type": "string"
        }
      ],
      "stateMutability": "view",
      "type": "function"
    },
    {
      "inputs": [],
      "name": "totalSupply",
      "outputs": [
        {
          "internalType": "uint256",
          "name": "",
          "type": "uint256"
        }
      ],
      "stateMutability": "view",
      "type": "function"
    },
    {
      "inputs": [
        {
          "internalType": "address",
          "name": "from",
          "type": "address"
        },
        {
          "internalType": "address",
          "name": "to",
          "type": "address"
        },
        {
          "internalType": "uint256",
          "name": "tokenId",
          "type": "uint256"
        }
      ],
      "name": "transferFrom",
      "outputs": [],
      "stateMutability": "nonpayable",
      "type": "function"
    },
    {
      "inputs": [
        {
          "internalType": "address",
          "name": "newOwner",
          "type": "address"
        }
      ],
      "name": "transferOwnership",
      "outputs": [],
      "stateMutability": "nonpayable",
      "type": "function"
    }
  ],
  "bytecode": "0x6080604052612710600c55662386f26fc10000600d55662386f26fc10000600e5560016013553480156200003257600080fd5b506040518060400160405280600d81526020016c151c985a5d119bdc99d953999d609a1b81525060405180604001604052806006815260200165151191d3919560d21b8152508160009081620000899190620001b5565b506001620000988282620001b5565b50506001600a5550620000ab33620000be565b600b805460ff60a01b1916905562000281565b600b80546001600160a01b038381166001600160a01b0319831681179093556040519116919082907f8be0079c531659141344cd1fd0a4f28419497f9722a3daafe3b4186f6b6457e090600090a35050565b634e487b7160e01b600052604160045260246000fd5b600181811c908216806200013b57607f821691505b6020821081036200015c57634e487b7160e01b600052602260045260246000fd5b50919050565b601f821115620001b057600081815260208120601f850160051c810160208610156200018b5750805b601f850160051c820191505b81811015620001ac5782815560010162000197565b5050505b505050565b81516001600160401b03811115620001d157620001d162000110565b620001e981620001e2845462000126565b8462000162565b602080601f831160018114620002215760008415620002085750858301515b600019600386901b1c1916600185901b178555620001ac565b600085815260208120601f198616915b82811015620002525788860151825594840194600190910190840162000231565b5085821015620002715787850151600019600388901b60f8161c191681555b5050505050600190811b01905550565b61318580620002916000396000f3fe60806040526004361061031a5760003560e01c806370a08231116101ab578063b30fec30116100f7578063d31f0eb911610095578063ee9151ae1161006f578063ee9151ae1461098b578063f1a9af89146109ab578063f2fde38b146109c1578063f9541a70146109e157600080fd5b8063d31f0eb91461090c578063d47384361461092c578063e985e9c51461094257600080fd5b8063c472f9d9116100d1578063c472f9d91461086a578063c87b56dd1461088a578063c9e01a91146108aa578063ce4a88bd146108df57600080fd5b8063b30fec301461080a578063b88d4fde1461082a578063beae207f1461084a57600080fd5b806395d89b41116101645780639da465f21161013e5780639da465f21461077d578063a22cb465146107aa578063ab2be726146107ca578063acb4a009146107ea57600080fd5b806395d89b411461071b578063965a563014610730578063978ca8561461075057600080fd5b806370a0823114610665578063715018a6146106855780637d4194901461069a5780638da5cb5b146106ba5780638ddb428a146106d857806391785e6d146106ee57600080fd5b806342842e0e1161026a5780634f93d5c0116102235780636352211e116101fd5780636352211e146105da57806364d19025146105fa578063694db4e3146106305780636f0115381461064557600080fd5b80634f93d5c0146105865780635c975abb1461059b578063614f3672146105ba57600080fd5b806342842e0e146104c657806342966c68146104e6578063430c208114610506578063431a3f9d146105265780634905269c146105465780634f6ccce71461056657600080fd5b806316ad45d5116102d75780632004ffd9116102b15780632004ffd91461046857806323b872dd14610470578063280d62ac146104905780632f745c59146104a657600080fd5b806316ad45d51461040657806317d861541461043357806318160ddd1461045357600080fd5b806301ffc9a71461031f57806306b6c00b1461035457806306fdde0314610382578063081812fc146103a4578063095ea7b3146103dc578063134ad5bf146103fe575b600080fd5b34801561032b57600080fd5b5061033f61033a366004612b1a565b610a01565b60405190151581526020015b60405180910390f35b34801561036057600080fd5b5061037461036f366004612b37565b610a2c565b60405190815260200161034b565b34801561038e57600080fd5b50610397610a7a565b60405161034b9190612ba0565b3480156103b057600080fd5b506103c46103bf366004612b37565b610b0c565b6040516001600160a01b03909116815260200161034b565b3480156103e857600080fd5b506103fc6103f7366004612bc8565b610b33565b005b6103fc610c48565b34801561041257600080fd5b50610374610421366004612b37565b60156020526000908152604090205481565b34801561043f57600080fd5b506103fc61044e366004612b37565b610d53565b34801561045f57600080fd5b50600854610374565b6103fc610d60565b34801561047c57600080fd5b506103fc61048b366004612bf4565b610e99565b34801561049c57600080fd5b50610374600e5481565b3480156104b257600080fd5b506103746104c1366004612bc8565b610eca565b3480156104d257600080fd5b506103fc6104e1366004612bf4565b610f60565b3480156104f257600080fd5b506103fc610501366004612b37565b610f7b565b34801561051257600080fd5b5061033f610521366004612bc8565b6110c6565b34801561053257600080fd5b50610374610541366004612b37565b6110d9565b34801561055257600080fd5b506103fc610561366004612b37565b61111e565b34801561057257600080fd5b50610374610581366004612b37565b61112b565b34801561059257600080fd5b506103746111be565b3480156105a757600080fd5b50600b54600160a01b900460ff1661033f565b3480156105c657600080fd5b506010546103c4906001600160a01b031681565b3480156105e657600080fd5b506103c46105f5366004612b37565b6111fa565b34801561060657600080fd5b506103c4610615366004612b37565b6018602052600090815260409020546001600160a01b031681565b34801561063c57600080fd5b50601354610374565b34801561065157600080fd5b506103fc610660366004612c35565b61125a565b34801561067157600080fd5b50610374610680366004612c35565b611284565b34801561069157600080fd5b506103fc61130a565b3480156106a657600080fd5b506103fc6106b5366004612c35565b61131c565b3480156106c657600080fd5b50600b546001600160a01b03166103c4565b3480156106e457600080fd5b5061037460135481565b3480156106fa57600080fd5b50610374610709366004612b37565b60009081526017602052604090205490565b34801561072757600080fd5b50610397611346565b34801561073c57600080fd5b5061037461074b366004612cde565b611355565b34801561075c57600080fd5b5061037461076b366004612b37565b60166020526000908152604090205481565b34801561078957600080fd5b50610374610798366004612b37565b60146020526000908152604090205481565b3480156107b657600080fd5b506103fc6107c5366004612d50565b611463565b3480156107d657600080fd5b506011546103c4906001600160a01b031681565b3480156107f657600080fd5b50600f546103c4906001600160a01b031681565b34801561081657600080fd5b50610374610825366004612b37565b611472565b34801561083657600080fd5b506103fc610845366004612d89565b6114bd565b34801561085657600080fd5b506103fc610865366004612b37565b6114f5565b34801561087657600080fd5b506103fc610885366004612c35565b611566565b34801561089657600080fd5b506103976108a5366004612b37565b6115c2565b3480156108b657600080fd5b506108ca6108c5366004612e09565b611635565b6040805192835260208301919091520161034b565b3480156108eb57600080fd5b506103746108fa366004612b37565b60176020526000908152604090205481565b34801561091857600080fd5b5061033f610927366004612b37565b611655565b34801561093857600080fd5b50610374600c5481565b34801561094e57600080fd5b5061033f61095d366004612e2b565b6001600160a01b03918216600090815260056020908152604080832093909416825291909152205460ff1690565b34801561099757600080fd5b506012546103c4906001600160a01b031681565b3480156109b757600080fd5b50610374600d5481565b3480156109cd57600080fd5b506103fc6109dc366004612c35565b611679565b3480156109ed57600080fd5b506103fc6109fc366004612c35565b6116ef565b60006001600160e01b0319821663780e9d6360e01b1480610a265750610a2682611719565b92915050565b600080610a38836111fa565b6001600160a01b031603610a675760405162461bcd60e51b8152600401610a5e90612e59565b60405180910390fd5b5060009081526015602052604090205490565b606060008054610a8990612e9c565b80601f0160208091040260200160405190810160405280929190818152602001828054610ab590612e9c565b8015610b025780601f10610ad757610100808354040283529160200191610b02565b820191906000526020600020905b815481529060010190602001808311610ae557829003601f168201915b5050505050905090565b6000610b1782611769565b506000908152600460205260409020546001600160a01b031690565b6000610b3e826111fa565b9050806001600160a01b0316836001600160a01b031603610bab5760405162461bcd60e51b815260206004820152602160248201527f4552433732313a20617070726f76616c20746f2063757272656e74206f776e656044820152603960f91b6064820152608401610a5e565b336001600160a01b0382161480610bc75750610bc7813361095d565b610c395760405162461bcd60e51b815260206004820152603d60248201527f4552433732313a20617070726f76652063616c6c6572206973206e6f7420746f60448201527f6b656e206f776e6572206f7220617070726f76656420666f7220616c6c0000006064820152608401610a5e565b610c4383836117c8565b505050565b610c50611836565b610c58611883565b6000610c626111be565b90506000345b828110158015610c7b5750600c54601954105b15610cb357610c8a33846118dc565b81610c9481612eec565b9250610ca290508382612f05565b9050610cac6111be565b9250610c68565b8015610d4457604051600090339083908381818185875af1925050503d8060008114610cfb576040519150601f19603f3d011682016040523d82523d6000602084013e610d00565b606091505b5050905080610d425760405162461bcd60e51b815260206004820152600e60248201526d2932b33ab732103330b4b632b21760911b6044820152606401610a5e565b505b505050610d516001600a55565b565b610d5b611b10565b600d55565b610d68611836565b610d70611883565b6000610d7a6111be565b905080341015610dd75760405162461bcd60e51b815260206004820152602260248201527f496e73756666696369656e74204554482073656e6420666f72206d696e74696e604482015261339760f11b6064820152608401610a5e565b610de133826118dc565b6000610ded8234612f05565b90508015610e8d57604051600090339083908381818185875af1925050503d8060008114610e37576040519150601f19603f3d011682016040523d82523d6000602084013e610e3c565b606091505b5050905080610d445760405162461bcd60e51b815260206004820181905260248201527f526566756e64206f6620657863657373207061796d656e74206661696c65642e6044820152606401610a5e565b5050610d516001600a55565b610ea33382611b6a565b610ebf5760405162461bcd60e51b8152600401610a5e90612f18565b610c43838383611be8565b6000610ed583611284565b8210610f375760405162461bcd60e51b815260206004820152602b60248201527f455243373231456e756d657261626c653a206f776e657220696e646578206f7560448201526a74206f6620626f756e647360a81b6064820152608401610a5e565b506001600160a01b03919091166000908152600660209081526040808320938352929052205490565b610c43838383604051806020016040528060008152506114bd565b610f83611836565b610f8b611883565b610f9533826110c6565b610fb15760405162461bcd60e51b8152600401610a5e90612f18565b601160009054906101000a90046001600160a01b03166001600160a01b031663143c2a316040518163ffffffff1660e01b8152600401602060405180830381865afa158015611004573d6000803e3d6000fd5b505050506040513d601f19601f820116820180604052508101906110289190612f65565b6110b057600061103782610a2c565b601154600084815260186020526040908190205490516361b512a760e01b81526001600160a01b0391821660048201526024810184905292935016906361b512a790604401600060405180830381600087803b15801561109657600080fd5b505af11580156110aa573d6000803e3d6000fd5b50505050505b6110b981611d59565b6110c36001600a55565b50565b60006110d28383611b6a565b9392505050565b6000806110e5836111fa565b6001600160a01b03160361110b5760405162461bcd60e51b8152600401610a5e90612e59565b5060009081526014602052604090205490565b611126611b10565b600e55565b600061113660085490565b82106111995760405162461bcd60e51b815260206004820152602c60248201527f455243373231456e756d657261626c653a20676c6f62616c20696e646578206f60448201526b7574206f6620626f756e647360a01b6064820152608401610a5e565b600882815481106111ac576111ac612f82565b90600052602060002001549050919050565b601354600090815260166020526040812054600e5482906111e0908390612f98565b9050600081600d546111f29190612faf565b949350505050565b6000818152600260205260408120546001600160a01b031680610a265760405162461bcd60e51b8152602060048201526018602482015277115490cdcc8c4e881a5b9d985b1a59081d1bdad95b88125160421b6044820152606401610a5e565b611262611b10565b601180546001600160a01b0319166001600160a01b0392909216919091179055565b60006001600160a01b0382166112ee5760405162461bcd60e51b815260206004820152602960248201527f4552433732313a2061646472657373207a65726f206973206e6f7420612076616044820152683634b21037bbb732b960b91b6064820152608401610a5e565b506001600160a01b031660009081526003602052604090205490565b611312611b10565b610d516000611dfc565b611324611b10565b600f80546001600160a01b0319166001600160a01b0392909216919091179055565b606060018054610a8990612e9c565b600061135f611836565b611367611883565b600f546001600160a01b031633146113b75760405162461bcd60e51b81526020600482015260136024820152723ab730baba3437b934bd32b21031b0b63632b960691b6044820152606401610a5e565b6000806113c48686611635565b9092509050600060026113d78385612faf565b6113e19190612fd8565b600088815260176020526040812054919250906113ff906001612faf565b9050600061140d8383611e4e565b604080518b8152602081018b905290810185905290915081907fae378ea103c179e937504fbbb482687c3ba8c94e0e94bab0b7665c122e28408f9060600160405180910390a29450505050506110d26001600a55565b61146e338383612084565b5050565b60008061147e836111fa565b6001600160a01b0316036114a45760405162461bcd60e51b8152600401610a5e90612e59565b600082815260146020526040902054610a269042612f05565b6114c73383611b6a565b6114e35760405162461bcd60e51b8152600401610a5e90612f18565b6114ef84848484612152565b50505050565b6114fd611836565b611505611b10565b60115460405163beae207f60e01b8152600481018390526001600160a01b039091169063beae207f90602401600060405180830381600087803b15801561154b57600080fd5b505af115801561155f573d6000803e3d6000fd5b5050505050565b61156e611b10565b601280546001600160a01b0319166001600160a01b0383169081179091556040519081527f1114ada982fd54a278faff6e22bdab70f68751ea047f4c3c6bea8163a4a719599060200160405180910390a150565b60606115cd82611769565b60006115e460408051602081019091526000815290565b9050600081511161160457604051806020016040528060008152506110d2565b8061160e84612185565b60405160200161161f929190612fec565b6040516020818303038152906040529392505050565b60008061164184610a2c565b915061164c83610a2c565b90509250929050565b6000818152601560205260408120548161167060038361301b565b15949350505050565b611681611b10565b6001600160a01b0381166116e65760405162461bcd60e51b815260206004820152602660248201527f4f776e61626c653a206e6577206f776e657220697320746865207a65726f206160448201526564647265737360d01b6064820152608401610a5e565b6110c381611dfc565b6116f7611b10565b601080546001600160a01b0319166001600160a01b0392909216919091179055565b60006001600160e01b031982166380ac58cd60e01b148061174a57506001600160e01b03198216635b5e139f60e01b145b80610a2657506301ffc9a760e01b6001600160e01b0319831614610a26565b6000818152600260205260409020546001600160a01b03166110c35760405162461bcd60e51b8152602060048201526018602482015277115490cdcc8c4e881a5b9d985b1a59081d1bdad95b88125160421b6044820152606401610a5e565b600081815260046020526040902080546001600160a01b0319166001600160a01b03841690811790915581906117fd826111fa565b6001600160a01b03167f8c5be1e5ebec7d5bd14f71427d1e84f3dd0314c0f7b2291e5b200ac8c7c3b92560405160405180910390a45050565b600b54600160a01b900460ff1615610d515760405162461bcd60e51b815260206004820152601060248201526f14185d5cd8589b194e881c185d5cd95960821b6044820152606401610a5e565b6002600a54036118d55760405162461bcd60e51b815260206004820152601f60248201527f5265656e7472616e637947756172643a207265656e7472616e742063616c6c006044820152606401610a5e565b6002600a55565b600c54601354600090815260166020526040902054106118fe576118fe612218565b601980546000918261190f83612eec565b91905055905061191f8382612339565b60105460408051638f1ad44160e01b815290516000926001600160a01b031691638f1ad441916004808301926020929190829003018187875af115801561196a573d6000803e3d6000fd5b505050506040513d601f19601f8201168201806040525081019061198e919061302f565b600083815260146020908152604080832042905560158252808320849055601354601783528184208190558352601690915281208054929350906119d183612eec565b909155505060008281526018602090815260409182902080546001600160a01b0319166001600160a01b0388811691909117909155601154835163143c2a3160e01b8152935191169263143c2a319260048083019391928290030181865afa158015611a41573d6000803e3d6000fd5b505050506040513d601f19601f82011682018060405250810190611a659190612f65565b611ad057601154604051635c13e80160e11b81526001600160a01b038681166004830152602482018490529091169063b827d00290604401600060405180830381600087803b158015611ab757600080fd5b505af1158015611acb573d6000803e3d6000fd5b505050505b604051818152829033907f25b428dfde728ccfaddad7e29e4ac23c24ed7fd1a6e3e3f91894a9a073f5dfff9060200160405180910390a36114ef836124d2565b600b546001600160a01b03163314610d515760405162461bcd60e51b815260206004820181905260248201527f4f776e61626c653a2063616c6c6572206973206e6f7420746865206f776e65726044820152606401610a5e565b600080611b76836111fa565b9050806001600160a01b0316846001600160a01b03161480611bbd57506001600160a01b0380821660009081526005602090815260408083209388168352929052205460ff165b806111f25750836001600160a01b0316611bd684610b0c565b6001600160a01b031614949350505050565b826001600160a01b0316611bfb826111fa565b6001600160a01b031614611c215760405162461bcd60e51b8152600401610a5e90613048565b6001600160a01b038216611c835760405162461bcd60e51b8152602060048201526024808201527f4552433732313a207472616e7366657220746f20746865207a65726f206164646044820152637265737360e01b6064820152608401610a5e565b611c9083838360016125f4565b826001600160a01b0316611ca3826111fa565b6001600160a01b031614611cc95760405162461bcd60e51b8152600401610a5e90613048565b600081815260046020908152604080832080546001600160a01b03199081169091556001600160a01b0387811680865260038552838620805460001901905590871680865283862080546001019055868652600290945282852080549092168417909155905184937fddf252ad1be2c89b69c2b068fc378daa952ba7f163c4a11628f55a4df523b3ef91a4505050565b6000611d64826111fa565b9050611d748160008460016125f4565b611d7d826111fa565b600083815260046020908152604080832080546001600160a01b03199081169091556001600160a01b0385168085526003845282852080546000190190558785526002909352818420805490911690555192935084927fddf252ad1be2c89b69c2b068fc378daa952ba7f163c4a11628f55a4df523b3ef908390a45050565b600b80546001600160a01b038381166001600160a01b0319831681179093556040519116919082907f8be0079c531659141344cd1fd0a4f28419497f9722a3daafe3b4186f6b6457e090600090a35050565b600c54600082815260166020526040812054909111611eaf5760405162461bcd60e51b815260206004820152601760248201527f45786365656473206d6178546f6b656e7350657247656e0000000000000000006044820152606401610a5e565b6019805460009182611ec083612eec565b919050559050611ed03382612339565b60008181526015602090815260408083208790556017825280832086905585835260169091528120805491611f0483612eec565b9091555050600081815260186020908152604080832080546001600160a01b03191633179055600c5486845260169092529091205410801590611f48575060135483145b15611f5557611f55612218565b601160009054906101000a90046001600160a01b03166001600160a01b031663143c2a316040518163ffffffff1660e01b8152600401602060405180830381865afa158015611fa8573d6000803e3d6000fd5b505050506040513d601f19601f82011682018060405250810190611fcc9190612f65565b61203557601154604051635c13e80160e11b8152336004820152602481018690526001600160a01b039091169063b827d00290604401600060405180830381600087803b15801561201c57600080fd5b505af1158015612030573d6000803e3d6000fd5b505050505b6040805133815260208101839052908101859052606081018490527febb566b3f6e54c0bd62fed4bdba1b047d20927741852161e61156b75e678f78e9060800160405180910390a19392505050565b816001600160a01b0316836001600160a01b0316036120e55760405162461bcd60e51b815260206004820152601960248201527f4552433732313a20617070726f766520746f2063616c6c6572000000000000006044820152606401610a5e565b6001600160a01b03838116600081815260056020908152604080832094871680845294825291829020805460ff191686151590811790915591519182527f17307eab39ab6107e8899845ad3d59bd9653f200f220920489ca2b5937696c31910160405180910390a3505050565b61215d848484611be8565b6121698484848461266e565b6114ef5760405162461bcd60e51b8152600401610a5e9061308d565b606060006121928361276f565b600101905060008167ffffffffffffffff8111156121b2576121b2612c52565b6040519080825280601f01601f1916602001820160405280156121dc576020820181803683370190505b5090508181016020015b600019016f181899199a1a9b1b9c1cb0b131b232b360811b600a86061a8153600a85049450846121e657509392505050565b600c54601354600090815260166020526040902054101561227b5760405162461bcd60e51b815260206004820181905260248201527f47656e65726174696f6e206c696d6974206e6f742079657420726561636865646044820152606401610a5e565b6013805490600061228b83612eec565b909155505060135460009081526016602052604080822082905560105481516320917abb60e21b815291516001600160a01b0390911692638245eaec926004808201939182900301818387803b1580156122e457600080fd5b505af11580156122f8573d6000803e3d6000fd5b505050507ffa7df6876fbcf0666000276873af058033b0923064c1489e1b98f59eb8253db360135460405161232f91815260200190565b60405180910390a1565b6001600160a01b03821661238f5760405162461bcd60e51b815260206004820181905260248201527f4552433732313a206d696e7420746f20746865207a65726f20616464726573736044820152606401610a5e565b6000818152600260205260409020546001600160a01b0316156123f45760405162461bcd60e51b815260206004820152601c60248201527f4552433732313a20746f6b656e20616c7265616479206d696e746564000000006044820152606401610a5e565b6124026000838360016125f4565b6000818152600260205260409020546001600160a01b0316156124675760405162461bcd60e51b815260206004820152601c60248201527f4552433732313a20746f6b656e20616c7265616479206d696e746564000000006044820152606401610a5e565b6001600160a01b038216600081815260036020908152604080832080546001019055848352600290915280822080546001600160a01b0319168417905551839291907fddf252ad1be2c89b69c2b068fc378daa952ba7f163c4a11628f55a4df523b3ef908290a45050565b804710156125195760405162461bcd60e51b8152602060048201526014602482015273496e73756666696369656e742062616c616e636560601b6044820152606401610a5e565b6012546040516000916001600160a01b03169083908381818185875af1925050503d8060008114612566576040519150601f19603f3d011682016040523d82523d6000602084013e61256b565b606091505b50509050806125ae5760405162461bcd60e51b815260206004820152600f60248201526e115512081cd95b990819985a5b1959608a1b6044820152606401610a5e565b6012546040518381526001600160a01b03909116907fdfe04cb744b4ee80624bdb008aa37bdbecda831c4e5aa3611d64ef017c5aa3339060200160405180910390a25050565b61260084848484612847565b600b54600160a01b900460ff16156114ef5760405162461bcd60e51b815260206004820152602b60248201527f4552433732315061757361626c653a20746f6b656e207472616e73666572207760448201526a1a1a5b19481c185d5cd95960aa1b6064820152608401610a5e565b60006001600160a01b0384163b1561276457604051630a85bd0160e11b81526001600160a01b0385169063150b7a02906126b29033908990889088906004016130df565b6020604051808303816000875af19250505080156126ed575060408051601f3d908101601f191682019092526126ea9181019061311c565b60015b61274a573d80801561271b576040519150601f19603f3d011682016040523d82523d6000602084013e612720565b606091505b5080516000036127425760405162461bcd60e51b8152600401610a5e9061308d565b805181602001fd5b6001600160e01b031916630a85bd0160e11b1490506111f2565b506001949350505050565b60008072184f03e93ff9f4daa797ed6e38ed64bf6a1f0160401b83106127ae5772184f03e93ff9f4daa797ed6e38ed64bf6a1f0160401b830492506040015b6d04ee2d6d415b85acef810000000083106127da576d04ee2d6d415b85acef8100000000830492506020015b662386f26fc1000083106127f857662386f26fc10000830492506010015b6305f5e1008310612810576305f5e100830492506008015b612710831061282457612710830492506004015b60648310612836576064830492506002015b600a8310610a265760010192915050565b60018111156128b65760405162461bcd60e51b815260206004820152603560248201527f455243373231456e756d657261626c653a20636f6e7365637574697665207472604482015274185b9cd9995c9cc81b9bdd081cdd5c1c1bdc9d1959605a1b6064820152608401610a5e565b816001600160a01b0385166129125761290d81600880546000838152600960205260408120829055600182018355919091527ff3f7a9fe364faab93b216da50a3214154f22a0a2b415b23a84c8169e8b636ee30155565b612935565b836001600160a01b0316856001600160a01b031614612935576129358582612974565b6001600160a01b0384166129515761294c81612a11565b61155f565b846001600160a01b0316846001600160a01b03161461155f5761155f8482612ac0565b6000600161298184611284565b61298b9190612f05565b6000838152600760205260409020549091508082146129de576001600160a01b03841660009081526006602090815260408083208584528252808320548484528184208190558352600790915290208190555b5060009182526007602090815260408084208490556001600160a01b039094168352600681528383209183525290812055565b600854600090612a2390600190612f05565b60008381526009602052604081205460088054939450909284908110612a4b57612a4b612f82565b906000526020600020015490508060088381548110612a6c57612a6c612f82565b6000918252602080832090910192909255828152600990915260408082208490558582528120556008805480612aa457612aa4613139565b6001900381819060005260206000200160009055905550505050565b6000612acb83611284565b6001600160a01b039093166000908152600660209081526040808320868452825280832085905593825260079052919091209190915550565b6001600160e01b0319811681146110c357600080fd5b600060208284031215612b2c57600080fd5b81356110d281612b04565b600060208284031215612b4957600080fd5b5035919050565b60005b83811015612b6b578181015183820152602001612b53565b50506000910152565b60008151808452612b8c816020860160208601612b50565b601f01601f19169290920160200192915050565b6020815260006110d26020830184612b74565b6001600160a01b03811681146110c357600080fd5b60008060408385031215612bdb57600080fd5b8235612be681612bb3565b946020939093013593505050565b600080600060608486031215612c0957600080fd5b8335612c1481612bb3565b92506020840135612c2481612bb3565b929592945050506040919091013590565b600060208284031215612c4757600080fd5b81356110d281612bb3565b634e487b7160e01b600052604160045260246000fd5b600067ffffffffffffffff80841115612c8357612c83612c52565b604051601f8501601f19908116603f01168101908282118183101715612cab57612cab612c52565b81604052809350858152868686011115612cc457600080fd5b858560208301376000602087830101525050509392505050565b600080600060608486031215612cf357600080fd5b8335925060208401359150604084013567ffffffffffffffff811115612d1857600080fd5b8401601f81018613612d2957600080fd5b612d3886823560208401612c68565b9150509250925092565b80151581146110c357600080fd5b60008060408385031215612d6357600080fd5b8235612d6e81612bb3565b91506020830135612d7e81612d42565b809150509250929050565b60008060008060808587031215612d9f57600080fd5b8435612daa81612bb3565b93506020850135612dba81612bb3565b925060408501359150606085013567ffffffffffffffff811115612ddd57600080fd5b8501601f81018713612dee57600080fd5b612dfd87823560208401612c68565b91505092959194509250565b60008060408385031215612e1c57600080fd5b50508035926020909101359150565b60008060408385031215612e3e57600080fd5b8235612e4981612bb3565b91506020830135612d7e81612bb3565b60208082526023908201527f4552433732313a20717565727920666f72206e6f6e6578697374656e7420746f60408201526235b2b760e91b606082015260800190565b600181811c90821680612eb057607f821691505b602082108103612ed057634e487b7160e01b600052602260045260246000fd5b50919050565b634e487b7160e01b600052601160045260246000fd5b600060018201612efe57612efe612ed6565b5060010190565b81810381811115610a2657610a26612ed6565b6020808252602d908201527f4552433732313a2063616c6c6572206973206e6f7420746f6b656e206f776e6560408201526c1c881bdc88185c1c1c9bdd9959609a1b606082015260800190565b600060208284031215612f7757600080fd5b81516110d281612d42565b634e487b7160e01b600052603260045260246000fd5b8082028115828204841417610a2657610a26612ed6565b80820180821115610a2657610a26612ed6565b634e487b7160e01b600052601260045260246000fd5b600082612fe757612fe7612fc2565b500490565b60008351612ffe818460208801612b50565b835190830190613012818360208801612b50565b01949350505050565b60008261302a5761302a612fc2565b500690565b60006020828403121561304157600080fd5b5051919050565b60208082526025908201527f4552433732313a207472616e736665722066726f6d20696e636f72726563742060408201526437bbb732b960d91b606082015260800190565b60208082526032908201527f4552433732313a207472616e7366657220746f206e6f6e20455243373231526560408201527131b2b4bb32b91034b6b83632b6b2b73a32b960711b606082015260800190565b6001600160a01b038581168252841660208201526040810183905260806060820181905260009061311290830184612b74565b9695505050505050565b60006020828403121561312e57600080fd5b81516110d281612b04565b634e487b7160e01b600052603160045260246000fdfea26469706673582212209920da9539012f250d54c97a13d84605e11b1f89ee329cac8ceafde25c38779264736f6c63430008140033",
  "linkReferences": {},
  "deployedLinkReferences": {}
}