{
  "_format": "hh-sol-artifact-1",
  "contractName": "TraitForgeNft",
  "sourceName": "contracts/TraitForgeNft/TraitForgeNft.sol",
  "abi": [
    {
      "inputs": [],
      "stateMutability": "nonpayable",
      "type": "constructor"
    },
    {
      "anonymous": false,
      "inputs": [
        {
          "indexed": true,
          "internalType": "address",
          "name": "owner",
          "type": "address"
        },
        {
          "indexed": true,
          "internalType": "address",
          "name": "approved",
          "type": "address"
        },
        {
          "indexed": true,
          "internalType": "uint256",
          "name": "tokenId",
          "type": "uint256"
        }
      ],
      "name": "Approval",
      "type": "event"
    },
    {
      "anonymous": false,
      "inputs": [
        {
          "indexed": true,
          "internalType": "address",
          "name": "owner",
          "type": "address"
        },
        {
          "indexed": true,
          "internalType": "address",
          "name": "operator",
          "type": "address"
        },
        {
          "indexed": false,
          "internalType": "bool",
          "name": "approved",
          "type": "bool"
        }
      ],
      "name": "ApprovalForAll",
      "type": "event"
    },
    {
      "anonymous": false,
      "inputs": [
        {
          "indexed": true,
          "internalType": "uint256",
          "name": "newTokenId",
          "type": "uint256"
        },
        {
          "indexed": false,
          "internalType": "uint256",
          "name": "parent1Id",
          "type": "uint256"
        },
        {
          "indexed": false,
          "internalType": "uint256",
          "name": "parent2Id",
          "type": "uint256"
        },
        {
          "indexed": false,
          "internalType": "uint256",
          "name": "newEntropy",
          "type": "uint256"
        }
      ],
      "name": "EntityForged",
      "type": "event"
    },
    {
      "anonymous": false,
      "inputs": [
        {
          "indexed": true,
          "internalType": "address",
          "name": "to",
          "type": "address"
        },
        {
          "indexed": false,
          "internalType": "uint256",
          "name": "amount",
          "type": "uint256"
        }
      ],
      "name": "FundsDistributedToNukeFund",
      "type": "event"
    },
    {
      "anonymous": false,
      "inputs": [
        {
          "indexed": false,
          "internalType": "uint256",
          "name": "newGeneration",
          "type": "uint256"
        }
      ],
      "name": "GenerationIncremented",
      "type": "event"
    },
    {
      "anonymous": false,
      "inputs": [
        {
          "indexed": true,
          "internalType": "address",
          "name": "minter",
          "type": "address"
        },
        {
          "indexed": true,
          "internalType": "uint256",
          "name": "itemId",
          "type": "uint256"
        },
        {
          "indexed": false,
          "internalType": "uint256",
          "name": "entropyValue",
          "type": "uint256"
        }
      ],
      "name": "Minted",
      "type": "event"
    },
    {
      "anonymous": false,
      "inputs": [
        {
          "indexed": false,
          "internalType": "address",
          "name": "owner",
          "type": "address"
        },
        {
          "indexed": false,
          "internalType": "uint256",
          "name": "tokenId",
          "type": "uint256"
        },
        {
          "indexed": false,
          "internalType": "uint256",
          "name": "entropy",
          "type": "uint256"
        },
        {
          "indexed": false,
          "internalType": "uint256",
          "name": "generation",
          "type": "uint256"
        }
      ],
      "name": "NewEntityMinted",
      "type": "event"
    },
    {
      "anonymous": false,
      "inputs": [
        {
          "indexed": false,
          "internalType": "address",
          "name": "nukeFundAddress",
          "type": "address"
        }
      ],
      "name": "NukeFundContractUpdated",
      "type": "event"
    },
    {
      "anonymous": false,
      "inputs": [
        {
          "indexed": true,
          "internalType": "address",
          "name": "previousOwner",
          "type": "address"
        },
        {
          "indexed": true,
          "internalType": "address",
          "name": "newOwner",
          "type": "address"
        }
      ],
      "name": "OwnershipTransferred",
      "type": "event"
    },
    {
      "anonymous": false,
      "inputs": [
        {
          "indexed": false,
          "internalType": "address",
          "name": "account",
          "type": "address"
        }
      ],
      "name": "Paused",
      "type": "event"
    },
    {
      "anonymous": false,
      "inputs": [
        {
          "indexed": true,
          "internalType": "address",
          "name": "from",
          "type": "address"
        },
        {
          "indexed": true,
          "internalType": "address",
          "name": "to",
          "type": "address"
        },
        {
          "indexed": true,
          "internalType": "uint256",
          "name": "tokenId",
          "type": "uint256"
        }
      ],
      "name": "Transfer",
      "type": "event"
    },
    {
      "anonymous": false,
      "inputs": [
        {
          "indexed": false,
          "internalType": "address",
          "name": "account",
          "type": "address"
        }
      ],
      "name": "Unpaused",
      "type": "event"
    },
    {
      "inputs": [],
      "name": "airdropContract",
      "outputs": [
        {
          "internalType": "contract IAirdrop",
          "name": "",
          "type": "address"
        }
      ],
      "stateMutability": "view",
      "type": "function"
    },
    {
      "inputs": [
        {
          "internalType": "address",
          "name": "to",
          "type": "address"
        },
        {
          "internalType": "uint256",
          "name": "tokenId",
          "type": "uint256"
        }
      ],
      "name": "approve",
      "outputs": [],
      "stateMutability": "nonpayable",
      "type": "function"
    },
    {
      "inputs": [
        {
          "internalType": "address",
          "name": "owner",
          "type": "address"
        }
      ],
      "name": "balanceOf",
      "outputs": [
        {
          "internalType": "uint256",
          "name": "",
          "type": "uint256"
        }
      ],
      "stateMutability": "view",
      "type": "function"
    },
    {
      "inputs": [
        {
          "internalType": "uint256",
          "name": "tokenId",
          "type": "uint256"
        }
      ],
      "name": "burn",
      "outputs": [],
      "stateMutability": "nonpayable",
      "type": "function"
    },
    {
      "inputs": [],
      "name": "calculateMintPrice",
      "outputs": [
        {
          "internalType": "uint256",
          "name": "",
          "type": "uint256"
        }
      ],
      "stateMutability": "view",
      "type": "function"
    },
    {
      "inputs": [],
      "name": "currentGeneration",
      "outputs": [
        {
          "internalType": "uint256",
          "name": "",
          "type": "uint256"
        }
      ],
      "stateMutability": "view",
      "type": "function"
    },
    {
      "inputs": [],
      "name": "entityForgingContract",
      "outputs": [
        {
          "internalType": "contract IEntityForging",
          "name": "",
          "type": "address"
        }
      ],
      "stateMutability": "view",
      "type": "function"
    },
    {
      "inputs": [],
      "name": "entropyGenerator",
      "outputs": [
        {
          "internalType": "contract IEntropyGenerator",
          "name": "",
          "type": "address"
        }
      ],
      "stateMutability": "view",
      "type": "function"
    },
    {
      "inputs": [
        {
          "internalType": "address",
          "name": "newOwner",
          "type": "address"
        },
        {
          "internalType": "uint256",
          "name": "parent1Id",
          "type": "uint256"
        },
        {
          "internalType": "uint256",
          "name": "parent2Id",
          "type": "uint256"
        },
        {
          "internalType": "string",
          "name": "",
          "type": "string"
        }
      ],
      "name": "forge",
      "outputs": [
        {
          "internalType": "uint256",
          "name": "",
          "type": "uint256"
        }
      ],
      "stateMutability": "nonpayable",
      "type": "function"
    },
    {
      "inputs": [
        {
          "internalType": "uint256",
          "name": "",
          "type": "uint256"
        }
      ],
      "name": "generationMintCounts",
      "outputs": [
        {
          "internalType": "uint256",
          "name": "",
          "type": "uint256"
        }
      ],
      "stateMutability": "view",
      "type": "function"
    },
    {
      "inputs": [
        {
          "internalType": "uint256",
          "name": "tokenId",
          "type": "uint256"
        }
      ],
      "name": "getApproved",
      "outputs": [
        {
          "internalType": "address",
          "name": "",
          "type": "address"
        }
      ],
      "stateMutability": "view",
      "type": "function"
    },
    {
      "inputs": [
        {
          "internalType": "uint256",
          "name": "forgerTokenId",
          "type": "uint256"
        },
        {
          "internalType": "uint256",
          "name": "mergerTokenId",
          "type": "uint256"
        }
      ],
      "name": "getEntropiesForTokens",
      "outputs": [
        {
          "internalType": "uint256",
          "name": "forgerEntropy",
          "type": "uint256"
        },
        {
          "internalType": "uint256",
          "name": "mergerEntropy",
          "type": "uint256"
        }
      ],
      "stateMutability": "view",
      "type": "function"
    },
    {
      "inputs": [],
      "name": "getGeneration",
      "outputs": [
        {
          "internalType": "uint256",
          "name": "",
          "type": "uint256"
        }
      ],
      "stateMutability": "view",
      "type": "function"
    },
    {
      "inputs": [
        {
          "internalType": "uint256",
          "name": "tokenId",
          "type": "uint256"
        }
      ],
      "name": "getTokenAge",
      "outputs": [
        {
          "internalType": "uint256",
          "name": "",
          "type": "uint256"
        }
      ],
      "stateMutability": "view",
      "type": "function"
    },
    {
      "inputs": [
        {
          "internalType": "uint256",
          "name": "tokenId",
          "type": "uint256"
        }
      ],
      "name": "getTokenCreationTimestamp",
      "outputs": [
        {
          "internalType": "uint256",
          "name": "",
          "type": "uint256"
        }
      ],
      "stateMutability": "view",
      "type": "function"
    },
    {
      "inputs": [
        {
          "internalType": "uint256",
          "name": "tokenId",
          "type": "uint256"
        }
      ],
      "name": "getTokenEntropy",
      "outputs": [
        {
          "internalType": "uint256",
          "name": "",
          "type": "uint256"
        }
      ],
      "stateMutability": "view",
      "type": "function"
    },
    {
      "inputs": [
        {
          "internalType": "uint256",
          "name": "tokenId",
          "type": "uint256"
        }
      ],
      "name": "getTokenGeneration",
      "outputs": [
        {
          "internalType": "uint256",
          "name": "",
          "type": "uint256"
        }
      ],
      "stateMutability": "view",
      "type": "function"
    },
    {
      "inputs": [
        {
          "internalType": "uint256",
          "name": "",
          "type": "uint256"
        }
      ],
      "name": "initialOwners",
      "outputs": [
        {
          "internalType": "address",
          "name": "",
          "type": "address"
        }
      ],
      "stateMutability": "view",
      "type": "function"
    },
    {
      "inputs": [
        {
          "internalType": "address",
          "name": "owner",
          "type": "address"
        },
        {
          "internalType": "address",
          "name": "operator",
          "type": "address"
        }
      ],
      "name": "isApprovedForAll",
      "outputs": [
        {
          "internalType": "bool",
          "name": "",
          "type": "bool"
        }
      ],
      "stateMutability": "view",
      "type": "function"
    },
    {
      "inputs": [
        {
          "internalType": "address",
          "name": "spender",
          "type": "address"
        },
        {
          "internalType": "uint256",
          "name": "tokenId",
          "type": "uint256"
        }
      ],
      "name": "isApprovedOrOwner",
      "outputs": [
        {
          "internalType": "bool",
          "name": "",
          "type": "bool"
        }
      ],
      "stateMutability": "view",
      "type": "function"
    },
    {
      "inputs": [
        {
          "internalType": "uint256",
          "name": "tokenId",
          "type": "uint256"
        }
      ],
      "name": "isForger",
      "outputs": [
        {
          "internalType": "bool",
          "name": "",
          "type": "bool"
        }
      ],
      "stateMutability": "view",
      "type": "function"
    },
    {
      "inputs": [],
      "name": "maxGeneration",
      "outputs": [
        {
          "internalType": "uint256",
          "name": "",
          "type": "uint256"
        }
      ],
      "stateMutability": "view",
      "type": "function"
    },
    {
      "inputs": [],
      "name": "maxTokensPerGen",
      "outputs": [
        {
          "internalType": "uint256",
          "name": "",
          "type": "uint256"
        }
      ],
      "stateMutability": "view",
      "type": "function"
    },
    {
      "inputs": [],
      "name": "mintToken",
      "outputs": [],
      "stateMutability": "payable",
      "type": "function"
    },
    {
      "inputs": [],
      "name": "mintWithBudget",
      "outputs": [],
      "stateMutability": "payable",
      "type": "function"
    },
    {
      "inputs": [],
      "name": "name",
      "outputs": [
        {
          "internalType": "string",
          "name": "",
          "type": "string"
        }
      ],
      "stateMutability": "view",
      "type": "function"
    },
    {
      "inputs": [],
      "name": "nukeFundAddress",
      "outputs": [
        {
          "internalType": "address",
          "name": "",
          "type": "address"
        }
      ],
      "stateMutability": "view",
      "type": "function"
    },
    {
      "inputs": [],
      "name": "owner",
      "outputs": [
        {
          "internalType": "address",
          "name": "",
          "type": "address"
        }
      ],
      "stateMutability": "view",
      "type": "function"
    },
    {
      "inputs": [
        {
          "internalType": "uint256",
          "name": "tokenId",
          "type": "uint256"
        }
      ],
      "name": "ownerOf",
      "outputs": [
        {
          "internalType": "address",
          "name": "",
          "type": "address"
        }
      ],
      "stateMutability": "view",
      "type": "function"
    },
    {
      "inputs": [],
      "name": "paused",
      "outputs": [
        {
          "internalType": "bool",
          "name": "",
          "type": "bool"
        }
      ],
      "stateMutability": "view",
      "type": "function"
    },
    {
      "inputs": [],
      "name": "priceIncrement",
      "outputs": [
        {
          "internalType": "uint256",
          "name": "",
          "type": "uint256"
        }
      ],
      "stateMutability": "view",
      "type": "function"
    },
    {
      "inputs": [],
      "name": "renounceOwnership",
      "outputs": [],
      "stateMutability": "nonpayable",
      "type": "function"
    },
    {
      "inputs": [
        {
          "internalType": "address",
          "name": "from",
          "type": "address"
        },
        {
          "internalType": "address",
          "name": "to",
          "type": "address"
        },
        {
          "internalType": "uint256",
          "name": "tokenId",
          "type": "uint256"
        }
      ],
      "name": "safeTransferFrom",
      "outputs": [],
      "stateMutability": "nonpayable",
      "type": "function"
    },
    {
      "inputs": [
        {
          "internalType": "address",
          "name": "from",
          "type": "address"
        },
        {
          "internalType": "address",
          "name": "to",
          "type": "address"
        },
        {
          "internalType": "uint256",
          "name": "tokenId",
          "type": "uint256"
        },
        {
          "internalType": "bytes",
          "name": "data",
          "type": "bytes"
        }
      ],
      "name": "safeTransferFrom",
      "outputs": [],
      "stateMutability": "nonpayable",
      "type": "function"
    },
    {
      "inputs": [
        {
          "internalType": "address",
          "name": "_airdrop",
          "type": "address"
        }
      ],
      "name": "setAirdropContract",
      "outputs": [],
      "stateMutability": "nonpayable",
      "type": "function"
    },
    {
      "inputs": [
        {
          "internalType": "address",
          "name": "operator",
          "type": "address"
        },
        {
          "internalType": "bool",
          "name": "approved",
          "type": "bool"
        }
      ],
      "name": "setApprovalForAll",
      "outputs": [],
      "stateMutability": "nonpayable",
      "type": "function"
    },
    {
      "inputs": [
        {
          "internalType": "address",
          "name": "_entityForgingAddress",
          "type": "address"
        }
      ],
      "name": "setEntityForgingContract",
      "outputs": [],
      "stateMutability": "nonpayable",
      "type": "function"
    },
    {
      "inputs": [
        {
          "internalType": "address",
          "name": "_entropyGeneratorAddress",
          "type": "address"
        }
      ],
      "name": "setEntropyGenerator",
      "outputs": [],
      "stateMutability": "nonpayable",
      "type": "function"
    },
    {
      "inputs": [
        {
          "internalType": "uint256",
          "name": "maxGeneration_",
          "type": "uint256"
        }
      ],
      "name": "setMaxGeneration",
      "outputs": [],
      "stateMutability": "nonpayable",
      "type": "function"
    },
    {
      "inputs": [
        {
          "internalType": "address payable",
          "name": "_nukeFundAddress",
          "type": "address"
        }
      ],
      "name": "setNukeFundContract",
      "outputs": [],
      "stateMutability": "nonpayable",
      "type": "function"
    },
    {
      "inputs": [
        {
          "internalType": "uint256",
          "name": "_priceIncrement",
          "type": "uint256"
        }
      ],
      "name": "setPriceIncrement",
      "outputs": [],
      "stateMutability": "nonpayable",
      "type": "function"
    },
    {
      "inputs": [
        {
          "internalType": "uint256",
          "name": "_startPrice",
          "type": "uint256"
        }
      ],
      "name": "setStartPrice",
      "outputs": [],
      "stateMutability": "nonpayable",
      "type": "function"
    },
    {
      "inputs": [
        {
          "internalType": "uint256",
          "name": "amount",
          "type": "uint256"
        }
      ],
      "name": "startAirdrop",
      "outputs": [],
      "stateMutability": "nonpayable",
      "type": "function"
    },
    {
      "inputs": [],
      "name": "startPrice",
      "outputs": [
        {
          "internalType": "uint256",
          "name": "",
          "type": "uint256"
        }
      ],
      "stateMutability": "view",
      "type": "function"
    },
    {
      "inputs": [
        {
          "internalType": "bytes4",
          "name": "interfaceId",
          "type": "bytes4"
        }
      ],
      "name": "supportsInterface",
      "outputs": [
        {
          "internalType": "bool",
          "name": "",
          "type": "bool"
        }
      ],
      "stateMutability": "view",
      "type": "function"
    },
    {
      "inputs": [],
      "name": "symbol",
      "outputs": [
        {
          "internalType": "string",
          "name": "",
          "type": "string"
        }
      ],
      "stateMutability": "view",
      "type": "function"
    },
    {
      "inputs": [
        {
          "internalType": "uint256",
          "name": "index",
          "type": "uint256"
        }
      ],
      "name": "tokenByIndex",
      "outputs": [
        {
          "internalType": "uint256",
          "name": "",
          "type": "uint256"
        }
      ],
      "stateMutability": "view",
      "type": "function"
    },
    {
      "inputs": [
        {
          "internalType": "uint256",
          "name": "",
          "type": "uint256"
        }
      ],
      "name": "tokenCreationTimestamps",
      "outputs": [
        {
          "internalType": "uint256",
          "name": "",
          "type": "uint256"
        }
      ],
      "stateMutability": "view",
      "type": "function"
    },
    {
      "inputs": [
        {
          "internalType": "uint256",
          "name": "",
          "type": "uint256"
        }
      ],
      "name": "tokenEntropy",
      "outputs": [
        {
          "internalType": "uint256",
          "name": "",
          "type": "uint256"
        }
      ],
      "stateMutability": "view",
      "type": "function"
    },
    {
      "inputs": [
        {
          "internalType": "uint256",
          "name": "",
          "type": "uint256"
        }
      ],
      "name": "tokenGenerations",
      "outputs": [
        {
          "internalType": "uint256",
          "name": "",
          "type": "uint256"
        }
      ],
      "stateMutability": "view",
      "type": "function"
    },
    {
      "inputs": [
        {
          "internalType": "address",
          "name": "owner",
          "type": "address"
        },
        {
          "internalType": "uint256",
          "name": "index",
          "type": "uint256"
        }
      ],
      "name": "tokenOfOwnerByIndex",
      "outputs": [
        {
          "internalType": "uint256",
          "name": "",
          "type": "uint256"
        }
      ],
      "stateMutability": "view",
      "type": "function"
    },
    {
      "inputs": [
        {
          "internalType": "uint256",
          "name": "tokenId",
          "type": "uint256"
        }
      ],
      "name": "tokenURI",
      "outputs": [
        {
          "internalType": "string",
          "name": "",
          "type": "string"
        }
      ],
      "stateMutability": "view",
      "type": "function"
    },
    {
      "inputs": [],
      "name": "totalSupply",
      "outputs": [
        {
          "internalType": "uint256",
          "name": "",
          "type": "uint256"
        }
      ],
      "stateMutability": "view",
      "type": "function"
    },
    {
      "inputs": [
        {
          "internalType": "address",
          "name": "from",
          "type": "address"
        },
        {
          "internalType": "address",
          "name": "to",
          "type": "address"
        },
        {
          "internalType": "uint256",
          "name": "tokenId",
          "type": "uint256"
        }
      ],
      "name": "transferFrom",
      "outputs": [],
      "stateMutability": "nonpayable",
      "type": "function"
    },
    {
      "inputs": [
        {
          "internalType": "address",
          "name": "newOwner",
          "type": "address"
        }
      ],
      "name": "transferOwnership",
      "outputs": [],
      "stateMutability": "nonpayable",
      "type": "function"
    }
  ],
  "bytecode": "0x6080604052612710600c55662386f26fc10000600d55662386f26fc10000600e556001601355600a6014553480156200003757600080fd5b506040518060400160405280600d81526020016c151c985a5d119bdc99d953999d609a1b81525060405180604001604052806006815260200165151191d3919560d21b81525081600090816200008e9190620001ba565b5060016200009d8282620001ba565b50506001600a5550620000b033620000c3565b600b805460ff60a01b1916905562000286565b600b80546001600160a01b038381166001600160a01b0319831681179093556040519116919082907f8be0079c531659141344cd1fd0a4f28419497f9722a3daafe3b4186f6b6457e090600090a35050565b634e487b7160e01b600052604160045260246000fd5b600181811c908216806200014057607f821691505b6020821081036200016157634e487b7160e01b600052602260045260246000fd5b50919050565b601f821115620001b557600081815260208120601f850160051c81016020861015620001905750805b601f850160051c820191505b81811015620001b1578281556001016200019c565b5050505b505050565b81516001600160401b03811115620001d657620001d662000115565b620001ee81620001e784546200012b565b8462000167565b602080601f8311600181146200022657600084156200020d5750858301515b600019600386901b1c1916600185901b178555620001b1565b600085815260208120601f198616915b82811015620002575788860151825594840194600190910190840162000236565b5085821015620002765787850151600019600388901b60f8161c191681555b5050505050600190811b01905550565b6132a680620002966000396000f3fe6080604052600436106103505760003560e01c806370a08231116101c6578063b88d4fde116100f7578063d473843611610095578063f1a9af891161006f578063f1a9af8914610a01578063f2fde38b14610a17578063f503970a14610a37578063f9541a7014610a4d57600080fd5b8063d473843614610982578063e985e9c514610998578063ee9151ae146109e157600080fd5b8063c87b56dd116100d1578063c87b56dd146108e0578063c9e01a9114610900578063ce4a88bd14610935578063d31f0eb91461096257600080fd5b8063b88d4fde14610880578063beae207f146108a0578063c472f9d9146108c057600080fd5b806395d89b4111610164578063a22cb4651161013e578063a22cb46514610800578063ab2be72614610820578063acb4a00914610840578063b30fec301461086057600080fd5b806395d89b4114610791578063978ca856146107a65780639da465f2146107d357600080fd5b80637e6405c1116101a05780637e6405c1146107105780638da5cb5b146107305780638ddb428a1461074e57806391785e6d1461076457600080fd5b806370a08231146106bb578063715018a6146106db5780637d419490146106f057600080fd5b806342842e0e116102a05780634f93d5c01161023e5780636352211e116102185780636352211e1461063057806364d1902514610650578063694db4e3146106865780636f0115381461069b57600080fd5b80634f93d5c0146105dc5780635c975abb146105f1578063614f36721461061057600080fd5b8063431a3f9d1161027a578063431a3f9d1461055c578063456173c51461057c5780634905269c1461059c5780634f6ccce7146105bc57600080fd5b806342842e0e146104fc57806342966c681461051c578063430c20811461053c57600080fd5b806316ad45d51161030d5780632004ffd9116102e75780632004ffd91461049e57806323b872dd146104a6578063280d62ac146104c65780632f745c59146104dc57600080fd5b806316ad45d51461043c57806317d861541461046957806318160ddd1461048957600080fd5b806301ffc9a71461035557806306b6c00b1461038a57806306fdde03146103b8578063081812fc146103da578063095ea7b314610412578063134ad5bf14610434575b600080fd5b34801561036157600080fd5b50610375610370366004612c54565b610a6d565b60405190151581526020015b60405180910390f35b34801561039657600080fd5b506103aa6103a5366004612c71565b610a98565b604051908152602001610381565b3480156103c457600080fd5b506103cd610ae6565b6040516103819190612cda565b3480156103e657600080fd5b506103fa6103f5366004612c71565b610b78565b6040516001600160a01b039091168152602001610381565b34801561041e57600080fd5b5061043261042d366004612d02565b610b9f565b005b610432610cb4565b34801561044857600080fd5b506103aa610457366004612c71565b60166020526000908152604090205481565b34801561047557600080fd5b50610432610484366004612c71565b610dbf565b34801561049557600080fd5b506008546103aa565b610432610dcc565b3480156104b257600080fd5b506104326104c1366004612d2e565b610f05565b3480156104d257600080fd5b506103aa600e5481565b3480156104e857600080fd5b506103aa6104f7366004612d02565b610f36565b34801561050857600080fd5b50610432610517366004612d2e565b610fcc565b34801561052857600080fd5b50610432610537366004612c71565b610fe7565b34801561054857600080fd5b50610375610557366004612d02565b611132565b34801561056857600080fd5b506103aa610577366004612c71565b611145565b34801561058857600080fd5b50610432610597366004612c71565b61118a565b3480156105a857600080fd5b506104326105b7366004612c71565b6111f5565b3480156105c857600080fd5b506103aa6105d7366004612c71565b611202565b3480156105e857600080fd5b506103aa611295565b3480156105fd57600080fd5b50600b54600160a01b900460ff16610375565b34801561061c57600080fd5b506010546103fa906001600160a01b031681565b34801561063c57600080fd5b506103fa61064b366004612c71565b6112d1565b34801561065c57600080fd5b506103fa61066b366004612c71565b6019602052600090815260409020546001600160a01b031681565b34801561069257600080fd5b506013546103aa565b3480156106a757600080fd5b506104326106b6366004612d6f565b611331565b3480156106c757600080fd5b506103aa6106d6366004612d6f565b61135b565b3480156106e757600080fd5b506104326113e1565b3480156106fc57600080fd5b5061043261070b366004612d6f565b6113f3565b34801561071c57600080fd5b506103aa61072b366004612e18565b61141d565b34801561073c57600080fd5b50600b546001600160a01b03166103fa565b34801561075a57600080fd5b506103aa60135481565b34801561077057600080fd5b506103aa61077f366004612c71565b60009081526018602052604090205490565b34801561079d57600080fd5b506103cd61157c565b3480156107b257600080fd5b506103aa6107c1366004612c71565b60176020526000908152604090205481565b3480156107df57600080fd5b506103aa6107ee366004612c71565b60156020526000908152604090205481565b34801561080c57600080fd5b5061043261081b366004612e9d565b61158b565b34801561082c57600080fd5b506011546103fa906001600160a01b031681565b34801561084c57600080fd5b50600f546103fa906001600160a01b031681565b34801561086c57600080fd5b506103aa61087b366004612c71565b61159a565b34801561088c57600080fd5b5061043261089b366004612ed6565b6115e5565b3480156108ac57600080fd5b506104326108bb366004612c71565b61161d565b3480156108cc57600080fd5b506104326108db366004612d6f565b61168e565b3480156108ec57600080fd5b506103cd6108fb366004612c71565b6116ea565b34801561090c57600080fd5b5061092061091b366004612f2a565b61175d565b60408051928352602083019190915201610381565b34801561094157600080fd5b506103aa610950366004612c71565b60186020526000908152604090205481565b34801561096e57600080fd5b5061037561097d366004612c71565b61177d565b34801561098e57600080fd5b506103aa600c5481565b3480156109a457600080fd5b506103756109b3366004612f4c565b6001600160a01b03918216600090815260056020908152604080832093909416825291909152205460ff1690565b3480156109ed57600080fd5b506012546103fa906001600160a01b031681565b348015610a0d57600080fd5b506103aa600d5481565b348015610a2357600080fd5b50610432610a32366004612d6f565b6117a1565b348015610a4357600080fd5b506103aa60145481565b348015610a5957600080fd5b50610432610a68366004612d6f565b611817565b60006001600160e01b0319821663780e9d6360e01b1480610a925750610a9282611841565b92915050565b600080610aa4836112d1565b6001600160a01b031603610ad35760405162461bcd60e51b8152600401610aca90612f7a565b60405180910390fd5b5060009081526016602052604090205490565b606060008054610af590612fbd565b80601f0160208091040260200160405190810160405280929190818152602001828054610b2190612fbd565b8015610b6e5780601f10610b4357610100808354040283529160200191610b6e565b820191906000526020600020905b815481529060010190602001808311610b5157829003601f168201915b5050505050905090565b6000610b8382611891565b506000908152600460205260409020546001600160a01b031690565b6000610baa826112d1565b9050806001600160a01b0316836001600160a01b031603610c175760405162461bcd60e51b815260206004820152602160248201527f4552433732313a20617070726f76616c20746f2063757272656e74206f776e656044820152603960f91b6064820152608401610aca565b336001600160a01b0382161480610c335750610c3381336109b3565b610ca55760405162461bcd60e51b815260206004820152603d60248201527f4552433732313a20617070726f76652063616c6c6572206973206e6f7420746f60448201527f6b656e206f776e6572206f7220617070726f76656420666f7220616c6c0000006064820152608401610aca565b610caf83836118f0565b505050565b610cbc61195e565b610cc46119ab565b6000610cce611295565b90506000345b828110158015610ce75750600c54601a54105b15610d1f57610cf63384611a04565b81610d008161300d565b9250610d0e90508382613026565b9050610d18611295565b9250610cd4565b8015610db057604051600090339083908381818185875af1925050503d8060008114610d67576040519150601f19603f3d011682016040523d82523d6000602084013e610d6c565b606091505b5050905080610dae5760405162461bcd60e51b815260206004820152600e60248201526d2932b33ab732103330b4b632b21760911b6044820152606401610aca565b505b505050610dbd6001600a55565b565b610dc7611c38565b600d55565b610dd461195e565b610ddc6119ab565b6000610de6611295565b905080341015610e435760405162461bcd60e51b815260206004820152602260248201527f496e73756666696369656e74204554482073656e6420666f72206d696e74696e604482015261339760f11b6064820152608401610aca565b610e4d3382611a04565b6000610e598234613026565b90508015610ef957604051600090339083908381818185875af1925050503d8060008114610ea3576040519150601f19603f3d011682016040523d82523d6000602084013e610ea8565b606091505b5050905080610db05760405162461bcd60e51b815260206004820181905260248201527f526566756e64206f6620657863657373207061796d656e74206661696c65642e6044820152606401610aca565b5050610dbd6001600a55565b610f0f3382611c92565b610f2b5760405162461bcd60e51b8152600401610aca90613039565b610caf838383611d10565b6000610f418361135b565b8210610fa35760405162461bcd60e51b815260206004820152602b60248201527f455243373231456e756d657261626c653a206f776e657220696e646578206f7560448201526a74206f6620626f756e647360a81b6064820152608401610aca565b506001600160a01b03919091166000908152600660209081526040808320938352929052205490565b610caf838383604051806020016040528060008152506115e5565b610fef61195e565b610ff76119ab565b6110013382611132565b61101d5760405162461bcd60e51b8152600401610aca90613039565b601160009054906101000a90046001600160a01b03166001600160a01b031663143c2a316040518163ffffffff1660e01b8152600401602060405180830381865afa158015611070573d6000803e3d6000fd5b505050506040513d601f19601f820116820180604052508101906110949190613086565b61111c5760006110a382610a98565b601154600084815260196020526040908190205490516361b512a760e01b81526001600160a01b0391821660048201526024810184905292935016906361b512a790604401600060405180830381600087803b15801561110257600080fd5b505af1158015611116573d6000803e3d6000fd5b50505050505b61112581611e81565b61112f6001600a55565b50565b600061113e8383611c92565b9392505050565b600080611151836112d1565b6001600160a01b0316036111775760405162461bcd60e51b8152600401610aca90612f7a565b5060009081526015602052604090205490565b611192611c38565b6013548110156111f05760405162461bcd60e51b815260206004820152602360248201527f63616e27742062656c6f77207468616e2063757272656e742067656e6572617460448201526234b7b760e91b6064820152608401610aca565b601455565b6111fd611c38565b600e55565b600061120d60085490565b82106112705760405162461bcd60e51b815260206004820152602c60248201527f455243373231456e756d657261626c653a20676c6f62616c20696e646578206f60448201526b7574206f6620626f756e647360a01b6064820152608401610aca565b60088281548110611283576112836130a3565b90600052602060002001549050919050565b601354600090815260176020526040812054600e5482906112b79083906130b9565b9050600081600d546112c991906130d0565b949350505050565b6000818152600260205260408120546001600160a01b031680610a925760405162461bcd60e51b8152602060048201526018602482015277115490cdcc8c4e881a5b9d985b1a59081d1bdad95b88125160421b6044820152606401610aca565b611339611c38565b601180546001600160a01b0319166001600160a01b0392909216919091179055565b60006001600160a01b0382166113c55760405162461bcd60e51b815260206004820152602960248201527f4552433732313a2061646472657373207a65726f206973206e6f7420612076616044820152683634b21037bbb732b960b91b6064820152608401610aca565b506001600160a01b031660009081526003602052604090205490565b6113e9611c38565b610dbd6000611f24565b6113fb611c38565b600f80546001600160a01b0319166001600160a01b0392909216919091179055565b600061142761195e565b61142f6119ab565b600f546001600160a01b0316331461147f5760405162461bcd60e51b81526020600482015260136024820152723ab730baba3437b934bd32b21031b0b63632b960691b6044820152606401610aca565b6000848152601860205260408120546114999060016130d0565b90506014548111156114ed5760405162461bcd60e51b815260206004820152601c60248201527f63616e2774206265206f766572206d61782067656e65726174696f6e000000006044820152606401610aca565b6000806114fa878761175d565b90925090506000600261150d83856130d0565b61151791906130f9565b905060006115268a8387611f76565b604080518b8152602081018b905290810184905290915081907fae378ea103c179e937504fbbb482687c3ba8c94e0e94bab0b7665c122e28408f9060600160405180910390a29450505050506112c96001600a55565b606060018054610af590612fbd565b6115963383836121c1565b5050565b6000806115a6836112d1565b6001600160a01b0316036115cc5760405162461bcd60e51b8152600401610aca90612f7a565b600082815260156020526040902054610a929042613026565b6115ef3383611c92565b61160b5760405162461bcd60e51b8152600401610aca90613039565b6116178484848461228f565b50505050565b61162561195e565b61162d611c38565b60115460405163beae207f60e01b8152600481018390526001600160a01b039091169063beae207f90602401600060405180830381600087803b15801561167357600080fd5b505af1158015611687573d6000803e3d6000fd5b5050505050565b611696611c38565b601280546001600160a01b0319166001600160a01b0383169081179091556040519081527f1114ada982fd54a278faff6e22bdab70f68751ea047f4c3c6bea8163a4a719599060200160405180910390a150565b60606116f582611891565b600061170c60408051602081019091526000815290565b9050600081511161172c576040518060200160405280600081525061113e565b80611736846122c2565b60405160200161174792919061310d565b6040516020818303038152906040529392505050565b60008061176984610a98565b915061177483610a98565b90509250929050565b6000818152601660205260408120548161179860038361313c565b15949350505050565b6117a9611c38565b6001600160a01b03811661180e5760405162461bcd60e51b815260206004820152602660248201527f4f776e61626c653a206e6577206f776e657220697320746865207a65726f206160448201526564647265737360d01b6064820152608401610aca565b61112f81611f24565b61181f611c38565b601080546001600160a01b0319166001600160a01b0392909216919091179055565b60006001600160e01b031982166380ac58cd60e01b148061187257506001600160e01b03198216635b5e139f60e01b145b80610a9257506301ffc9a760e01b6001600160e01b0319831614610a92565b6000818152600260205260409020546001600160a01b031661112f5760405162461bcd60e51b8152602060048201526018602482015277115490cdcc8c4e881a5b9d985b1a59081d1bdad95b88125160421b6044820152606401610aca565b600081815260046020526040902080546001600160a01b0319166001600160a01b0384169081179091558190611925826112d1565b6001600160a01b03167f8c5be1e5ebec7d5bd14f71427d1e84f3dd0314c0f7b2291e5b200ac8c7c3b92560405160405180910390a45050565b600b54600160a01b900460ff1615610dbd5760405162461bcd60e51b815260206004820152601060248201526f14185d5cd8589b194e881c185d5cd95960821b6044820152606401610aca565b6002600a54036119fd5760405162461bcd60e51b815260206004820152601f60248201527f5265656e7472616e637947756172643a207265656e7472616e742063616c6c006044820152606401610aca565b6002600a55565b600c5460135460009081526017602052604090205410611a2657611a26612355565b601a805460009182611a378361300d565b919050559050611a478382612476565b60105460408051638f1ad44160e01b815290516000926001600160a01b031691638f1ad441916004808301926020929190829003018187875af1158015611a92573d6000803e3d6000fd5b505050506040513d601f19601f82011682018060405250810190611ab69190613150565b60008381526015602090815260408083204290556016825280832084905560135460188352818420819055835260179091528120805492935090611af98361300d565b909155505060008281526019602090815260409182902080546001600160a01b0319166001600160a01b0388811691909117909155601154835163143c2a3160e01b8152935191169263143c2a319260048083019391928290030181865afa158015611b69573d6000803e3d6000fd5b505050506040513d601f19601f82011682018060405250810190611b8d9190613086565b611bf857601154604051635c13e80160e11b81526001600160a01b038681166004830152602482018490529091169063b827d00290604401600060405180830381600087803b158015611bdf57600080fd5b505af1158015611bf3573d6000803e3d6000fd5b505050505b604051818152829033907f25b428dfde728ccfaddad7e29e4ac23c24ed7fd1a6e3e3f91894a9a073f5dfff9060200160405180910390a36116178361260f565b600b546001600160a01b03163314610dbd5760405162461bcd60e51b815260206004820181905260248201527f4f776e61626c653a2063616c6c6572206973206e6f7420746865206f776e65726044820152606401610aca565b600080611c9e836112d1565b9050806001600160a01b0316846001600160a01b03161480611ce557506001600160a01b0380821660009081526005602090815260408083209388168352929052205460ff165b806112c95750836001600160a01b0316611cfe84610b78565b6001600160a01b031614949350505050565b826001600160a01b0316611d23826112d1565b6001600160a01b031614611d495760405162461bcd60e51b8152600401610aca90613169565b6001600160a01b038216611dab5760405162461bcd60e51b8152602060048201526024808201527f4552433732313a207472616e7366657220746f20746865207a65726f206164646044820152637265737360e01b6064820152608401610aca565b611db88383836001612731565b826001600160a01b0316611dcb826112d1565b6001600160a01b031614611df15760405162461bcd60e51b8152600401610aca90613169565b600081815260046020908152604080832080546001600160a01b03199081169091556001600160a01b0387811680865260038552838620805460001901905590871680865283862080546001019055868652600290945282852080549092168417909155905184937fddf252ad1be2c89b69c2b068fc378daa952ba7f163c4a11628f55a4df523b3ef91a4505050565b6000611e8c826112d1565b9050611e9c816000846001612731565b611ea5826112d1565b600083815260046020908152604080832080546001600160a01b03199081169091556001600160a01b0385168085526003845282852080546000190190558785526002909352818420805490911690555192935084927fddf252ad1be2c89b69c2b068fc378daa952ba7f163c4a11628f55a4df523b3ef908390a45050565b600b80546001600160a01b038381166001600160a01b0319831681179093556040519116919082907f8be0079c531659141344cd1fd0a4f28419497f9722a3daafe3b4186f6b6457e090600090a35050565b600c54600082815260176020526040812054909111611fd75760405162461bcd60e51b815260206004820152601760248201527f45786365656473206d6178546f6b656e7350657247656e0000000000000000006044820152606401610aca565b601a805460009182611fe88361300d565b919050559050611ff88582612476565b6000818152601660209081526040808320879055601882528083208690558583526017909152812080549161202c8361300d565b9091555050600081815260196020908152604080832080546001600160a01b0319166001600160a01b038a16179055600c5486845260179092529091205410801590612079575060135483145b1561208657612086612355565b601160009054906101000a90046001600160a01b03166001600160a01b031663143c2a316040518163ffffffff1660e01b8152600401602060405180830381865afa1580156120d9573d6000803e3d6000fd5b505050506040513d601f19601f820116820180604052508101906120fd9190613086565b61216857601154604051635c13e80160e11b81526001600160a01b038781166004830152602482018790529091169063b827d00290604401600060405180830381600087803b15801561214f57600080fd5b505af1158015612163573d6000803e3d6000fd5b505050505b604080516001600160a01b038716815260208101839052908101859052606081018490527febb566b3f6e54c0bd62fed4bdba1b047d20927741852161e61156b75e678f78e9060800160405180910390a1949350505050565b816001600160a01b0316836001600160a01b0316036122225760405162461bcd60e51b815260206004820152601960248201527f4552433732313a20617070726f766520746f2063616c6c6572000000000000006044820152606401610aca565b6001600160a01b03838116600081815260056020908152604080832094871680845294825291829020805460ff191686151590811790915591519182527f17307eab39ab6107e8899845ad3d59bd9653f200f220920489ca2b5937696c31910160405180910390a3505050565b61229a848484611d10565b6122a6848484846127ab565b6116175760405162461bcd60e51b8152600401610aca906131ae565b606060006122cf836128a9565b600101905060008167ffffffffffffffff8111156122ef576122ef612d8c565b6040519080825280601f01601f191660200182016040528015612319576020820181803683370190505b5090508181016020015b600019016f181899199a1a9b1b9c1cb0b131b232b360811b600a86061a8153600a850494508461232357509392505050565b600c5460135460009081526017602052604090205410156123b85760405162461bcd60e51b815260206004820181905260248201527f47656e65726174696f6e206c696d6974206e6f742079657420726561636865646044820152606401610aca565b601380549060006123c88361300d565b909155505060135460009081526017602052604080822082905560105481516320917abb60e21b815291516001600160a01b0390911692638245eaec926004808201939182900301818387803b15801561242157600080fd5b505af1158015612435573d6000803e3d6000fd5b505050507ffa7df6876fbcf0666000276873af058033b0923064c1489e1b98f59eb8253db360135460405161246c91815260200190565b60405180910390a1565b6001600160a01b0382166124cc5760405162461bcd60e51b815260206004820181905260248201527f4552433732313a206d696e7420746f20746865207a65726f20616464726573736044820152606401610aca565b6000818152600260205260409020546001600160a01b0316156125315760405162461bcd60e51b815260206004820152601c60248201527f4552433732313a20746f6b656e20616c7265616479206d696e746564000000006044820152606401610aca565b61253f600083836001612731565b6000818152600260205260409020546001600160a01b0316156125a45760405162461bcd60e51b815260206004820152601c60248201527f4552433732313a20746f6b656e20616c7265616479206d696e746564000000006044820152606401610aca565b6001600160a01b038216600081815260036020908152604080832080546001019055848352600290915280822080546001600160a01b0319168417905551839291907fddf252ad1be2c89b69c2b068fc378daa952ba7f163c4a11628f55a4df523b3ef908290a45050565b804710156126565760405162461bcd60e51b8152602060048201526014602482015273496e73756666696369656e742062616c616e636560601b6044820152606401610aca565b6012546040516000916001600160a01b03169083908381818185875af1925050503d80600081146126a3576040519150601f19603f3d011682016040523d82523d6000602084013e6126a8565b606091505b50509050806126eb5760405162461bcd60e51b815260206004820152600f60248201526e115512081cd95b990819985a5b1959608a1b6044820152606401610aca565b6012546040518381526001600160a01b03909116907fdfe04cb744b4ee80624bdb008aa37bdbecda831c4e5aa3611d64ef017c5aa3339060200160405180910390a25050565b61273d84848484612981565b600b54600160a01b900460ff16156116175760405162461bcd60e51b815260206004820152602b60248201527f4552433732315061757361626c653a20746f6b656e207472616e73666572207760448201526a1a1a5b19481c185d5cd95960aa1b6064820152608401610aca565b60006001600160a01b0384163b156128a157604051630a85bd0160e11b81526001600160a01b0385169063150b7a02906127ef903390899088908890600401613200565b6020604051808303816000875af192505050801561282a575060408051601f3d908101601f191682019092526128279181019061323d565b60015b612887573d808015612858576040519150601f19603f3d011682016040523d82523d6000602084013e61285d565b606091505b50805160000361287f5760405162461bcd60e51b8152600401610aca906131ae565b805181602001fd5b6001600160e01b031916630a85bd0160e11b1490506112c9565b5060016112c9565b60008072184f03e93ff9f4daa797ed6e38ed64bf6a1f0160401b83106128e85772184f03e93ff9f4daa797ed6e38ed64bf6a1f0160401b830492506040015b6d04ee2d6d415b85acef81000000008310612914576d04ee2d6d415b85acef8100000000830492506020015b662386f26fc10000831061293257662386f26fc10000830492506010015b6305f5e100831061294a576305f5e100830492506008015b612710831061295e57612710830492506004015b60648310612970576064830492506002015b600a8310610a925760010192915050565b60018111156129f05760405162461bcd60e51b815260206004820152603560248201527f455243373231456e756d657261626c653a20636f6e7365637574697665207472604482015274185b9cd9995c9cc81b9bdd081cdd5c1c1bdc9d1959605a1b6064820152608401610aca565b816001600160a01b038516612a4c57612a4781600880546000838152600960205260408120829055600182018355919091527ff3f7a9fe364faab93b216da50a3214154f22a0a2b415b23a84c8169e8b636ee30155565b612a6f565b836001600160a01b0316856001600160a01b031614612a6f57612a6f8582612aae565b6001600160a01b038416612a8b57612a8681612b4b565b611687565b846001600160a01b0316846001600160a01b031614611687576116878482612bfa565b60006001612abb8461135b565b612ac59190613026565b600083815260076020526040902054909150808214612b18576001600160a01b03841660009081526006602090815260408083208584528252808320548484528184208190558352600790915290208190555b5060009182526007602090815260408084208490556001600160a01b039094168352600681528383209183525290812055565b600854600090612b5d90600190613026565b60008381526009602052604081205460088054939450909284908110612b8557612b856130a3565b906000526020600020015490508060088381548110612ba657612ba66130a3565b6000918252602080832090910192909255828152600990915260408082208490558582528120556008805480612bde57612bde61325a565b6001900381819060005260206000200160009055905550505050565b6000612c058361135b565b6001600160a01b039093166000908152600660209081526040808320868452825280832085905593825260079052919091209190915550565b6001600160e01b03198116811461112f57600080fd5b600060208284031215612c6657600080fd5b813561113e81612c3e565b600060208284031215612c8357600080fd5b5035919050565b60005b83811015612ca5578181015183820152602001612c8d565b50506000910152565b60008151808452612cc6816020860160208601612c8a565b601f01601f19169290920160200192915050565b60208152600061113e6020830184612cae565b6001600160a01b038116811461112f57600080fd5b60008060408385031215612d1557600080fd5b8235612d2081612ced565b946020939093013593505050565b600080600060608486031215612d4357600080fd5b8335612d4e81612ced565b92506020840135612d5e81612ced565b929592945050506040919091013590565b600060208284031215612d8157600080fd5b813561113e81612ced565b634e487b7160e01b600052604160045260246000fd5b600067ffffffffffffffff80841115612dbd57612dbd612d8c565b604051601f8501601f19908116603f01168101908282118183101715612de557612de5612d8c565b81604052809350858152868686011115612dfe57600080fd5b858560208301376000602087830101525050509392505050565b60008060008060808587031215612e2e57600080fd5b8435612e3981612ced565b93506020850135925060408501359150606085013567ffffffffffffffff811115612e6357600080fd5b8501601f81018713612e7457600080fd5b612e8387823560208401612da2565b91505092959194509250565b801515811461112f57600080fd5b60008060408385031215612eb057600080fd5b8235612ebb81612ced565b91506020830135612ecb81612e8f565b809150509250929050565b60008060008060808587031215612eec57600080fd5b8435612ef781612ced565b93506020850135612f0781612ced565b925060408501359150606085013567ffffffffffffffff811115612e6357600080fd5b60008060408385031215612f3d57600080fd5b50508035926020909101359150565b60008060408385031215612f5f57600080fd5b8235612f6a81612ced565b91506020830135612ecb81612ced565b60208082526023908201527f4552433732313a20717565727920666f72206e6f6e6578697374656e7420746f60408201526235b2b760e91b606082015260800190565b600181811c90821680612fd157607f821691505b602082108103612ff157634e487b7160e01b600052602260045260246000fd5b50919050565b634e487b7160e01b600052601160045260246000fd5b60006001820161301f5761301f612ff7565b5060010190565b81810381811115610a9257610a92612ff7565b6020808252602d908201527f4552433732313a2063616c6c6572206973206e6f7420746f6b656e206f776e6560408201526c1c881bdc88185c1c1c9bdd9959609a1b606082015260800190565b60006020828403121561309857600080fd5b815161113e81612e8f565b634e487b7160e01b600052603260045260246000fd5b8082028115828204841417610a9257610a92612ff7565b80820180821115610a9257610a92612ff7565b634e487b7160e01b600052601260045260246000fd5b600082613108576131086130e3565b500490565b6000835161311f818460208801612c8a565b835190830190613133818360208801612c8a565b01949350505050565b60008261314b5761314b6130e3565b500690565b60006020828403121561316257600080fd5b5051919050565b60208082526025908201527f4552433732313a207472616e736665722066726f6d20696e636f72726563742060408201526437bbb732b960d91b606082015260800190565b60208082526032908201527f4552433732313a207472616e7366657220746f206e6f6e20455243373231526560408201527131b2b4bb32b91034b6b83632b6b2b73a32b960711b606082015260800190565b6001600160a01b038581168252841660208201526040810183905260806060820181905260009061323390830184612cae565b9695505050505050565b60006020828403121561324f57600080fd5b815161113e81612c3e565b634e487b7160e01b600052603160045260246000fdfea26469706673582212205b7ec2e823b20cc5374e222ad767ddf4c0c8589aa8b19fb182122742605accaf64736f6c63430008140033",
  "linkReferences": {},
  "deployedLinkReferences": {}
}