{
  "_format": "hh-sol-artifact-1",
  "contractName": "NukeFund",
  "sourceName": "contracts/NukeFund/NukeFund.sol",
  "abi": [
    {
      "inputs": [
        {
          "internalType": "address",
          "name": "_traitForgeNft",
          "type": "address"
        },
        {
          "internalType": "address",
          "name": "_airdrop",
          "type": "address"
        },
        {
          "internalType": "address payable",
          "name": "_devAddress",
          "type": "address"
        },
        {
          "internalType": "address payable",
          "name": "_daoAddress",
          "type": "address"
        }
      ],
      "stateMutability": "nonpayable",
      "type": "constructor"
    },
    {
      "anonymous": false,
      "inputs": [
        {
          "indexed": true,
          "internalType": "address",
          "name": "newAddress",
          "type": "address"
        }
      ],
      "name": "AirdropAddressUpdated",
      "type": "event"
    },
    {
      "anonymous": false,
      "inputs": [
        {
          "indexed": true,
          "internalType": "address",
          "name": "newAddress",
          "type": "address"
        }
      ],
      "name": "DaoAddressUpdated",
      "type": "event"
    },
    {
      "anonymous": false,
      "inputs": [
        {
          "indexed": true,
          "internalType": "address",
          "name": "newAddress",
          "type": "address"
        }
      ],
      "name": "DevAddressUpdated",
      "type": "event"
    },
    {
      "anonymous": false,
      "inputs": [
        {
          "indexed": false,
          "internalType": "uint256",
          "name": "devShare",
          "type": "uint256"
        }
      ],
      "name": "DevShareDistributed",
      "type": "event"
    },
    {
      "anonymous": false,
      "inputs": [
        {
          "indexed": false,
          "internalType": "uint256",
          "name": "newBalance",
          "type": "uint256"
        }
      ],
      "name": "FundBalanceUpdated",
      "type": "event"
    },
    {
      "anonymous": false,
      "inputs": [
        {
          "indexed": false,
          "internalType": "address",
          "name": "from",
          "type": "address"
        },
        {
          "indexed": false,
          "internalType": "uint256",
          "name": "amount",
          "type": "uint256"
        }
      ],
      "name": "FundReceived",
      "type": "event"
    },
    {
      "anonymous": false,
      "inputs": [
        {
          "indexed": true,
          "internalType": "address",
          "name": "owner",
          "type": "address"
        },
        {
          "indexed": false,
          "internalType": "uint256",
          "name": "tokenId",
          "type": "uint256"
        },
        {
          "indexed": false,
          "internalType": "uint256",
          "name": "nukeAmount",
          "type": "uint256"
        }
      ],
      "name": "Nuked",
      "type": "event"
    },
    {
      "anonymous": false,
      "inputs": [
        {
          "indexed": true,
          "internalType": "address",
          "name": "previousOwner",
          "type": "address"
        },
        {
          "indexed": true,
          "internalType": "address",
          "name": "newOwner",
          "type": "address"
        }
      ],
      "name": "OwnershipTransferred",
      "type": "event"
    },
    {
      "anonymous": false,
      "inputs": [
        {
          "indexed": false,
          "internalType": "address",
          "name": "account",
          "type": "address"
        }
      ],
      "name": "Paused",
      "type": "event"
    },
    {
      "anonymous": false,
      "inputs": [
        {
          "indexed": true,
          "internalType": "address",
          "name": "newAddress",
          "type": "address"
        }
      ],
      "name": "TraitForgeNftAddressUpdated",
      "type": "event"
    },
    {
      "anonymous": false,
      "inputs": [
        {
          "indexed": false,
          "internalType": "address",
          "name": "account",
          "type": "address"
        }
      ],
      "name": "Unpaused",
      "type": "event"
    },
    {
      "inputs": [],
      "name": "MAX_DENOMINATOR",
      "outputs": [
        {
          "internalType": "uint256",
          "name": "",
          "type": "uint256"
        }
      ],
      "stateMutability": "view",
      "type": "function"
    },
    {
      "inputs": [],
      "name": "ageMultiplier",
      "outputs": [
        {
          "internalType": "uint256",
          "name": "",
          "type": "uint256"
        }
      ],
      "stateMutability": "view",
      "type": "function"
    },
    {
      "inputs": [],
      "name": "airdropContract",
      "outputs": [
        {
          "internalType": "contract IAirdrop",
          "name": "",
          "type": "address"
        }
      ],
      "stateMutability": "view",
      "type": "function"
    },
    {
      "inputs": [
        {
          "internalType": "uint256",
          "name": "tokenId",
          "type": "uint256"
        }
      ],
      "name": "calculateAge",
      "outputs": [
        {
          "internalType": "uint256",
          "name": "",
          "type": "uint256"
        }
      ],
      "stateMutability": "view",
      "type": "function"
    },
    {
      "inputs": [
        {
          "internalType": "uint256",
          "name": "tokenId",
          "type": "uint256"
        }
      ],
      "name": "calculateNukeFactor",
      "outputs": [
        {
          "internalType": "uint256",
          "name": "",
          "type": "uint256"
        }
      ],
      "stateMutability": "view",
      "type": "function"
    },
    {
      "inputs": [
        {
          "internalType": "uint256",
          "name": "tokenId",
          "type": "uint256"
        }
      ],
      "name": "canTokenBeNuked",
      "outputs": [
        {
          "internalType": "bool",
          "name": "",
          "type": "bool"
        }
      ],
      "stateMutability": "view",
      "type": "function"
    },
    {
      "inputs": [],
      "name": "daoAddress",
      "outputs": [
        {
          "internalType": "address payable",
          "name": "",
          "type": "address"
        }
      ],
      "stateMutability": "view",
      "type": "function"
    },
    {
      "inputs": [],
      "name": "defaultNukeFactorIncrease",
      "outputs": [
        {
          "internalType": "uint256",
          "name": "",
          "type": "uint256"
        }
      ],
      "stateMutability": "view",
      "type": "function"
    },
    {
      "inputs": [],
      "name": "devAddress",
      "outputs": [
        {
          "internalType": "address payable",
          "name": "",
          "type": "address"
        }
      ],
      "stateMutability": "view",
      "type": "function"
    },
    {
      "inputs": [],
      "name": "getAgeMultiplier",
      "outputs": [
        {
          "internalType": "uint256",
          "name": "",
          "type": "uint256"
        }
      ],
      "stateMutability": "view",
      "type": "function"
    },
    {
      "inputs": [],
      "name": "getFundBalance",
      "outputs": [
        {
          "internalType": "uint256",
          "name": "",
          "type": "uint256"
        }
      ],
      "stateMutability": "view",
      "type": "function"
    },
    {
      "inputs": [],
      "name": "maxAllowedClaimDivisor",
      "outputs": [
        {
          "internalType": "uint256",
          "name": "",
          "type": "uint256"
        }
      ],
      "stateMutability": "view",
      "type": "function"
    },
    {
      "inputs": [],
      "name": "minimumDaysHeld",
      "outputs": [
        {
          "internalType": "uint256",
          "name": "",
          "type": "uint256"
        }
      ],
      "stateMutability": "view",
      "type": "function"
    },
    {
      "inputs": [],
      "name": "nftContract",
      "outputs": [
        {
          "internalType": "contract ITraitForgeNft",
          "name": "",
          "type": "address"
        }
      ],
      "stateMutability": "view",
      "type": "function"
    },
    {
      "inputs": [
        {
          "internalType": "uint256",
          "name": "tokenId",
          "type": "uint256"
        }
      ],
      "name": "nuke",
      "outputs": [],
      "stateMutability": "nonpayable",
      "type": "function"
    },
    {
      "inputs": [],
      "name": "nukeFactorMaxParam",
      "outputs": [
        {
          "internalType": "uint256",
          "name": "",
          "type": "uint256"
        }
      ],
      "stateMutability": "view",
      "type": "function"
    },
    {
      "inputs": [],
      "name": "owner",
      "outputs": [
        {
          "internalType": "address",
          "name": "",
          "type": "address"
        }
      ],
      "stateMutability": "view",
      "type": "function"
    },
    {
      "inputs": [],
      "name": "paused",
      "outputs": [
        {
          "internalType": "bool",
          "name": "",
          "type": "bool"
        }
      ],
      "stateMutability": "view",
      "type": "function"
    },
    {
      "inputs": [],
      "name": "renounceOwnership",
      "outputs": [],
      "stateMutability": "nonpayable",
      "type": "function"
    },
    {
      "inputs": [
        {
          "internalType": "uint256",
          "name": "_ageMultiplier",
          "type": "uint256"
        }
      ],
      "name": "setAgeMultplier",
      "outputs": [],
      "stateMutability": "nonpayable",
      "type": "function"
    },
    {
      "inputs": [
        {
          "internalType": "address",
          "name": "_airdrop",
          "type": "address"
        }
      ],
      "name": "setAirdropContract",
      "outputs": [],
      "stateMutability": "nonpayable",
      "type": "function"
    },
    {
      "inputs": [
        {
          "internalType": "address payable",
          "name": "account",
          "type": "address"
        }
      ],
      "name": "setDaoAddress",
      "outputs": [],
      "stateMutability": "nonpayable",
      "type": "function"
    },
    {
      "inputs": [
        {
          "internalType": "uint256",
          "name": "value",
          "type": "uint256"
        }
      ],
      "name": "setDefaultNukeFactorIncrease",
      "outputs": [],
      "stateMutability": "nonpayable",
      "type": "function"
    },
    {
      "inputs": [
        {
          "internalType": "address payable",
          "name": "account",
          "type": "address"
        }
      ],
      "name": "setDevAddress",
      "outputs": [],
      "stateMutability": "nonpayable",
      "type": "function"
    },
    {
      "inputs": [
        {
          "internalType": "uint256",
          "name": "value",
          "type": "uint256"
        }
      ],
      "name": "setMaxAllowedClaimDivisor",
      "outputs": [],
      "stateMutability": "nonpayable",
      "type": "function"
    },
    {
      "inputs": [
        {
          "internalType": "uint256",
          "name": "value",
          "type": "uint256"
        }
      ],
      "name": "setMinimumDaysHeld",
      "outputs": [],
      "stateMutability": "nonpayable",
      "type": "function"
    },
    {
      "inputs": [
        {
          "internalType": "uint256",
          "name": "value",
          "type": "uint256"
        }
      ],
      "name": "setNukeFactorMaxParam",
      "outputs": [],
      "stateMutability": "nonpayable",
      "type": "function"
    },
    {
      "inputs": [
        {
          "internalType": "uint256",
          "name": "_taxCut",
          "type": "uint256"
        }
      ],
      "name": "setTaxCut",
      "outputs": [],
      "stateMutability": "nonpayable",
      "type": "function"
    },
    {
      "inputs": [
        {
          "internalType": "address",
          "name": "_traitForgeNft",
          "type": "address"
        }
      ],
      "name": "setTraitForgeNftContract",
      "outputs": [],
      "stateMutability": "nonpayable",
      "type": "function"
    },
    {
      "inputs": [],
      "name": "taxCut",
      "outputs": [
        {
          "internalType": "uint256",
          "name": "",
          "type": "uint256"
        }
      ],
      "stateMutability": "view",
      "type": "function"
    },
    {
      "inputs": [
        {
          "internalType": "address",
          "name": "newOwner",
          "type": "address"
        }
      ],
      "name": "transferOwnership",
      "outputs": [],
      "stateMutability": "nonpayable",
      "type": "function"
    },
    {
      "stateMutability": "payable",
      "type": "receive"
    }
  ],
  "bytecode": "0x6080604052600a60075560fa60085560026009556002620186a062000025919062000122565b600a556203f480600b553480156200003c57600080fd5b5060405162001934380380620019348339810160408190526200005f916200015e565b60016000556200006f33620000d0565b6001805460ff60a01b19169055600380546001600160a01b039586166001600160a01b0319918216179091556004805494861694821694909417909355600580549285169284169290921790915560068054919093169116179055620001c6565b600180546001600160a01b038381166001600160a01b0319831681179093556040519116919082907f8be0079c531659141344cd1fd0a4f28419497f9722a3daafe3b4186f6b6457e090600090a35050565b6000826200014057634e487b7160e01b600052601260045260246000fd5b500490565b6001600160a01b03811681146200015b57600080fd5b50565b600080600080608085870312156200017557600080fd5b8451620001828162000145565b6020860151909450620001958162000145565b6040860151909350620001a88162000145565b6060860151909250620001bb8162000145565b939692955090935050565b61175e80620001d66000396000f3fe6080604052600436106101dc5760003560e01c806385cc8bfb11610102578063d0d41fe111610095578063e2c29da811610064578063e2c29da81461089f578063f17d1534146108bf578063f2fde38b146108d5578063fca1ceb8146108f557600080fd5b8063d0d41fe114610835578063d56d229d14610855578063dae9e37914610875578063df0b79ab1461088a57600080fd5b80639d1e39bb116100d15780639d1e39bb146107c9578063ab2be726146107df578063c023eed6146107ff578063c8f640851461081f57600080fd5b806385cc8bfb1461074b5780638802e47e1461076b5780638da5cb5b1461078b5780639a3cac6a146107a957600080fd5b8063415bbca81161017a5780636f011538116101495780636f011538146106df578063715018a6146106ff5780637637de841461071457806381d189f21461073457600080fd5b8063415bbca814610674578063562e99c01461068a5780635c448e9a146106aa5780635c975abb146106c057600080fd5b806324c2c1a4116101b657806324c2c1a4146105d65780632c7485d0146106045780633ad10ef6146106345780633f04777b1461065457600080fd5b80630d95508d146105575780631ccf1be5146105795780632131c68c1461059957600080fd5b36610552576000600754346101f1919061159e565b905060006101ff82346115b2565b9050806002600082825461021391906115cb565b9091555050600480546040805163143c2a3160e01b815290516001600160a01b039092169263143c2a319282820192602092908290030181865afa15801561025f573d6000803e3d6000fd5b505050506040513d601f19601f8201168201806040525081019061028391906115de565b61033c576005546040516000916001600160a01b03169084908381818185875af1925050503d80600081146102d4576040519150601f19603f3d011682016040523d82523d6000602084013e6102d9565b606091505b50509050806103035760405162461bcd60e51b81526004016102fa90611607565b60405180910390fd5b6040518381527ffee0367062ca5946b3092f4b8c56c0a74633ed16ed153e34a63ed9333edf4e499060200160405180910390a1506104dd565b6004805460408051637a14eddb60e01b815290516001600160a01b0390921692637a14eddb9282820192602092908290030181865afa158015610383573d6000803e3d6000fd5b505050506040513d601f19601f820116820180604052508101906103a791906115de565b6104355760006103bf6001546001600160a01b031690565b6001600160a01b03168360405160006040518083038185875af1925050503d8060008114610409576040519150601f19603f3d011682016040523d82523d6000602084013e61040e565b606091505b505090508061042f5760405162461bcd60e51b81526004016102fa90611607565b506104dd565b6006546040516000916001600160a01b03169084908381818185875af1925050503d8060008114610482576040519150601f19603f3d011682016040523d82523d6000602084013e610487565b606091505b50509050806104a85760405162461bcd60e51b81526004016102fa90611607565b6040518381527ffee0367062ca5946b3092f4b8c56c0a74633ed16ed153e34a63ed9333edf4e499060200160405180910390a1505b604080513381523460208201527f54a5b8782470a0d2c022b3b9e5e729503ac5dbdfe053afeb4559f9297f7565a6910160405180910390a17f1c12d443904f86e97d1a2e676cef66e79b25b1d1f6eb270c0a700526edf9b18260025460405161054891815260200190565b60405180910390a1005b600080fd5b34801561056357600080fd5b50610577610572366004611630565b61090b565b005b34801561058557600080fd5b50610577610594366004611630565b610d79565b3480156105a557600080fd5b506006546105b9906001600160a01b031681565b6040516001600160a01b0390911681526020015b60405180910390f35b3480156105e257600080fd5b506105f66105f1366004611630565b610d86565b6040519081526020016105cd565b34801561061057600080fd5b5061062461061f366004611630565b610edd565b60405190151581526020016105cd565b34801561064057600080fd5b506005546105b9906001600160a01b031681565b34801561066057600080fd5b5061057761066f366004611630565b610fef565b34801561068057600080fd5b506105f660085481565b34801561069657600080fd5b506105776106a536600461165e565b610ffc565b3480156106b657600080fd5b506105f660075481565b3480156106cc57600080fd5b50600154600160a01b900460ff16610624565b3480156106eb57600080fd5b506105776106fa36600461165e565b61104e565b34801561070b57600080fd5b506105776110a0565b34801561072057600080fd5b5061057761072f366004611630565b6110b4565b34801561074057600080fd5b506105f6620186a081565b34801561075757600080fd5b506105f6610766366004611630565b6110c1565b34801561077757600080fd5b50610577610786366004611630565b6112df565b34801561079757600080fd5b506001546001600160a01b03166105b9565b3480156107b557600080fd5b506105776107c436600461165e565b6112ec565b3480156107d557600080fd5b506105f6600a5481565b3480156107eb57600080fd5b506004546105b9906001600160a01b031681565b34801561080b57600080fd5b5061057761081a366004611630565b61133e565b34801561082b57600080fd5b506105f6600b5481565b34801561084157600080fd5b5061057761085036600461165e565b61134b565b34801561086157600080fd5b506003546105b9906001600160a01b031681565b34801561088157600080fd5b506002546105f6565b34801561089657600080fd5b50600c546105f6565b3480156108ab57600080fd5b506105776108ba366004611630565b61139d565b3480156108cb57600080fd5b506105f6600c5481565b3480156108e157600080fd5b506105776108f036600461165e565b6113aa565b34801561090157600080fd5b506105f660095481565b610913611420565b61091b61146d565b60035460405163430c208160e01b8152336004820152602481018390526001600160a01b039091169063430c208190604401602060405180830381865afa15801561096a573d6000803e3d6000fd5b505050506040513d601f19601f8201168201806040525081019061098e91906115de565b6109f05760405162461bcd60e51b815260206004820152602d60248201527f4552433732313a2063616c6c6572206973206e6f7420746f6b656e206f776e6560448201526c1c881bdc88185c1c1c9bdd9959609a1b60648201526084016102fa565b60035460405163020604bf60e21b81526004810183905230916001600160a01b03169063081812fc90602401602060405180830381865afa158015610a39573d6000803e3d6000fd5b505050506040513d601f19601f82011682018060405250810190610a5d919061167b565b6001600160a01b03161480610adf575060035460405163e985e9c560e01b81523360048201523060248201526001600160a01b039091169063e985e9c590604401602060405180830381865afa158015610abb573d6000803e3d6000fd5b505050506040513d601f19601f82011682018060405250810190610adf91906115de565b610b425760405162461bcd60e51b815260206004820152602e60248201527f436f6e7472616374206d75737420626520617070726f76656420746f2074726160448201526d3739b332b9103a34329027232a1760911b60648201526084016102fa565b610b4b81610edd565b610b975760405162461bcd60e51b815260206004820152601760248201527f546f6b656e206973206e6f74206d61747572652079657400000000000000000060448201526064016102fa565b6000610ba282610d86565b90506000620186a082600254610bb89190611698565b610bc2919061159e565b90506000600954600254610bd6919061159e565b90506000600a548411610be95782610beb565b815b90508060026000828254610bff91906115b2565b9091555050600354604051630852cd8d60e31b8152600481018790526001600160a01b03909116906342966c6890602401600060405180830381600087803b158015610c4a57600080fd5b505af1158015610c5e573d6000803e3d6000fd5b50506040516000925033915083908381818185875af1925050503d8060008114610ca4576040519150601f19603f3d011682016040523d82523d6000602084013e610ca9565b606091505b5050905080610cf15760405162461bcd60e51b81526020600482015260146024820152732330b4b632b2103a379039b2b7321022ba3432b960611b60448201526064016102fa565b604080518781526020810184905233917f8c9149f14ad96a26724a68fd0cc1d0ed43cdbf7e29d39c7857ca4c1d5b5a864d910160405180910390a27f1c12d443904f86e97d1a2e676cef66e79b25b1d1f6eb270c0a700526edf9b182600254604051610d5f91815260200190565b60405180910390a15050505050610d766001600055565b50565b610d816114c6565b600855565b6003546040516331a9108f60e11b81526004810183905260009182916001600160a01b0390911690636352211e90602401602060405180830381865afa158015610dd4573d6000803e3d6000fd5b505050506040513d601f19601f82011682018060405250810190610df8919061167b565b6001600160a01b031603610e1e5760405162461bcd60e51b81526004016102fa906116af565b6003546040516306b6c00b60e01b8152600481018490526000916001600160a01b0316906306b6c00b90602401602060405180830381865afa158015610e68573d6000803e3d6000fd5b505050506040513d601f19601f82011682018060405250810190610e8c91906116fb565b90506000610e99846110c1565b90506000610ea860288461159e565b9050600081620186a060085485610ebf9190611698565b610ec9919061159e565b610ed391906115cb565b9695505050505050565b6003546040516331a9108f60e11b81526004810183905260009182916001600160a01b0390911690636352211e90602401602060405180830381865afa158015610f2b573d6000803e3d6000fd5b505050506040513d601f19601f82011682018060405250810190610f4f919061167b565b6001600160a01b031603610f755760405162461bcd60e51b81526004016102fa906116af565b600354604051630b30fec360e41b8152600481018490526000916001600160a01b03169063b30fec3090602401602060405180830381865afa158015610fbf573d6000803e3d6000fd5b505050506040513d601f19601f82011682018060405250810190610fe391906116fb565b600b5411159392505050565b610ff76114c6565b600a55565b6110046114c6565b600380546001600160a01b0319166001600160a01b0383169081179091556040517fcf5226c92f5621f29c0e7a9e9d259703b3f6013f572ab91a786bdad05ee4a69d90600090a250565b6110566114c6565b600480546001600160a01b0319166001600160a01b0383169081179091556040517f0bea07ef1c025671eaeea51d013aed8e48d9427504fe445a03262549abc96b9790600090a250565b6110a86114c6565b6110b26000611520565b565b6110bc6114c6565b600955565b6003546040516331a9108f60e11b81526004810183905260009182916001600160a01b0390911690636352211e90602401602060405180830381865afa15801561110f573d6000803e3d6000fd5b505050506040513d601f19601f82011682018060405250810190611133919061167b565b6001600160a01b0316036111805760405162461bcd60e51b8152602060048201526014602482015273151bdad95b88191bd95cc81b9bdd08195e1a5cdd60621b60448201526064016102fa565b60035460405163431a3f9d60e01b815260048101849052600091601891603c9182916001600160a01b039091169063431a3f9d90602401602060405180830381865afa1580156111d4573d6000803e3d6000fd5b505050506040513d601f19601f820116820180604052508101906111f891906116fb565b61120290426115b2565b61120c919061159e565b611216919061159e565b611220919061159e565b6003546040516306b6c00b60e01b815260048101869052919250600091600a916001600160a01b0316906306b6c00b90602401602060405180830381865afa158015611270573d6000803e3d6000fd5b505050506040513d601f19601f8201168201806040525081019061129491906116fb565b61129e9190611714565b9050600061016d600c54620186a084866112b89190611698565b6112c29190611698565b6112cc9190611698565b6112d6919061159e565b95945050505050565b6112e76114c6565b600c55565b6112f46114c6565b600680546001600160a01b0319166001600160a01b0383169081179091556040517fc995b82ab98c255e9e917cdc60bde29d326b5242f499b6aa453e3ef95fc4f6ef90600090a250565b6113466114c6565b600755565b6113536114c6565b600580546001600160a01b0319166001600160a01b0383169081179091556040517f34830ecd12aee38e030de8db2aab7662959ba614a8af53e095041d13deced11d90600090a250565b6113a56114c6565b600b55565b6113b26114c6565b6001600160a01b0381166114175760405162461bcd60e51b815260206004820152602660248201527f4f776e61626c653a206e6577206f776e657220697320746865207a65726f206160448201526564647265737360d01b60648201526084016102fa565b610d7681611520565b600154600160a01b900460ff16156110b25760405162461bcd60e51b815260206004820152601060248201526f14185d5cd8589b194e881c185d5cd95960821b60448201526064016102fa565b6002600054036114bf5760405162461bcd60e51b815260206004820152601f60248201527f5265656e7472616e637947756172643a207265656e7472616e742063616c6c0060448201526064016102fa565b6002600055565b6001546001600160a01b031633146110b25760405162461bcd60e51b815260206004820181905260248201527f4f776e61626c653a2063616c6c6572206973206e6f7420746865206f776e657260448201526064016102fa565b600180546001600160a01b038381166001600160a01b0319831681179093556040519116919082907f8be0079c531659141344cd1fd0a4f28419497f9722a3daafe3b4186f6b6457e090600090a35050565b634e487b7160e01b600052601260045260246000fd5b634e487b7160e01b600052601160045260246000fd5b6000826115ad576115ad611572565b500490565b818103818111156115c5576115c5611588565b92915050565b808201808211156115c5576115c5611588565b6000602082840312156115f057600080fd5b8151801515811461160057600080fd5b9392505050565b6020808252600f908201526e115512081cd95b990819985a5b1959608a1b604082015260600190565b60006020828403121561164257600080fd5b5035919050565b6001600160a01b0381168114610d7657600080fd5b60006020828403121561167057600080fd5b813561160081611649565b60006020828403121561168d57600080fd5b815161160081611649565b80820281158282048414176115c5576115c5611588565b6020808252602c908201527f4552433732313a206f70657261746f7220717565727920666f72206e6f6e657860408201526b34b9ba32b73a103a37b5b2b760a11b606082015260800190565b60006020828403121561170d57600080fd5b5051919050565b60008261172357611723611572565b50069056fea26469706673582212206818141443079fc796acd620718fde657a825d899e7800862a582e610496c00c64736f6c63430008140033",
  "linkReferences": {},
  "deployedLinkReferences": {}
}