{
  "_format": "hh-sol-artifact-1",
  "contractName": "EntityTrading",
  "sourceName": "contracts/EntityTrading/EntityTrading.sol",
  "abi": [
    {
      "inputs": [
        {
          "internalType": "address",
          "name": "_traitForgeNft",
          "type": "address"
        }
      ],
      "stateMutability": "nonpayable",
      "type": "constructor"
    },
    {
      "anonymous": false,
      "inputs": [
        {
          "indexed": true,
          "internalType": "uint256",
          "name": "tokenId",
          "type": "uint256"
        },
        {
          "indexed": true,
          "internalType": "address",
          "name": "seller",
          "type": "address"
        }
      ],
      "name": "ListingCanceled",
      "type": "event"
    },
    {
      "anonymous": false,
      "inputs": [
        {
          "indexed": true,
          "internalType": "uint256",
          "name": "tokenId",
          "type": "uint256"
        },
        {
          "indexed": true,
          "internalType": "address",
          "name": "seller",
          "type": "address"
        },
        {
          "indexed": false,
          "internalType": "uint256",
          "name": "price",
          "type": "uint256"
        }
      ],
      "name": "NFTListed",
      "type": "event"
    },
    {
      "anonymous": false,
      "inputs": [
        {
          "indexed": true,
          "internalType": "uint256",
          "name": "tokenId",
          "type": "uint256"
        },
        {
          "indexed": true,
          "internalType": "address",
          "name": "seller",
          "type": "address"
        },
        {
          "indexed": true,
          "internalType": "address",
          "name": "buyer",
          "type": "address"
        },
        {
          "indexed": false,
          "internalType": "uint256",
          "name": "price",
          "type": "uint256"
        },
        {
          "indexed": false,
          "internalType": "uint256",
          "name": "nukeFundContribution",
          "type": "uint256"
        }
      ],
      "name": "NFTSold",
      "type": "event"
    },
    {
      "anonymous": false,
      "inputs": [
        {
          "indexed": true,
          "internalType": "address",
          "name": "from",
          "type": "address"
        },
        {
          "indexed": false,
          "internalType": "uint256",
          "name": "amount",
          "type": "uint256"
        }
      ],
      "name": "NukeFundContribution",
      "type": "event"
    },
    {
      "anonymous": false,
      "inputs": [
        {
          "indexed": true,
          "internalType": "address",
          "name": "previousOwner",
          "type": "address"
        },
        {
          "indexed": true,
          "internalType": "address",
          "name": "newOwner",
          "type": "address"
        }
      ],
      "name": "OwnershipTransferred",
      "type": "event"
    },
    {
      "anonymous": false,
      "inputs": [
        {
          "indexed": false,
          "internalType": "address",
          "name": "account",
          "type": "address"
        }
      ],
      "name": "Paused",
      "type": "event"
    },
    {
      "anonymous": false,
      "inputs": [
        {
          "indexed": false,
          "internalType": "address",
          "name": "account",
          "type": "address"
        }
      ],
      "name": "Unpaused",
      "type": "event"
    },
    {
      "inputs": [
        {
          "internalType": "uint256",
          "name": "tokenId",
          "type": "uint256"
        }
      ],
      "name": "buyNFT",
      "outputs": [],
      "stateMutability": "payable",
      "type": "function"
    },
    {
      "inputs": [
        {
          "internalType": "uint256",
          "name": "tokenId",
          "type": "uint256"
        }
      ],
      "name": "cancelListing",
      "outputs": [],
      "stateMutability": "nonpayable",
      "type": "function"
    },
    {
      "inputs": [],
      "name": "fetchListedEntities",
      "outputs": [
        {
          "internalType": "uint256[]",
          "name": "tokenIds",
          "type": "uint256[]"
        },
        {
          "internalType": "address[]",
          "name": "sellers",
          "type": "address[]"
        },
        {
          "internalType": "uint256[]",
          "name": "prices",
          "type": "uint256[]"
        }
      ],
      "stateMutability": "view",
      "type": "function"
    },
    {
      "inputs": [
        {
          "internalType": "uint256",
          "name": "tokenId",
          "type": "uint256"
        },
        {
          "internalType": "uint256",
          "name": "price",
          "type": "uint256"
        }
      ],
      "name": "listNFTForSale",
      "outputs": [],
      "stateMutability": "nonpayable",
      "type": "function"
    },
    {
      "inputs": [
        {
          "internalType": "uint256",
          "name": "",
          "type": "uint256"
        }
      ],
      "name": "listings",
      "outputs": [
        {
          "internalType": "address",
          "name": "seller",
          "type": "address"
        },
        {
          "internalType": "uint256",
          "name": "price",
          "type": "uint256"
        },
        {
          "internalType": "bool",
          "name": "isActive",
          "type": "bool"
        }
      ],
      "stateMutability": "view",
      "type": "function"
    },
    {
      "inputs": [],
      "name": "nftContract",
      "outputs": [
        {
          "internalType": "contract ITraitForgeNft",
          "name": "",
          "type": "address"
        }
      ],
      "stateMutability": "view",
      "type": "function"
    },
    {
      "inputs": [],
      "name": "nukeFundAddress",
      "outputs": [
        {
          "internalType": "address payable",
          "name": "",
          "type": "address"
        }
      ],
      "stateMutability": "view",
      "type": "function"
    },
    {
      "inputs": [],
      "name": "owner",
      "outputs": [
        {
          "internalType": "address",
          "name": "",
          "type": "address"
        }
      ],
      "stateMutability": "view",
      "type": "function"
    },
    {
      "inputs": [],
      "name": "paused",
      "outputs": [
        {
          "internalType": "bool",
          "name": "",
          "type": "bool"
        }
      ],
      "stateMutability": "view",
      "type": "function"
    },
    {
      "inputs": [],
      "name": "renounceOwnership",
      "outputs": [],
      "stateMutability": "nonpayable",
      "type": "function"
    },
    {
      "inputs": [
        {
          "internalType": "address payable",
          "name": "_nukeFundAddress",
          "type": "address"
        }
      ],
      "name": "setNukeFundAddress",
      "outputs": [],
      "stateMutability": "nonpayable",
      "type": "function"
    },
    {
      "inputs": [
        {
          "internalType": "uint256",
          "name": "_taxCut",
          "type": "uint256"
        }
      ],
      "name": "setTaxCut",
      "outputs": [],
      "stateMutability": "nonpayable",
      "type": "function"
    },
    {
      "inputs": [],
      "name": "taxCut",
      "outputs": [
        {
          "internalType": "uint256",
          "name": "",
          "type": "uint256"
        }
      ],
      "stateMutability": "view",
      "type": "function"
    },
    {
      "inputs": [
        {
          "internalType": "address",
          "name": "newOwner",
          "type": "address"
        }
      ],
      "name": "transferOwnership",
      "outputs": [],
      "stateMutability": "nonpayable",
      "type": "function"
    }
  ],
  "bytecode": "0x6080604052600a60045534801561001557600080fd5b5060405161156d38038061156d833981016040819052610034916100c6565b600160005561004233610074565b6001805460ff60a01b19169055600280546001600160a01b0319166001600160a01b03929092169190911790556100f6565b600180546001600160a01b038381166001600160a01b0319831681179093556040519116919082907f8be0079c531659141344cd1fd0a4f28419497f9722a3daafe3b4186f6b6457e090600090a35050565b6000602082840312156100d857600080fd5b81516001600160a01b03811681146100ef57600080fd5b9392505050565b611468806101056000396000f3fe6080604052600436106100dd5760003560e01c80638da5cb5b1161007f578063d56d229d11610059578063d56d229d14610239578063de74e57b14610259578063ee9151ae146102c9578063f2fde38b146102e957600080fd5b80638da5cb5b146101c7578063b2733b39146101f9578063c023eed61461021957600080fd5b806351ed8288116100bb57806351ed8288146101515780635c448e9a146101645780635c975abb14610188578063715018a6146101b257600080fd5b8063023f2dbe146100e257806326556bd114610104578063305a67a814610131575b600080fd5b3480156100ee57600080fd5b506101026100fd366004611237565b610309565b005b34801561011057600080fd5b50610119610333565b60405161012893929190611296565b60405180910390f35b34801561013d57600080fd5b5061010261014c366004611309565b610501565b61010261015f366004611309565b6107f3565b34801561017057600080fd5b5061017a60045481565b604051908152602001610128565b34801561019457600080fd5b50600154600160a01b900460ff166040519015158152602001610128565b3480156101be57600080fd5b50610102610abb565b3480156101d357600080fd5b506001546001600160a01b03165b6040516001600160a01b039091168152602001610128565b34801561020557600080fd5b50610102610214366004611322565b610acf565b34801561022557600080fd5b50610102610234366004611309565b610e52565b34801561024557600080fd5b506002546101e1906001600160a01b031681565b34801561026557600080fd5b506102a2610274366004611309565b6005602052600090815260409020805460018201546002909201546001600160a01b03909116919060ff1683565b604080516001600160a01b0390941684526020840192909252151590820152606001610128565b3480156102d557600080fd5b506003546101e1906001600160a01b031681565b3480156102f557600080fd5b50610102610304366004611237565b610e5f565b610311610ed5565b600380546001600160a01b0319166001600160a01b0392909216919091179055565b60608060606000610342610f2f565b90508067ffffffffffffffff81111561035d5761035d611344565b604051908082528060200260200182016040528015610386578160200160208202803683370190505b5093508067ffffffffffffffff8111156103a2576103a2611344565b6040519080825280602002602001820160405280156103cb578160200160208202803683370190505b5092508067ffffffffffffffff8111156103e7576103e7611344565b604051908082528060200260200182016040528015610410578160200160208202803683370190505b5091506000805b61041f610f83565b8110156104f95760008181526005602052604090206002015460ff16156104e757808683815181106104535761045361135a565b60209081029190910181019190915260008281526005909152604090205485516001600160a01b03909116908690849081106104915761049161135a565b6001600160a01b0390921660209283029190910182015260008281526005909152604090206001015484518590849081106104ce576104ce61135a565b6020908102919091010152816104e381611386565b9250505b806104f181611386565b915050610417565b505050909192565b610509610ff6565b610511611043565b600081815260056020526040902080546001600160a01b0316331461058c5760405162461bcd60e51b815260206004820152602660248201527f4f6e6c79207468652073656c6c65722063616e2063616e656c20746865206c6960448201526539ba34b7339760d11b60648201526084015b60405180910390fd5b600281015460ff166105d95760405162461bcd60e51b81526020600482015260166024820152752634b9ba34b7339034b9903737ba1030b1ba34bb329760511b6044820152606401610583565b600254815460405163e985e9c560e01b81526001600160a01b03918216600482015230602482015291169063e985e9c590604401602060405180830381865afa15801561062a573d6000803e3d6000fd5b505050506040513d601f19601f8201168201806040525081019061064e919061139f565b806106cc575060025460405163020604bf60e21b81526004810184905230916001600160a01b03169063081812fc90602401602060405180830381865afa15801561069d573d6000803e3d6000fd5b505050506040513d601f19601f820116820180604052508101906106c191906113c1565b6001600160a01b0316145b6107245760405162461bcd60e51b8152602060048201526024808201527f436f6e7472616374206d7573742068617665207472616e7366657220617070726044820152631bdd985b60e21b6064820152608401610583565b6002546040516323b872dd60e01b8152306004820152336024820152604481018490526001600160a01b03909116906323b872dd90606401600060405180830381600087803b15801561077657600080fd5b505af115801561078a573d6000803e3d6000fd5b50505060008381526005602052604080822080546001600160a01b031916815560018101839055600201805460ff191690555133925084917fbb7be15645f4eda9d65591c3a81b5e39256151f91bc25180315de259167c2e2391a3506107f06001600055565b50565b6107fb610ff6565b610803611043565b600081815260056020908152604091829020825160608101845281546001600160a01b03168152600182015492810183905260029091015460ff1615159281019290925234146108a75760405162461bcd60e51b815260206004820152602960248201527f4554482073656e7420646f6573206e6f74206d6174636820746865206c697374604482015268696e6720707269636560b81b6064820152608401610583565b80516001600160a01b03166108fe5760405162461bcd60e51b815260206004820152601b60248201527f4e4654206973206e6f74206c697374656420666f722073616c652e00000000006044820152606401610583565b60006004543461090e91906113de565b9050600061091c8234611400565b90506109278261109c565b82516040516000916001600160a01b03169083908381818185875af1925050503d8060008114610973576040519150601f19603f3d011682016040523d82523d6000602084013e610978565b606091505b50509050806109c95760405162461bcd60e51b815260206004820152601860248201527f4661696c656420746f2073656e6420746f2073656c6c657200000000000000006044820152606401610583565b6002546040516323b872dd60e01b8152306004820152336024820152604481018790526001600160a01b03909116906323b872dd90606401600060405180830381600087803b158015610a1b57600080fd5b505af1158015610a2f573d6000803e3d6000fd5b505050600086815260056020908152604080832080546001600160a01b031916815560018101939093556002909201805460ff19169055865182513481529182018790523393506001600160a01b03169188917f5fafad85dec201c2e73b6a2bef6351129304a624ea8720ecd04cd7f04d83bc39910160405180910390a4505050506107f06001600055565b610ac3610ed5565b610acd60006111d0565b565b610ad7610ff6565b610adf611043565b60008111610b2f5760405162461bcd60e51b815260206004820152601f60248201527f5072696365206d7573742062652067726561746572207468616e207a65726f006044820152606401610583565b6002546040516331a9108f60e11b81526004810184905233916001600160a01b031690636352211e90602401602060405180830381865afa158015610b78573d6000803e3d6000fd5b505050506040513d601f19601f82011682018060405250810190610b9c91906113c1565b6001600160a01b031614610bf25760405162461bcd60e51b815260206004820152601d60248201527f53656e646572206d75737420626520746865204e4654206f776e65722e0000006044820152606401610583565b60025460405163020604bf60e21b81526004810184905230916001600160a01b03169063081812fc90602401602060405180830381865afa158015610c3b573d6000803e3d6000fd5b505050506040513d601f19601f82011682018060405250810190610c5f91906113c1565b6001600160a01b03161480610ce1575060025460405163e985e9c560e01b81523360048201523060248201526001600160a01b039091169063e985e9c590604401602060405180830381865afa158015610cbd573d6000803e3d6000fd5b505050506040513d601f19601f82011682018060405250810190610ce1919061139f565b610d445760405162461bcd60e51b815260206004820152602e60248201527f436f6e7472616374206d75737420626520617070726f76656420746f2074726160448201526d3739b332b9103a34329027232a1760911b6064820152608401610583565b6002546040516323b872dd60e01b8152336004820152306024820152604481018490526001600160a01b03909116906323b872dd90606401600060405180830381600087803b158015610d9657600080fd5b505af1158015610daa573d6000803e3d6000fd5b505060408051606081018252338082526020808301878152600184860181815260008b815260058552879020955186546001600160a01b0319166001600160a01b03909116178655915190850155516002909301805460ff19169315159390931790925591518581529193508592507f5f9c03de076f5063cd3ebcfe8ef7aa8af378e4b35a83c77ba9777e97083879a2910160405180910390a3610e4e6001600055565b5050565b610e5a610ed5565b600455565b610e67610ed5565b6001600160a01b038116610ecc5760405162461bcd60e51b815260206004820152602660248201527f4f776e61626c653a206e6577206f776e657220697320746865207a65726f206160448201526564647265737360d01b6064820152608401610583565b6107f0816111d0565b6001546001600160a01b03163314610acd5760405162461bcd60e51b815260206004820181905260248201527f4f776e61626c653a2063616c6c6572206973206e6f7420746865206f776e65726044820152606401610583565b600080805b610f3c610f83565b811015610f7d5760008181526005602052604090206002015460ff1615610f6b5781610f6781611386565b9250505b80610f7581611386565b915050610f34565b50919050565b600254604080516318160ddd60e01b815290516000926001600160a01b0316916318160ddd9160048083019260209291908290030181865afa158015610fcd573d6000803e3d6000fd5b505050506040513d601f19601f82011682018060405250810190610ff19190611419565b905090565b600154600160a01b900460ff1615610acd5760405162461bcd60e51b815260206004820152601060248201526f14185d5cd8589b194e881c185d5cd95960821b6044820152606401610583565b6002600054036110955760405162461bcd60e51b815260206004820152601f60248201527f5265656e7472616e637947756172643a207265656e7472616e742063616c6c006044820152606401610583565b6002600055565b6003546001600160a01b03166110f45760405162461bcd60e51b815260206004820152601860248201527f4e756b6546756e642061646472657373206e6f742073657400000000000000006044820152606401610583565b6003546040516000916001600160a01b03169083908381818185875af1925050503d8060008114611141576040519150601f19603f3d011682016040523d82523d6000602084013e611146565b606091505b50509050806111975760405162461bcd60e51b815260206004820181905260248201527f4661696c656420746f2073656e6420457468657220746f204e756b6546756e646044820152606401610583565b60405182815230907f92b97b7affc547d31d01727584b467cfa1b473919e75358f22cd0ecb8c3d22e59060200160405180910390a25050565b600180546001600160a01b038381166001600160a01b0319831681179093556040519116919082907f8be0079c531659141344cd1fd0a4f28419497f9722a3daafe3b4186f6b6457e090600090a35050565b6001600160a01b03811681146107f057600080fd5b60006020828403121561124957600080fd5b813561125481611222565b9392505050565b600081518084526020808501945080840160005b8381101561128b5781518752958201959082019060010161126f565b509495945050505050565b6060815260006112a9606083018661125b565b82810360208481019190915285518083528682019282019060005b818110156112e95784516001600160a01b0316835293830193918301916001016112c4565b505084810360408601526112fd818761125b565b98975050505050505050565b60006020828403121561131b57600080fd5b5035919050565b6000806040838503121561133557600080fd5b50508035926020909101359150565b634e487b7160e01b600052604160045260246000fd5b634e487b7160e01b600052603260045260246000fd5b634e487b7160e01b600052601160045260246000fd5b60006001820161139857611398611370565b5060010190565b6000602082840312156113b157600080fd5b8151801515811461125457600080fd5b6000602082840312156113d357600080fd5b815161125481611222565b6000826113fb57634e487b7160e01b600052601260045260246000fd5b500490565b8181038181111561141357611413611370565b92915050565b60006020828403121561142b57600080fd5b505191905056fea2646970667358221220486a00ac2c08f58ccc72779f1b2452c34c01e1110189e7842a1678e7ae30bc7864736f6c63430008140033",
  "linkReferences": {},
  "deployedLinkReferences": {}
}