{
  "_format": "hh-sol-artifact-1",
  "contractName": "EntropyGenerator",
  "sourceName": "contracts/EntropyGenerator/EntropyGenerator.sol",
  "abi": [
    {
      "inputs": [
        {
          "internalType": "address",
          "name": "_traitForgetNft",
          "type": "address"
        }
      ],
      "stateMutability": "nonpayable",
      "type": "constructor"
    },
    {
      "anonymous": false,
      "inputs": [
        {
          "indexed": false,
          "internalType": "address",
          "name": "allowedCaller",
          "type": "address"
        }
      ],
      "name": "AllowedCallerUpdated",
      "type": "event"
    },
    {
      "anonymous": false,
      "inputs": [
        {
          "indexed": true,
          "internalType": "uint256",
          "name": "entropy",
          "type": "uint256"
        }
      ],
      "name": "EntropyRetrieved",
      "type": "event"
    },
    {
      "anonymous": false,
      "inputs": [
        {
          "indexed": true,
          "internalType": "address",
          "name": "previousOwner",
          "type": "address"
        },
        {
          "indexed": true,
          "internalType": "address",
          "name": "newOwner",
          "type": "address"
        }
      ],
      "name": "OwnershipTransferred",
      "type": "event"
    },
    {
      "anonymous": false,
      "inputs": [
        {
          "indexed": false,
          "internalType": "address",
          "name": "account",
          "type": "address"
        }
      ],
      "name": "Paused",
      "type": "event"
    },
    {
      "anonymous": false,
      "inputs": [
        {
          "indexed": false,
          "internalType": "address",
          "name": "account",
          "type": "address"
        }
      ],
      "name": "Unpaused",
      "type": "event"
    },
    {
      "inputs": [
        {
          "internalType": "uint256",
          "name": "slotIndex",
          "type": "uint256"
        },
        {
          "internalType": "uint256",
          "name": "numberIndex",
          "type": "uint256"
        }
      ],
      "name": "deriveTokenParameters",
      "outputs": [
        {
          "internalType": "uint256",
          "name": "nukeFactor",
          "type": "uint256"
        },
        {
          "internalType": "uint256",
          "name": "forgePotential",
          "type": "uint256"
        },
        {
          "internalType": "uint256",
          "name": "performanceFactor",
          "type": "uint256"
        },
        {
          "internalType": "bool",
          "name": "isForger",
          "type": "bool"
        }
      ],
      "stateMutability": "view",
      "type": "function"
    },
    {
      "inputs": [],
      "name": "getAllowedCaller",
      "outputs": [
        {
          "internalType": "address",
          "name": "",
          "type": "address"
        }
      ],
      "stateMutability": "view",
      "type": "function"
    },
    {
      "inputs": [],
      "name": "getLastInitializedIndex",
      "outputs": [
        {
          "internalType": "uint256",
          "name": "",
          "type": "uint256"
        }
      ],
      "stateMutability": "view",
      "type": "function"
    },
    {
      "inputs": [],
      "name": "getNextEntropy",
      "outputs": [
        {
          "internalType": "uint256",
          "name": "",
          "type": "uint256"
        }
      ],
      "stateMutability": "nonpayable",
      "type": "function"
    },
    {
      "inputs": [
        {
          "internalType": "uint256",
          "name": "slotIndex",
          "type": "uint256"
        },
        {
          "internalType": "uint256",
          "name": "numberIndex",
          "type": "uint256"
        }
      ],
      "name": "getPublicEntropy",
      "outputs": [
        {
          "internalType": "uint256",
          "name": "",
          "type": "uint256"
        }
      ],
      "stateMutability": "view",
      "type": "function"
    },
    {
      "inputs": [],
      "name": "initializeAlphaIndices",
      "outputs": [],
      "stateMutability": "nonpayable",
      "type": "function"
    },
    {
      "inputs": [],
      "name": "numberIndexSelectionPoint",
      "outputs": [
        {
          "internalType": "uint256",
          "name": "",
          "type": "uint256"
        }
      ],
      "stateMutability": "view",
      "type": "function"
    },
    {
      "inputs": [],
      "name": "owner",
      "outputs": [
        {
          "internalType": "address",
          "name": "",
          "type": "address"
        }
      ],
      "stateMutability": "view",
      "type": "function"
    },
    {
      "inputs": [],
      "name": "paused",
      "outputs": [
        {
          "internalType": "bool",
          "name": "",
          "type": "bool"
        }
      ],
      "stateMutability": "view",
      "type": "function"
    },
    {
      "inputs": [],
      "name": "renounceOwnership",
      "outputs": [],
      "stateMutability": "nonpayable",
      "type": "function"
    },
    {
      "inputs": [
        {
          "internalType": "address",
          "name": "_allowedCaller",
          "type": "address"
        }
      ],
      "name": "setAllowedCaller",
      "outputs": [],
      "stateMutability": "nonpayable",
      "type": "function"
    },
    {
      "inputs": [],
      "name": "slotIndexSelectionPoint",
      "outputs": [
        {
          "internalType": "uint256",
          "name": "",
          "type": "uint256"
        }
      ],
      "stateMutability": "view",
      "type": "function"
    },
    {
      "inputs": [
        {
          "internalType": "address",
          "name": "newOwner",
          "type": "address"
        }
      ],
      "name": "transferOwnership",
      "outputs": [],
      "stateMutability": "nonpayable",
      "type": "function"
    },
    {
      "inputs": [],
      "name": "writeEntropyBatch1",
      "outputs": [],
      "stateMutability": "nonpayable",
      "type": "function"
    },
    {
      "inputs": [],
      "name": "writeEntropyBatch2",
      "outputs": [],
      "stateMutability": "nonpayable",
      "type": "function"
    },
    {
      "inputs": [],
      "name": "writeEntropyBatch3",
      "outputs": [],
      "stateMutability": "nonpayable",
      "type": "function"
    }
  ],
  "bytecode": "0x6080604052600061030355600061030455600061030555610100610306556102006103075561030261030855600d610309553480156200003e57600080fd5b50604051620010d5380380620010d583398101604081905262000061916200023c565b6200006c33620000a6565b6000805460ff60a01b1916905561030c80546001600160a01b0319166001600160a01b0383161790556200009f620000f6565b50620002d9565b600080546001600160a01b038381166001600160a01b0319831681178455604051919092169283917f8be0079c531659141344cd1fd0a4f28419497f9722a3daafe3b4186f6b6457e09190a35050565b6200010062000184565b6200010a620001e0565b60006200011960014362000284565b6040805191406020830152429082015260600160408051601f198184030181529190528051602090910120905060006200015661010283620002a0565b6200016490610200620002c3565b9050600062000175600d84620002a0565b61030a929092555061030b5550565b62000198600054600160a01b900460ff1690565b15620001de5760405162461bcd60e51b815260206004820152601060248201526f14185d5cd8589b194e881c185d5cd95960821b60448201526064015b60405180910390fd5b565b6000546001600160a01b03163314620001de5760405162461bcd60e51b815260206004820181905260248201527f4f776e61626c653a2063616c6c6572206973206e6f7420746865206f776e65726044820152606401620001d5565b6000602082840312156200024f57600080fd5b81516001600160a01b03811681146200026757600080fd5b9392505050565b634e487b7160e01b600052601160045260246000fd5b818103818111156200029a576200029a6200026e565b92915050565b600082620002be57634e487b7160e01b600052601260045260246000fd5b500690565b808201808211156200029a576200029a6200026e565b610dec80620002e96000396000f3fe608060405234801561001057600080fd5b50600436106100ff5760003560e01c8063843a95f111610097578063bbab784011610066578063bbab7840146101ec578063c396c724146101ff578063d0b75fed14610207578063f2fde38b1461021157600080fd5b8063843a95f11461019a5780638da5cb5b146101c05780638f1ad441146101d1578063b16d6436146101d957600080fd5b80635c975abb116100d35780635c975abb14610163578063715018a614610180578063766ecb10146101885780638245eaec1461019257600080fd5b80626543e6146101045780630185d9a31461010e5780631a8dd90b146101165780633298b74d1461012e575b600080fd5b61010c610224565b005b61010c610392565b610303545b6040519081526020015b60405180910390f35b61014161013c366004610bb4565b61049f565b6040805194855260208501939093529183015215156060820152608001610125565b600054600160a01b900460ff166040519015158152602001610125565b61010c6104f5565b61011b61030a5481565b61010c610509565b61030c546001600160a01b03165b6040516001600160a01b039091168152602001610125565b6000546001600160a01b03166101a8565b61011b61058b565b61010c6101e7366004610bd6565b6106f0565b61011b6101fa366004610bb4565b61074d565b61010c610762565b61011b61030b5481565b61010c61021f366004610bd6565b6108a0565b61030654610303541015801561023f57506103075461030354105b6102a25760405162461bcd60e51b815260206004820152602960248201527f42617463682032206e6f74207265616479206f7220616c726561647920696e696044820152683a34b0b634bd32b21760b91b60648201526084015b60405180910390fd5b600061030654610303546102b69190610c1c565b610303549091505b8181101561038b576040805143602082015290810182905260009076028b6fc50b7f31eadb8d5a4c9b1e10cdcaa7d3494178e9604e1b906060016040516020818303038152906040528051906020012060001c8161031e5761031e610c2f565b06905080620f423f0361036b5760405162461bcd60e51b815260206004820152601560248201527424b73b30b634b2103b30b63ab296103932ba393c9760591b6044820152606401610299565b80600183610302811061038057610380610c45565b0155506001016102be565b5061030355565b6103075461030354101580156103ad57506103085461030354105b6104095760405162461bcd60e51b815260206004820152602760248201527f42617463682033206e6f74207265616479206f7220616c726561647920636f6d604482015266383632ba32b21760c91b6064820152608401610299565b610303545b61030854811015610494576040805143602082015290810182905260009076028b6fc50b7f31eadb8d5a4c9b1e10cdcaa7d3494178e9604e1b906060016040516020818303038152906040528051906020012060001c8161047157610471610c2f565b06905080600183610302811061048957610489610c45565b01555060010161040e565b506103085461030355565b60008060008060006104b18787610919565b90506104c0623d090082610c5b565b94506104cb81610a73565b93506104d8600a82610c6f565b925060006104e7600383610c6f565b159250505092959194509250565b6104fd610a94565b6105076000610aee565b565b610511610b3e565b610519610a94565b6000610526600143610c83565b6040805191406020830152429082015260600160408051601f1981840301815291905280516020909101209050600061056161010283610c6f565b61056d90610200610c1c565b9050600061057c600d84610c6f565b61030a929092555061030b5550565b61030c546000906001600160a01b031633146105e15760405162461bcd60e51b815260206004820152601560248201527410d85b1b195c881a5cc81b9bdd08185b1b1bddd959605a1b6044820152606401610299565b610308546103045411156106375760405162461bcd60e51b815260206004820152601760248201527f4d617820736c6f7420696e64657820726561636865642e0000000000000000006044820152606401610299565b60006106496103045461030554610919565b905060016103095461065b9190610c83565b61030554106106a9576000610305556103085461067a90600190610c83565b610304541061068e576000610304556106c0565b610304805490600061069f83610c96565b91905055506106c0565b61030580549060006106ba83610c96565b91905055505b60405181907f3b022683e02fa80ef4dbf70572ae68c7d734bb1b7035ccc1f2793e19698d481890600090a2905090565b6106f8610a94565b61030c80546001600160a01b0319166001600160a01b0383169081179091556040519081527fe2894a7c87e084235ad42c635e45697e0aff699b3447d133ef21a16c5f39e14a9060200160405180910390a150565b60006107598383610919565b90505b92915050565b6103065461030354106107b75760405162461bcd60e51b815260206004820152601c60248201527f4261746368203120616c726561647920696e697469616c697a65642e000000006044820152606401610299565b600061030654610303546107cb9190610c1c565b610303549091505b8181101561038b576040805143602082015290810182905260009076028b6fc50b7f31eadb8d5a4c9b1e10cdcaa7d3494178e9604e1b906060016040516020818303038152906040528051906020012060001c8161083357610833610c2f565b06905080620f423f036108805760405162461bcd60e51b815260206004820152601560248201527424b73b30b634b2103b30b63ab296103932ba393c9760591b6044820152606401610299565b80600183610302811061089557610895610c45565b0155506001016107d3565b6108a8610a94565b6001600160a01b03811661090d5760405162461bcd60e51b815260206004820152602660248201527f4f776e61626c653a206e6577206f776e657220697320746865207a65726f206160448201526564647265737360d01b6064820152608401610299565b61091681610aee565b50565b60006103085483111561096e5760405162461bcd60e51b815260206004820152601960248201527f536c6f7420696e646578206f7574206f6620626f756e64732e000000000000006044820152606401610299565b61030a5483148015610982575061030b5482145b156109915750620f423f61075c565b600061099e836006610caf565b905060488111156109f15760405162461bcd60e51b815260206004820152601a60248201527f506f736974696f6e2063616c63756c6174696f6e206572726f720000000000006044820152606401610299565b60006001856103028110610a0757610a07610c45565b015490506000620f4240610a1c846048610c83565b610a2790600a610daa565b610a319084610c5b565b610a3b9190610c6f565b90506000610a4882610b8b565b610a53906006610c83565b610a5e90600a610daa565b610a689083610caf565b979650505050505050565b60005b600a8210610a9057610a89600a83610c5b565b9150610a76565b5090565b6000546001600160a01b031633146105075760405162461bcd60e51b815260206004820181905260248201527f4f776e61626c653a2063616c6c6572206973206e6f7420746865206f776e65726044820152606401610299565b600080546001600160a01b038381166001600160a01b0319831681178455604051919092169283917f8be0079c531659141344cd1fd0a4f28419497f9722a3daafe3b4186f6b6457e09190a35050565b600054600160a01b900460ff16156105075760405162461bcd60e51b815260206004820152601060248201526f14185d5cd8589b194e881c185d5cd95960821b6044820152606401610299565b6000805b821561075c57610ba0600a84610c5b565b925080610bac81610c96565b915050610b8f565b60008060408385031215610bc757600080fd5b50508035926020909101359150565b600060208284031215610be857600080fd5b81356001600160a01b0381168114610bff57600080fd5b9392505050565b634e487b7160e01b600052601160045260246000fd5b8082018082111561075c5761075c610c06565b634e487b7160e01b600052601260045260246000fd5b634e487b7160e01b600052603260045260246000fd5b600082610c6a57610c6a610c2f565b500490565b600082610c7e57610c7e610c2f565b500690565b8181038181111561075c5761075c610c06565b600060018201610ca857610ca8610c06565b5060010190565b808202811582820484141761075c5761075c610c06565b600181815b80851115610d01578160001904821115610ce757610ce7610c06565b80851615610cf457918102915b93841c9390800290610ccb565b509250929050565b600082610d185750600161075c565b81610d255750600061075c565b8160018114610d3b5760028114610d4557610d61565b600191505061075c565b60ff841115610d5657610d56610c06565b50506001821b61075c565b5060208310610133831016604e8410600b8410161715610d84575081810a61075c565b610d8e8383610cc6565b8060001904821115610da257610da2610c06565b029392505050565b60006107598383610d0956fea264697066735822122081d31ef54c9192ce34908690df85944bd141cafedf406e4621c4c695f99f573764736f6c63430008140033",
  "linkReferences": {},
  "deployedLinkReferences": {}
}