{
    "_format": "hh-sol-artifact-1",
    "contractName": "BreedableToken",
    "sourceName": "contracts/BreedableToken.sol",
    "abi": [
        {
            "inputs": [
                {
                    "internalType": "string",
                    "name": "name",
                    "type": "string"
                },
                {
                    "internalType": "string",
                    "name": "symbol",
                    "type": "string"
                },
                {
                    "internalType": "address",
                    "name": "_nukeFundContract",
                    "type": "address"
                },
                {
                    "internalType": "address",
                    "name": "initialOwner",
                    "type": "address"
                }
            ],
            "stateMutability": "nonpayable",
            "type": "constructor"
        },
        {
            "inputs": [],
            "name": "ERC721EnumerableForbiddenBatchMint",
            "type": "error"
        },
        {
            "inputs": [
                {
                    "internalType": "address",
                    "name": "sender",
                    "type": "address"
                },
                {
                    "internalType": "uint256",
                    "name": "tokenId",
                    "type": "uint256"
                },
                {
                    "internalType": "address",
                    "name": "owner",
                    "type": "address"
                }
            ],
            "name": "ERC721IncorrectOwner",
            "type": "error"
        },
        {
            "inputs": [
                {
                    "internalType": "address",
                    "name": "operator",
                    "type": "address"
                },
                {
                    "internalType": "uint256",
                    "name": "tokenId",
                    "type": "uint256"
                }
            ],
            "name": "ERC721InsufficientApproval",
            "type": "error"
        },
        {
            "inputs": [
                {
                    "internalType": "address",
                    "name": "approver",
                    "type": "address"
                }
            ],
            "name": "ERC721InvalidApprover",
            "type": "error"
        },
        {
            "inputs": [
                {
                    "internalType": "address",
                    "name": "operator",
                    "type": "address"
                }
            ],
            "name": "ERC721InvalidOperator",
            "type": "error"
        },
        {
            "inputs": [
                {
                    "internalType": "address",
                    "name": "owner",
                    "type": "address"
                }
            ],
            "name": "ERC721InvalidOwner",
            "type": "error"
        },
        {
            "inputs": [
                {
                    "internalType": "address",
                    "name": "receiver",
                    "type": "address"
                }
            ],
            "name": "ERC721InvalidReceiver",
            "type": "error"
        },
        {
            "inputs": [
                {
                    "internalType": "address",
                    "name": "sender",
                    "type": "address"
                }
            ],
            "name": "ERC721InvalidSender",
            "type": "error"
        },
        {
            "inputs": [
                {
                    "internalType": "uint256",
                    "name": "tokenId",
                    "type": "uint256"
                }
            ],
            "name": "ERC721NonexistentToken",
            "type": "error"
        },
        {
            "inputs": [
                {
                    "internalType": "address",
                    "name": "owner",
                    "type": "address"
                },
                {
                    "internalType": "uint256",
                    "name": "index",
                    "type": "uint256"
                }
            ],
            "name": "ERC721OutOfBoundsIndex",
            "type": "error"
        },
        {
            "inputs": [
                {
                    "internalType": "address",
                    "name": "owner",
                    "type": "address"
                }
            ],
            "name": "OwnableInvalidOwner",
            "type": "error"
        },
        {
            "inputs": [
                {
                    "internalType": "address",
                    "name": "account",
                    "type": "address"
                }
            ],
            "name": "OwnableUnauthorizedAccount",
            "type": "error"
        },
        {
            "inputs": [],
            "name": "ReentrancyGuardReentrantCall",
            "type": "error"
        },
        {
            "anonymous": false,
            "inputs": [
                {
                    "indexed": true,
                    "internalType": "address",
                    "name": "owner",
                    "type": "address"
                },
                {
                    "indexed": true,
                    "internalType": "address",
                    "name": "approved",
                    "type": "address"
                },
                {
                    "indexed": true,
                    "internalType": "uint256",
                    "name": "tokenId",
                    "type": "uint256"
                }
            ],
            "name": "Approval",
            "type": "event"
        },
        {
            "anonymous": false,
            "inputs": [
                {
                    "indexed": true,
                    "internalType": "address",
                    "name": "owner",
                    "type": "address"
                },
                {
                    "indexed": true,
                    "internalType": "address",
                    "name": "operator",
                    "type": "address"
                },
                {
                    "indexed": false,
                    "internalType": "bool",
                    "name": "approved",
                    "type": "bool"
                }
            ],
            "name": "ApprovalForAll",
            "type": "event"
        },
        {
            "anonymous": false,
            "inputs": [
                {
                    "indexed": true,
                    "internalType": "uint256",
                    "name": "sireTokenId",
                    "type": "uint256"
                },
                {
                    "indexed": true,
                    "internalType": "uint256",
                    "name": "breederToken",
                    "type": "uint256"
                },
                {
                    "indexed": false,
                    "internalType": "uint256",
                    "name": "newEntityId",
                    "type": "uint256"
                }
            ],
            "name": "Breed",
            "type": "event"
        },
        {
            "anonymous": false,
            "inputs": [
                {
                    "indexed": true,
                    "internalType": "uint256",
                    "name": "tokenId",
                    "type": "uint256"
                },
                {
                    "indexed": false,
                    "internalType": "uint256",
                    "name": "newFee",
                    "type": "uint256"
                }
            ],
            "name": "BreedingFeeUpdated",
            "type": "event"
        },
        {
            "anonymous": false,
            "inputs": [
                {
                    "indexed": false,
                    "internalType": "bool",
                    "name": "isStopped",
                    "type": "bool"
                }
            ],
            "name": "EmergencyStopToggled",
            "type": "event"
        },
        {
            "anonymous": false,
            "inputs": [
                {
                    "indexed": false,
                    "internalType": "uint256",
                    "name": "tokenId",
                    "type": "uint256"
                }
            ],
            "name": "EntityDied",
            "type": "event"
        },
        {
            "anonymous": false,
            "inputs": [
                {
                    "indexed": true,
                    "internalType": "uint256",
                    "name": "tokenId",
                    "type": "uint256"
                },
                {
                    "indexed": false,
                    "internalType": "address",
                    "name": "newOwner",
                    "type": "address"
                }
            ],
            "name": "EntityOwnershipChanged",
            "type": "event"
        },
        {
            "anonymous": false,
            "inputs": [
                {
                    "indexed": true,
                    "internalType": "uint256",
                    "name": "tokenId",
                    "type": "uint256"
                },
                {
                    "indexed": false,
                    "internalType": "address",
                    "name": "from",
                    "type": "address"
                },
                {
                    "indexed": false,
                    "internalType": "address",
                    "name": "to",
                    "type": "address"
                }
            ],
            "name": "EntityTransfer",
            "type": "event"
        },
        {
            "anonymous": false,
            "inputs": [
                {
                    "indexed": false,
                    "internalType": "uint256",
                    "name": "tokenId",
                    "type": "uint256"
                },
                {
                    "indexed": false,
                    "internalType": "uint256",
                    "name": "newClaimShare",
                    "type": "uint256"
                },
                {
                    "indexed": false,
                    "internalType": "uint256",
                    "name": "newBreedPotential",
                    "type": "uint256"
                }
            ],
            "name": "EntityUpdated",
            "type": "event"
        },
        {
            "anonymous": false,
            "inputs": [
                {
                    "indexed": false,
                    "internalType": "string",
                    "name": "feeType",
                    "type": "string"
                },
                {
                    "indexed": false,
                    "internalType": "uint256",
                    "name": "newFeeAmount",
                    "type": "uint256"
                }
            ],
            "name": "FeeUpdated",
            "type": "event"
        },
        {
            "anonymous": false,
            "inputs": [
                {
                    "indexed": false,
                    "internalType": "uint256",
                    "name": "tokenId",
                    "type": "uint256"
                },
                {
                    "indexed": false,
                    "internalType": "uint256",
                    "name": "generation",
                    "type": "uint256"
                }
            ],
            "name": "NewEntityBorn",
            "type": "event"
        },
        {
            "anonymous": false,
            "inputs": [
                {
                    "indexed": true,
                    "internalType": "address",
                    "name": "previousOwner",
                    "type": "address"
                }
            ],
            "name": "OwnershipRenounced",
            "type": "event"
        },
        {
            "anonymous": false,
            "inputs": [
                {
                    "indexed": true,
                    "internalType": "address",
                    "name": "from",
                    "type": "address"
                },
                {
                    "indexed": true,
                    "internalType": "address",
                    "name": "to",
                    "type": "address"
                }
            ],
            "name": "OwnershipTransferAttempted",
            "type": "event"
        },
        {
            "anonymous": false,
            "inputs": [
                {
                    "indexed": true,
                    "internalType": "address",
                    "name": "previousOwner",
                    "type": "address"
                },
                {
                    "indexed": true,
                    "internalType": "address",
                    "name": "newOwner",
                    "type": "address"
                }
            ],
            "name": "OwnershipTransferred",
            "type": "event"
        },
        {
            "anonymous": false,
            "inputs": [
                {
                    "indexed": true,
                    "internalType": "address",
                    "name": "from",
                    "type": "address"
                },
                {
                    "indexed": true,
                    "internalType": "address",
                    "name": "to",
                    "type": "address"
                },
                {
                    "indexed": true,
                    "internalType": "uint256",
                    "name": "tokenId",
                    "type": "uint256"
                }
            ],
            "name": "Transfer",
            "type": "event"
        },
        {
            "inputs": [
                {
                    "internalType": "address",
                    "name": "to",
                    "type": "address"
                },
                {
                    "internalType": "uint256",
                    "name": "tokenId",
                    "type": "uint256"
                }
            ],
            "name": "approve",
            "outputs": [],
            "stateMutability": "nonpayable",
            "type": "function"
        },
        {
            "inputs": [
                {
                    "internalType": "address",
                    "name": "owner",
                    "type": "address"
                }
            ],
            "name": "balanceOf",
            "outputs": [
                {
                    "internalType": "uint256",
                    "name": "",
                    "type": "uint256"
                }
            ],
            "stateMutability": "view",
            "type": "function"
        },
        {
            "inputs": [
                {
                    "internalType": "uint256",
                    "name": "sireTokenId",
                    "type": "uint256"
                },
                {
                    "internalType": "uint256",
                    "name": "breederTokenId",
                    "type": "uint256"
                }
            ],
            "name": "breed",
            "outputs": [],
            "stateMutability": "payable",
            "type": "function"
        },
        {
            "inputs": [
                {
                    "internalType": "uint256",
                    "name": "",
                    "type": "uint256"
                }
            ],
            "name": "breedCount",
            "outputs": [
                {
                    "internalType": "uint8",
                    "name": "",
                    "type": "uint8"
                }
            ],
            "stateMutability": "view",
            "type": "function"
        },
        {
            "inputs": [],
            "name": "breedingFee",
            "outputs": [
                {
                    "internalType": "uint256",
                    "name": "",
                    "type": "uint256"
                }
            ],
            "stateMutability": "view",
            "type": "function"
        },
        {
            "inputs": [
                {
                    "internalType": "uint256",
                    "name": "",
                    "type": "uint256"
                }
            ],
            "name": "entities",
            "outputs": [
                {
                    "internalType": "enum BreedableToken.EntityType",
                    "name": "entityType",
                    "type": "uint8"
                },
                {
                    "internalType": "uint256",
                    "name": "claimShare",
                    "type": "uint256"
                },
                {
                    "internalType": "uint256",
                    "name": "breedPotential",
                    "type": "uint256"
                },
                {
                    "internalType": "uint256",
                    "name": "birthBlock",
                    "type": "uint256"
                },
                {
                    "internalType": "uint256",
                    "name": "generation",
                    "type": "uint256"
                }
            ],
            "stateMutability": "view",
            "type": "function"
        },
        {
            "inputs": [
                {
                    "internalType": "uint256",
                    "name": "",
                    "type": "uint256"
                }
            ],
            "name": "generationMintedCount",
            "outputs": [
                {
                    "internalType": "uint256",
                    "name": "",
                    "type": "uint256"
                }
            ],
            "stateMutability": "view",
            "type": "function"
        },
        {
            "inputs": [
                {
                    "internalType": "uint256",
                    "name": "tokenId",
                    "type": "uint256"
                }
            ],
            "name": "getApproved",
            "outputs": [
                {
                    "internalType": "address",
                    "name": "",
                    "type": "address"
                }
            ],
            "stateMutability": "view",
            "type": "function"
        },
        {
            "inputs": [
                {
                    "internalType": "address",
                    "name": "owner",
                    "type": "address"
                },
                {
                    "internalType": "address",
                    "name": "operator",
                    "type": "address"
                }
            ],
            "name": "isApprovedForAll",
            "outputs": [
                {
                    "internalType": "bool",
                    "name": "",
                    "type": "bool"
                }
            ],
            "stateMutability": "view",
            "type": "function"
        },
        {
            "inputs": [],
            "name": "listingFee",
            "outputs": [
                {
                    "internalType": "uint256",
                    "name": "",
                    "type": "uint256"
                }
            ],
            "stateMutability": "view",
            "type": "function"
        },
        {
            "inputs": [],
            "name": "mintContractAddress",
            "outputs": [
                {
                    "internalType": "address",
                    "name": "",
                    "type": "address"
                }
            ],
            "stateMutability": "view",
            "type": "function"
        },
        {
            "inputs": [],
            "name": "name",
            "outputs": [
                {
                    "internalType": "string",
                    "name": "",
                    "type": "string"
                }
            ],
            "stateMutability": "view",
            "type": "function"
        },
        {
            "inputs": [],
            "name": "nukeFundContract",
            "outputs": [
                {
                    "internalType": "contract INukeFund",
                    "name": "",
                    "type": "address"
                }
            ],
            "stateMutability": "view",
            "type": "function"
        },
        {
            "inputs": [],
            "name": "owner",
            "outputs": [
                {
                    "internalType": "address",
                    "name": "",
                    "type": "address"
                }
            ],
            "stateMutability": "view",
            "type": "function"
        },
        {
            "inputs": [
                {
                    "internalType": "uint256",
                    "name": "tokenId",
                    "type": "uint256"
                }
            ],
            "name": "ownerOf",
            "outputs": [
                {
                    "internalType": "address",
                    "name": "",
                    "type": "address"
                }
            ],
            "stateMutability": "view",
            "type": "function"
        },
        {
            "inputs": [],
            "name": "renounceOwnership",
            "outputs": [],
            "stateMutability": "nonpayable",
            "type": "function"
        },
        {
            "inputs": [
                {
                    "internalType": "address",
                    "name": "from",
                    "type": "address"
                },
                {
                    "internalType": "address",
                    "name": "to",
                    "type": "address"
                },
                {
                    "internalType": "uint256",
                    "name": "tokenId",
                    "type": "uint256"
                }
            ],
            "name": "safeTransferFrom",
            "outputs": [],
            "stateMutability": "nonpayable",
            "type": "function"
        },
        {
            "inputs": [
                {
                    "internalType": "address",
                    "name": "from",
                    "type": "address"
                },
                {
                    "internalType": "address",
                    "name": "to",
                    "type": "address"
                },
                {
                    "internalType": "uint256",
                    "name": "tokenId",
                    "type": "uint256"
                },
                {
                    "internalType": "bytes",
                    "name": "data",
                    "type": "bytes"
                }
            ],
            "name": "safeTransferFrom",
            "outputs": [],
            "stateMutability": "nonpayable",
            "type": "function"
        },
        {
            "inputs": [
                {
                    "internalType": "address",
                    "name": "operator",
                    "type": "address"
                },
                {
                    "internalType": "bool",
                    "name": "approved",
                    "type": "bool"
                }
            ],
            "name": "setApprovalForAll",
            "outputs": [],
            "stateMutability": "nonpayable",
            "type": "function"
        },
        {
            "inputs": [
                {
                    "internalType": "uint256",
                    "name": "tokenId",
                    "type": "uint256"
                },
                {
                    "internalType": "uint256",
                    "name": "fee",
                    "type": "uint256"
                }
            ],
            "name": "setBreedingFee",
            "outputs": [],
            "stateMutability": "nonpayable",
            "type": "function"
        },
        {
            "inputs": [],
            "name": "stopped",
            "outputs": [
                {
                    "internalType": "bool",
                    "name": "",
                    "type": "bool"
                }
            ],
            "stateMutability": "view",
            "type": "function"
        },
        {
            "inputs": [
                {
                    "internalType": "bytes4",
                    "name": "interfaceId",
                    "type": "bytes4"
                }
            ],
            "name": "supportsInterface",
            "outputs": [
                {
                    "internalType": "bool",
                    "name": "",
                    "type": "bool"
                }
            ],
            "stateMutability": "view",
            "type": "function"
        },
        {
            "inputs": [],
            "name": "symbol",
            "outputs": [
                {
                    "internalType": "string",
                    "name": "",
                    "type": "string"
                }
            ],
            "stateMutability": "view",
            "type": "function"
        },
        {
            "inputs": [],
            "name": "toggleCircuitbreaker",
            "outputs": [],
            "stateMutability": "nonpayable",
            "type": "function"
        },
        {
            "inputs": [
                {
                    "internalType": "uint256",
                    "name": "",
                    "type": "uint256"
                }
            ],
            "name": "tokenBreedingFees",
            "outputs": [
                {
                    "internalType": "uint256",
                    "name": "",
                    "type": "uint256"
                }
            ],
            "stateMutability": "view",
            "type": "function"
        },
        {
            "inputs": [
                {
                    "internalType": "uint256",
                    "name": "index",
                    "type": "uint256"
                }
            ],
            "name": "tokenByIndex",
            "outputs": [
                {
                    "internalType": "uint256",
                    "name": "",
                    "type": "uint256"
                }
            ],
            "stateMutability": "view",
            "type": "function"
        },
        {
            "inputs": [
                {
                    "internalType": "address",
                    "name": "owner",
                    "type": "address"
                },
                {
                    "internalType": "uint256",
                    "name": "index",
                    "type": "uint256"
                }
            ],
            "name": "tokenOfOwnerByIndex",
            "outputs": [
                {
                    "internalType": "uint256",
                    "name": "",
                    "type": "uint256"
                }
            ],
            "stateMutability": "view",
            "type": "function"
        },
        {
            "inputs": [
                {
                    "internalType": "uint256",
                    "name": "tokenId",
                    "type": "uint256"
                }
            ],
            "name": "tokenURI",
            "outputs": [
                {
                    "internalType": "string",
                    "name": "",
                    "type": "string"
                }
            ],
            "stateMutability": "view",
            "type": "function"
        },
        {
            "inputs": [],
            "name": "totalSupply",
            "outputs": [
                {
                    "internalType": "uint256",
                    "name": "",
                    "type": "uint256"
                }
            ],
            "stateMutability": "view",
            "type": "function"
        },
        {
            "inputs": [
                {
                    "internalType": "address",
                    "name": "from",
                    "type": "address"
                },
                {
                    "internalType": "address",
                    "name": "to",
                    "type": "address"
                },
                {
                    "internalType": "uint256",
                    "name": "tokenId",
                    "type": "uint256"
                }
            ],
            "name": "transferFrom",
            "outputs": [],
            "stateMutability": "nonpayable",
            "type": "function"
        },
        {
            "inputs": [
                {
                    "internalType": "address",
                    "name": "newOwner",
                    "type": "address"
                }
            ],
            "name": "transferOwnership",
            "outputs": [],
            "stateMutability": "nonpayable",
            "type": "function"
        }
    ],
    "bytecode": "0x60806040526000600b60146101000a81548160ff0219169083151502179055503480156200002c57600080fd5b50604051620047a2380380620047a283398181016040528101906200005291906200041b565b808484816000908162000066919062000716565b50806001908162000078919062000716565b5050506001600a81905550600073ffffffffffffffffffffffffffffffffffffffff168173ffffffffffffffffffffffffffffffffffffffff1603620000f85760006040517f1e4fbdf7000000000000000000000000000000000000000000000000000000008152600401620000ef91906200080e565b60405180910390fd5b62000109816200015d60201b60201c565b50600060148190555081600c60006101000a81548173ffffffffffffffffffffffffffffffffffffffff021916908373ffffffffffffffffffffffffffffffffffffffff160217905550505050506200082b565b6000600b60009054906101000a900473ffffffffffffffffffffffffffffffffffffffff16905081600b60006101000a81548173ffffffffffffffffffffffffffffffffffffffff021916908373ffffffffffffffffffffffffffffffffffffffff1602179055508173ffffffffffffffffffffffffffffffffffffffff168173ffffffffffffffffffffffffffffffffffffffff167f8be0079c531659141344cd1fd0a4f28419497f9722a3daafe3b4186f6b6457e060405160405180910390a35050565b6000604051905090565b600080fd5b600080fd5b600080fd5b600080fd5b6000601f19601f8301169050919050565b7f4e487b7100000000000000000000000000000000000000000000000000000000600052604160045260246000fd5b6200028c8262000241565b810181811067ffffffffffffffff82111715620002ae57620002ad62000252565b5b80604052505050565b6000620002c362000223565b9050620002d1828262000281565b919050565b600067ffffffffffffffff821115620002f457620002f362000252565b5b620002ff8262000241565b9050602081019050919050565b60005b838110156200032c5780820151818401526020810190506200030f565b60008484015250505050565b60006200034f6200034984620002d6565b620002b7565b9050828152602081018484840111156200036e576200036d6200023c565b5b6200037b8482856200030c565b509392505050565b600082601f8301126200039b576200039a62000237565b5b8151620003ad84826020860162000338565b91505092915050565b600073ffffffffffffffffffffffffffffffffffffffff82169050919050565b6000620003e382620003b6565b9050919050565b620003f581620003d6565b81146200040157600080fd5b50565b6000815190506200041581620003ea565b92915050565b600080600080608085870312156200043857620004376200022d565b5b600085015167ffffffffffffffff81111562000459576200045862000232565b5b620004678782880162000383565b945050602085015167ffffffffffffffff8111156200048b576200048a62000232565b5b620004998782880162000383565b9350506040620004ac8782880162000404565b9250506060620004bf8782880162000404565b91505092959194509250565b600081519050919050565b7f4e487b7100000000000000000000000000000000000000000000000000000000600052602260045260246000fd5b600060028204905060018216806200051e57607f821691505b602082108103620005345762000533620004d6565b5b50919050565b60008190508160005260206000209050919050565b60006020601f8301049050919050565b600082821b905092915050565b6000600883026200059e7fffffffffffffffffffffffffffffffffffffffffffffffffffffffffffffffff826200055f565b620005aa86836200055f565b95508019841693508086168417925050509392505050565b6000819050919050565b6000819050919050565b6000620005f7620005f1620005eb84620005c2565b620005cc565b620005c2565b9050919050565b6000819050919050565b6200061383620005d6565b6200062b6200062282620005fe565b8484546200056c565b825550505050565b600090565b6200064262000633565b6200064f81848462000608565b505050565b5b8181101562000677576200066b60008262000638565b60018101905062000655565b5050565b601f821115620006c65762000690816200053a565b6200069b846200054f565b81016020851015620006ab578190505b620006c3620006ba856200054f565b83018262000654565b50505b505050565b600082821c905092915050565b6000620006eb60001984600802620006cb565b1980831691505092915050565b6000620007068383620006d8565b9150826002028217905092915050565b6200072182620004cb565b67ffffffffffffffff8111156200073d576200073c62000252565b5b62000749825462000505565b620007568282856200067b565b600060209050601f8311600181146200078e576000841562000779578287015190505b620007858582620006f8565b865550620007f5565b601f1984166200079e866200053a565b60005b82811015620007c857848901518255600182019150602085019450602081019050620007a1565b86831015620007e85784890151620007e4601f891682620006d8565b8355505b6001600288020188555050505b505050505050565b6200080881620003d6565b82525050565b6000602082019050620008256000830184620007fd565b92915050565b613f67806200083b6000396000f3fe6080604052600436106101d85760003560e01c8063682dd59911610102578063a22cb46511610095578063c87b56dd11610064578063c87b56dd146106ea578063d9ecad7b14610727578063e985e9c514610743578063f2fde38b14610780576101d8565b8063a22cb46514610630578063b88d4fde14610659578063c69cd09d14610682578063c74851db146106ad576101d8565b806375f12b21116100d157806375f12b21146105845780638da5cb5b146105af57806395d89b41146105da5780639b34dbf114610605576101d8565b8063682dd599146104da5780636a1b7ecc1461050557806370a0823114610530578063715018a61461056d576101d8565b806323b872dd1161017a5780634f6ccce7116101495780634f6ccce7146103f65780634fbbedf7146104335780636331883b1461045c5780636352211e1461049d576101d8565b806323b872dd1461032a5780632f745c5914610353578063351f077a1461039057806342842e0e146103cd576101d8565b8063095ea7b3116101b6578063095ea7b3146102825780630ef69926146102ab5780631015baed146102e857806318160ddd146102ff576101d8565b806301ffc9a7146101dd57806306fdde031461021a578063081812fc14610245575b600080fd5b3480156101e957600080fd5b5061020460048036038101906101ff9190612f04565b6107a9565b6040516102119190612f4c565b60405180910390f35b34801561022657600080fd5b5061022f610823565b60405161023c9190612ff7565b60405180910390f35b34801561025157600080fd5b5061026c6004803603810190610267919061304f565b6108b5565b60405161027991906130bd565b60405180910390f35b34801561028e57600080fd5b506102a960048036038101906102a49190613104565b6108d1565b005b3480156102b757600080fd5b506102d260048036038101906102cd919061304f565b6108e7565b6040516102df9190613160565b60405180910390f35b3480156102f457600080fd5b506102fd610907565b005b34801561030b57600080fd5b5061031461093b565b604051610321919061318a565b60405180910390f35b34801561033657600080fd5b50610351600480360381019061034c91906131a5565b610948565b005b34801561035f57600080fd5b5061037a60048036038101906103759190613104565b610a4a565b604051610387919061318a565b60405180910390f35b34801561039c57600080fd5b506103b760048036038101906103b2919061304f565b610af3565b6040516103c4919061318a565b60405180910390f35b3480156103d957600080fd5b506103f460048036038101906103ef91906131a5565b610b0b565b005b34801561040257600080fd5b5061041d6004803603810190610418919061304f565b610b2b565b60405161042a919061318a565b60405180910390f35b34801561043f57600080fd5b5061045a600480360381019061045591906131f8565b610ba1565b005b34801561046857600080fd5b50610483600480360381019061047e919061304f565b610cae565b6040516104949594939291906132af565b60405180910390f35b3480156104a957600080fd5b506104c460048036038101906104bf919061304f565b610cf1565b6040516104d191906130bd565b60405180910390f35b3480156104e657600080fd5b506104ef610d03565b6040516104fc91906130bd565b60405180910390f35b34801561051157600080fd5b5061051a610d29565b604051610527919061318a565b60405180910390f35b34801561053c57600080fd5b5061055760048036038101906105529190613302565b610d2f565b604051610564919061318a565b60405180910390f35b34801561057957600080fd5b50610582610de9565b005b34801561059057600080fd5b50610599610dfd565b6040516105a69190612f4c565b60405180910390f35b3480156105bb57600080fd5b506105c4610e10565b6040516105d191906130bd565b60405180910390f35b3480156105e657600080fd5b506105ef610e3a565b6040516105fc9190612ff7565b60405180910390f35b34801561061157600080fd5b5061061a610ecc565b604051610627919061338e565b60405180910390f35b34801561063c57600080fd5b50610657600480360381019061065291906133d5565b610ef2565b005b34801561066557600080fd5b50610680600480360381019061067b919061354a565b610f08565b005b34801561068e57600080fd5b50610697610f25565b6040516106a4919061318a565b60405180910390f35b3480156106b957600080fd5b506106d460048036038101906106cf919061304f565b610f2b565b6040516106e1919061318a565b60405180910390f35b3480156106f657600080fd5b50610711600480360381019061070c919061304f565b610f43565b60405161071e9190612ff7565b60405180910390f35b610741600480360381019061073c91906131f8565b610fac565b005b34801561074f57600080fd5b5061076a600480360381019061076591906135cd565b611848565b6040516107779190612f4c565b60405180910390f35b34801561078c57600080fd5b506107a760048036038101906107a29190613302565b6118dc565b005b60007f780e9d63000000000000000000000000000000000000000000000000000000007bffffffffffffffffffffffffffffffffffffffffffffffffffffffff1916827bffffffffffffffffffffffffffffffffffffffffffffffffffffffff1916148061081c575061081b82611962565b5b9050919050565b6060600080546108329061363c565b80601f016020809104026020016040519081016040528092919081815260200182805461085e9061363c565b80156108ab5780601f10610880576101008083540402835291602001916108ab565b820191906000526020600020905b81548152906001019060200180831161088e57829003601f168201915b5050505050905090565b60006108c082611a44565b506108ca82611acc565b9050919050565b6108e382826108de611b09565b611b11565b5050565b600f6020528060005260406000206000915054906101000a900460ff1681565b61090f611b23565b600b60149054906101000a900460ff1615600b60146101000a81548160ff021916908315150217905550565b6000600880549050905090565b600073ffffffffffffffffffffffffffffffffffffffff168273ffffffffffffffffffffffffffffffffffffffff16036109ba5760006040517f64a0ae920000000000000000000000000000000000000000000000000000000081526004016109b191906130bd565b60405180910390fd5b60006109ce83836109c9611b09565b611baa565b90508373ffffffffffffffffffffffffffffffffffffffff168173ffffffffffffffffffffffffffffffffffffffff1614610a44578382826040517f64283d7b000000000000000000000000000000000000000000000000000000008152600401610a3b9392919061366d565b60405180910390fd5b50505050565b6000610a5583610d2f565b8210610a9a5782826040517fa57d13dc000000000000000000000000000000000000000000000000000000008152600401610a919291906136a4565b60405180910390fd5b600660008473ffffffffffffffffffffffffffffffffffffffff1673ffffffffffffffffffffffffffffffffffffffff168152602001908152602001600020600083815260200190815260200160002054905092915050565b60116020528060005260406000206000915090505481565b610b2683838360405180602001604052806000815250610f08565b505050565b6000610b3561093b565b8210610b7b576000826040517fa57d13dc000000000000000000000000000000000000000000000000000000008152600401610b729291906136a4565b60405180910390fd5b60088281548110610b8f57610b8e6136cd565b5b90600052602060002001549050919050565b3373ffffffffffffffffffffffffffffffffffffffff16610bc183610cf1565b73ffffffffffffffffffffffffffffffffffffffff1614610c17576040517f08c379a0000000000000000000000000000000000000000000000000000000008152600401610c0e9061376e565b60405180910390fd5b60008111610c5a576040517f08c379a0000000000000000000000000000000000000000000000000000000008152600401610c51906137da565b60405180910390fd5b806010600084815260200190815260200160002081905550817ff2590ee1f425f9525a0b836c6f781c1884e0af782e76c6d8a1e96f0cfc862c9582604051610ca2919061318a565b60405180910390a25050565b600e6020528060005260406000206000915090508060000160009054906101000a900460ff16908060010154908060020154908060030154908060040154905085565b6000610cfc82611a44565b9050919050565b600d60009054906101000a900473ffffffffffffffffffffffffffffffffffffffff1681565b60125481565b60008073ffffffffffffffffffffffffffffffffffffffff168273ffffffffffffffffffffffffffffffffffffffff1603610da25760006040517f89c62b64000000000000000000000000000000000000000000000000000000008152600401610d9991906130bd565b60405180910390fd5b600360008373ffffffffffffffffffffffffffffffffffffffff1673ffffffffffffffffffffffffffffffffffffffff168152602001908152602001600020549050919050565b610df1611b23565b610dfb6000611cc7565b565b600b60149054906101000a900460ff1681565b6000600b60009054906101000a900473ffffffffffffffffffffffffffffffffffffffff16905090565b606060018054610e499061363c565b80601f0160208091040260200160405190810160405280929190818152602001828054610e759061363c565b8015610ec25780601f10610e9757610100808354040283529160200191610ec2565b820191906000526020600020905b815481529060010190602001808311610ea557829003601f168201915b5050505050905090565b600c60009054906101000a900473ffffffffffffffffffffffffffffffffffffffff1681565b610f04610efd611b09565b8383611d8d565b5050565b610f13848484610948565b610f1f84848484611efc565b50505050565b60135481565b60106020528060005260406000206000915090505481565b6060610f4e82611a44565b506000610f596120b3565b90506000815111610f795760405180602001604052806000815250610fa4565b80610f83846120ca565b604051602001610f94929190613836565b6040516020818303038152906040525b915050919050565b600b60149054906101000a900460ff1615610ffc576040517f08c379a0000000000000000000000000000000000000000000000000000000008152600401610ff3906138a6565b60405180910390fd5b6013543414611040576040517f08c379a000000000000000000000000000000000000000000000000000000000815260040161103790613912565b60405180910390fd5b6000600181111561105457611053613238565b5b600e600084815260200190815260200160002060000160009054906101000a900460ff16600181111561108a57611089613238565b5b146110ca576040517f08c379a00000000000000000000000000000000000000000000000000000000081526004016110c19061397e565b60405180910390fd5b6001808111156110dd576110dc613238565b5b600e600083815260200190815260200160002060000160009054906101000a900460ff16600181111561111357611112613238565b5b14611153576040517f08c379a000000000000000000000000000000000000000000000000000000000815260040161114a906139ea565b60405180910390fd5b600e600083815260200190815260200160002060020154600f600084815260200190815260200160002060009054906101000a900460ff1660ff16106111ce576040517f08c379a00000000000000000000000000000000000000000000000000000000081526004016111c590613a56565b60405180910390fd5b600e600082815260200190815260200160002060020154600f600083815260200190815260200160002060009054906101000a900460ff1660ff1610611249576040517f08c379a000000000000000000000000000000000000000000000000000000000815260040161124090613ac2565b60405180910390fd5b600e600082815260200190815260200160002060040154600e600084815260200190815260200160002060040154146112b7576040517f08c379a00000000000000000000000000000000000000000000000000000000081526004016112ae90613b54565b60405180910390fd5b600060016112f1600e600086815260200190815260200160002060040154600e600086815260200190815260200160002060040154612198565b6112fb9190613ba3565b9050612710601160008381526020019081526020016000205410611354576040517f08c379a000000000000000000000000000000000000000000000000000000000815260040161134b90613c23565b60405180910390fd5b60006002600e600085815260200190815260200160002060010154600e6000878152602001908152602001600020600101546113909190613ba3565b61139a9190613c72565b905060006002600e600086815260200190815260200160002060020154600e6000888152602001908152602001600020600201546113d89190613ba3565b6113e29190613c72565b905060006064600a346113f59190613ca3565b6113ff9190613c72565b905060006064600a346114129190613ca3565b61141c9190613c72565b90506000818361142c9190613ba3565b346114379190613ce5565b9050600061144489610cf1565b9050600073ffffffffffffffffffffffffffffffffffffffff168173ffffffffffffffffffffffffffffffffffffffff16036114b5576040517f08c379a00000000000000000000000000000000000000000000000000000000081526004016114ac90613d65565b60405180910390fd5b8073ffffffffffffffffffffffffffffffffffffffff166108fc839081150290604051600060405180830381858888f193505050501580156114fb573d6000803e3d6000fd5b50611504610e10565b73ffffffffffffffffffffffffffffffffffffffff166108fc859081150290604051600060405180830381858888f19350505050158015611549573d6000803e3d6000fd5b50600c60009054906101000a900473ffffffffffffffffffffffffffffffffffffffff1673ffffffffffffffffffffffffffffffffffffffff1663d0e30db0846040518263ffffffff1660e01b81526004016000604051808303818588803b1580156115b457600080fd5b505af11580156115c8573d6000803e3d6000fd5b50505050503373ffffffffffffffffffffffffffffffffffffffff166108fc839081150290604051600060405180830381858888f19350505050158015611613573d6000803e3d6000fd5b50600f60008a8152602001908152602001600020600081819054906101000a900460ff168092919061164490613d85565b91906101000a81548160ff021916908360ff16021790555050600f6000898152602001908152602001600020600081819054906101000a900460ff168092919061168d90613d85565b91906101000a81548160ff021916908360ff160217905550506011600088815260200190815260200160002060008154809291906116ca90613dae565b9190505550600e600089815260200190815260200160002060020154600f60008a815260200190815260200160002060009054906101000a900460ff1660ff161061183d57611718886121b1565b7f5d18cd50cac87ffd50bc4e58b0b254aa3c1fa031640d344fc13de9d392199e9988604051611747919061318a565b60405180910390a16000611761601454600189898c612237565b90507f8ddc028a34ca99173b35c6465ece7644a61738cf88fb87de967f95213b3ae37d8189604051611794929190613df6565b60405180910390a1612710601160008a8152602001908152602001600020541061183b57600d60009054906101000a900473ffffffffffffffffffffffffffffffffffffffff1673ffffffffffffffffffffffffffffffffffffffff166359dabcd66040518163ffffffff1660e01b8152600401600060405180830381600087803b15801561182257600080fd5b505af1158015611836573d6000803e3d6000fd5b505050505b505b505050505050505050565b6000600560008473ffffffffffffffffffffffffffffffffffffffff1673ffffffffffffffffffffffffffffffffffffffff16815260200190815260200160002060008373ffffffffffffffffffffffffffffffffffffffff1673ffffffffffffffffffffffffffffffffffffffff16815260200190815260200160002060009054906101000a900460ff16905092915050565b6118e4611b23565b600073ffffffffffffffffffffffffffffffffffffffff168173ffffffffffffffffffffffffffffffffffffffff16036119565760006040517f1e4fbdf700000000000000000000000000000000000000000000000000000000815260040161194d91906130bd565b60405180910390fd5b61195f81611cc7565b50565b60007f80ac58cd000000000000000000000000000000000000000000000000000000007bffffffffffffffffffffffffffffffffffffffffffffffffffffffff1916827bffffffffffffffffffffffffffffffffffffffffffffffffffffffff19161480611a2d57507f5b5e139f000000000000000000000000000000000000000000000000000000007bffffffffffffffffffffffffffffffffffffffffffffffffffffffff1916827bffffffffffffffffffffffffffffffffffffffffffffffffffffffff1916145b80611a3d5750611a3c8261233b565b5b9050919050565b600080611a50836123a5565b9050600073ffffffffffffffffffffffffffffffffffffffff168173ffffffffffffffffffffffffffffffffffffffff1603611ac357826040517f7e273289000000000000000000000000000000000000000000000000000000008152600401611aba919061318a565b60405180910390fd5b80915050919050565b60006004600083815260200190815260200160002060009054906101000a900473ffffffffffffffffffffffffffffffffffffffff169050919050565b600033905090565b611b1e83838360016123e2565b505050565b611b2b611b09565b73ffffffffffffffffffffffffffffffffffffffff16611b49610e10565b73ffffffffffffffffffffffffffffffffffffffff1614611ba857611b6c611b09565b6040517f118cdaa7000000000000000000000000000000000000000000000000000000008152600401611b9f91906130bd565b60405180910390fd5b565b600080611bb88585856125a7565b9050600073ffffffffffffffffffffffffffffffffffffffff168173ffffffffffffffffffffffffffffffffffffffff1603611bfc57611bf7846127c1565b611c3b565b8473ffffffffffffffffffffffffffffffffffffffff168173ffffffffffffffffffffffffffffffffffffffff1614611c3a57611c39818561280a565b5b5b600073ffffffffffffffffffffffffffffffffffffffff168573ffffffffffffffffffffffffffffffffffffffff1603611c7d57611c788461296b565b611cbc565b8473ffffffffffffffffffffffffffffffffffffffff168173ffffffffffffffffffffffffffffffffffffffff1614611cbb57611cba8585612a3c565b5b5b809150509392505050565b6000600b60009054906101000a900473ffffffffffffffffffffffffffffffffffffffff16905081600b60006101000a81548173ffffffffffffffffffffffffffffffffffffffff021916908373ffffffffffffffffffffffffffffffffffffffff1602179055508173ffffffffffffffffffffffffffffffffffffffff168173ffffffffffffffffffffffffffffffffffffffff167f8be0079c531659141344cd1fd0a4f28419497f9722a3daafe3b4186f6b6457e060405160405180910390a35050565b600073ffffffffffffffffffffffffffffffffffffffff168273ffffffffffffffffffffffffffffffffffffffff1603611dfe57816040517f5b08ba18000000000000000000000000000000000000000000000000000000008152600401611df591906130bd565b60405180910390fd5b80600560008573ffffffffffffffffffffffffffffffffffffffff1673ffffffffffffffffffffffffffffffffffffffff16815260200190815260200160002060008473ffffffffffffffffffffffffffffffffffffffff1673ffffffffffffffffffffffffffffffffffffffff16815260200190815260200160002060006101000a81548160ff0219169083151502179055508173ffffffffffffffffffffffffffffffffffffffff168373ffffffffffffffffffffffffffffffffffffffff167f17307eab39ab6107e8899845ad3d59bd9653f200f220920489ca2b5937696c3183604051611eef9190612f4c565b60405180910390a3505050565b60008373ffffffffffffffffffffffffffffffffffffffff163b11156120ad578273ffffffffffffffffffffffffffffffffffffffff1663150b7a02611f40611b09565b8685856040518563ffffffff1660e01b8152600401611f629493929190613e74565b6020604051808303816000875af1925050508015611f9e57506040513d601f19601f82011682018060405250810190611f9b9190613ed5565b60015b612022573d8060008114611fce576040519150601f19603f3d011682016040523d82523d6000602084013e611fd3565b606091505b50600081510361201a57836040517f64a0ae9200000000000000000000000000000000000000000000000000000000815260040161201191906130bd565b60405180910390fd5b805181602001fd5b63150b7a0260e01b7bffffffffffffffffffffffffffffffffffffffffffffffffffffffff1916817bffffffffffffffffffffffffffffffffffffffffffffffffffffffff1916146120ab57836040517f64a0ae920000000000000000000000000000000000000000000000000000000081526004016120a291906130bd565b60405180910390fd5b505b50505050565b606060405180602001604052806000815250905090565b6060600060016120d984612ac7565b01905060008167ffffffffffffffff8111156120f8576120f761341f565b5b6040519080825280601f01601f19166020018201604052801561212a5781602001600182028036833780820191505090505b509050600082602001820190505b60011561218d578080600190039150507f3031323334353637383961626364656600000000000000000000000000000000600a86061a8153600a858161218157612180613c43565b5b04945060008503612138575b819350505050919050565b60008183116121a757816121a9565b825b905092915050565b60006121c06000836000611baa565b9050600073ffffffffffffffffffffffffffffffffffffffff168173ffffffffffffffffffffffffffffffffffffffff160361223357816040517f7e27328900000000000000000000000000000000000000000000000000000000815260040161222a919061318a565b60405180910390fd5b5050565b60006040518060a0016040528086600181111561225757612256613238565b5b815260200185815260200184815260200143815260200183815250600e600088815260200190815260200160002060008201518160000160006101000a81548160ff021916908360018111156122b0576122af613238565b5b0217905550602082015181600101556040820151816002015560608201518160030155608082015181600401559050506000600f600088815260200190815260200160002060006101000a81548160ff021916908360ff1602179055506123173387612c1a565b6014600081548092919061232a90613dae565b919050555085905095945050505050565b60007f01ffc9a7000000000000000000000000000000000000000000000000000000007bffffffffffffffffffffffffffffffffffffffffffffffffffffffff1916827bffffffffffffffffffffffffffffffffffffffffffffffffffffffff1916149050919050565b60006002600083815260200190815260200160002060009054906101000a900473ffffffffffffffffffffffffffffffffffffffff169050919050565b808061241b5750600073ffffffffffffffffffffffffffffffffffffffff168273ffffffffffffffffffffffffffffffffffffffff1614155b1561254f57600061242b84611a44565b9050600073ffffffffffffffffffffffffffffffffffffffff168373ffffffffffffffffffffffffffffffffffffffff161415801561249657508273ffffffffffffffffffffffffffffffffffffffff168173ffffffffffffffffffffffffffffffffffffffff1614155b80156124a957506124a78184611848565b155b156124eb57826040517fa9fbf51f0000000000000000000000000000000000000000000000000000000081526004016124e291906130bd565b60405180910390fd5b811561254d57838573ffffffffffffffffffffffffffffffffffffffff168273ffffffffffffffffffffffffffffffffffffffff167f8c5be1e5ebec7d5bd14f71427d1e84f3dd0314c0f7b2291e5b200ac8c7c3b92560405160405180910390a45b505b836004600085815260200190815260200160002060006101000a81548173ffffffffffffffffffffffffffffffffffffffff021916908373ffffffffffffffffffffffffffffffffffffffff16021790555050505050565b6000806125b3846123a5565b9050600073ffffffffffffffffffffffffffffffffffffffff168373ffffffffffffffffffffffffffffffffffffffff16146125f5576125f4818486612d13565b5b600073ffffffffffffffffffffffffffffffffffffffff168173ffffffffffffffffffffffffffffffffffffffff1614612686576126376000856000806123e2565b6001600360008373ffffffffffffffffffffffffffffffffffffffff1673ffffffffffffffffffffffffffffffffffffffff168152602001908152602001600020600082825403925050819055505b600073ffffffffffffffffffffffffffffffffffffffff168573ffffffffffffffffffffffffffffffffffffffff1614612709576001600360008773ffffffffffffffffffffffffffffffffffffffff1673ffffffffffffffffffffffffffffffffffffffff168152602001908152602001600020600082825401925050819055505b846002600086815260200190815260200160002060006101000a81548173ffffffffffffffffffffffffffffffffffffffff021916908373ffffffffffffffffffffffffffffffffffffffff160217905550838573ffffffffffffffffffffffffffffffffffffffff168273ffffffffffffffffffffffffffffffffffffffff167fddf252ad1be2c89b69c2b068fc378daa952ba7f163c4a11628f55a4df523b3ef60405160405180910390a4809150509392505050565b6008805490506009600083815260200190815260200160002081905550600881908060018154018082558091505060019003906000526020600020016000909190919091505550565b600061281583610d2f565b90506000600760008481526020019081526020016000205490508181146128fa576000600660008673ffffffffffffffffffffffffffffffffffffffff1673ffffffffffffffffffffffffffffffffffffffff168152602001908152602001600020600084815260200190815260200160002054905080600660008773ffffffffffffffffffffffffffffffffffffffff1673ffffffffffffffffffffffffffffffffffffffff168152602001908152602001600020600084815260200190815260200160002081905550816007600083815260200190815260200160002081905550505b6007600084815260200190815260200160002060009055600660008573ffffffffffffffffffffffffffffffffffffffff1673ffffffffffffffffffffffffffffffffffffffff16815260200190815260200160002060008381526020019081526020016000206000905550505050565b6000600160088054905061297f9190613ce5565b90506000600960008481526020019081526020016000205490506000600883815481106129af576129ae6136cd565b5b9060005260206000200154905080600883815481106129d1576129d06136cd565b5b906000526020600020018190555081600960008381526020019081526020016000208190555060096000858152602001908152602001600020600090556008805480612a2057612a1f613f02565b5b6001900381819060005260206000200160009055905550505050565b60006001612a4984610d2f565b612a539190613ce5565b905081600660008573ffffffffffffffffffffffffffffffffffffffff1673ffffffffffffffffffffffffffffffffffffffff168152602001908152602001600020600083815260200190815260200160002081905550806007600084815260200190815260200160002081905550505050565b600080600090507a184f03e93ff9f4daa797ed6e38ed64bf6a1f0100000000000000008310612b25577a184f03e93ff9f4daa797ed6e38ed64bf6a1f0100000000000000008381612b1b57612b1a613c43565b5b0492506040810190505b6d04ee2d6d415b85acef81000000008310612b62576d04ee2d6d415b85acef81000000008381612b5857612b57613c43565b5b0492506020810190505b662386f26fc100008310612b9157662386f26fc100008381612b8757612b86613c43565b5b0492506010810190505b6305f5e1008310612bba576305f5e1008381612bb057612baf613c43565b5b0492506008810190505b6127108310612bdf576127108381612bd557612bd4613c43565b5b0492506004810190505b60648310612c025760648381612bf857612bf7613c43565b5b0492506002810190505b600a8310612c11576001810190505b80915050919050565b600073ffffffffffffffffffffffffffffffffffffffff168273ffffffffffffffffffffffffffffffffffffffff1603612c8c5760006040517f64a0ae92000000000000000000000000000000000000000000000000000000008152600401612c8391906130bd565b60405180910390fd5b6000612c9a83836000611baa565b9050600073ffffffffffffffffffffffffffffffffffffffff168173ffffffffffffffffffffffffffffffffffffffff1614612d0e5760006040517f73c6ac6e000000000000000000000000000000000000000000000000000000008152600401612d0591906130bd565b60405180910390fd5b505050565b612d1e838383612dd7565b612dd257600073ffffffffffffffffffffffffffffffffffffffff168373ffffffffffffffffffffffffffffffffffffffff1603612d9357806040517f7e273289000000000000000000000000000000000000000000000000000000008152600401612d8a919061318a565b60405180910390fd5b81816040517f177e802f000000000000000000000000000000000000000000000000000000008152600401612dc99291906136a4565b60405180910390fd5b505050565b60008073ffffffffffffffffffffffffffffffffffffffff168373ffffffffffffffffffffffffffffffffffffffff1614158015612e8f57508273ffffffffffffffffffffffffffffffffffffffff168473ffffffffffffffffffffffffffffffffffffffff161480612e505750612e4f8484611848565b5b80612e8e57508273ffffffffffffffffffffffffffffffffffffffff16612e7683611acc565b73ffffffffffffffffffffffffffffffffffffffff16145b5b90509392505050565b6000604051905090565b600080fd5b600080fd5b60007fffffffff0000000000000000000000000000000000000000000000000000000082169050919050565b612ee181612eac565b8114612eec57600080fd5b50565b600081359050612efe81612ed8565b92915050565b600060208284031215612f1a57612f19612ea2565b5b6000612f2884828501612eef565b91505092915050565b60008115159050919050565b612f4681612f31565b82525050565b6000602082019050612f616000830184612f3d565b92915050565b600081519050919050565b600082825260208201905092915050565b60005b83811015612fa1578082015181840152602081019050612f86565b60008484015250505050565b6000601f19601f8301169050919050565b6000612fc982612f67565b612fd38185612f72565b9350612fe3818560208601612f83565b612fec81612fad565b840191505092915050565b600060208201905081810360008301526130118184612fbe565b905092915050565b6000819050919050565b61302c81613019565b811461303757600080fd5b50565b60008135905061304981613023565b92915050565b60006020828403121561306557613064612ea2565b5b60006130738482850161303a565b91505092915050565b600073ffffffffffffffffffffffffffffffffffffffff82169050919050565b60006130a78261307c565b9050919050565b6130b78161309c565b82525050565b60006020820190506130d260008301846130ae565b92915050565b6130e18161309c565b81146130ec57600080fd5b50565b6000813590506130fe816130d8565b92915050565b6000806040838503121561311b5761311a612ea2565b5b6000613129858286016130ef565b925050602061313a8582860161303a565b9150509250929050565b600060ff82169050919050565b61315a81613144565b82525050565b60006020820190506131756000830184613151565b92915050565b61318481613019565b82525050565b600060208201905061319f600083018461317b565b92915050565b6000806000606084860312156131be576131bd612ea2565b5b60006131cc868287016130ef565b93505060206131dd868287016130ef565b92505060406131ee8682870161303a565b9150509250925092565b6000806040838503121561320f5761320e612ea2565b5b600061321d8582860161303a565b925050602061322e8582860161303a565b9150509250929050565b7f4e487b7100000000000000000000000000000000000000000000000000000000600052602160045260246000fd5b6002811061327857613277613238565b5b50565b600081905061328982613267565b919050565b60006132998261327b565b9050919050565b6132a98161328e565b82525050565b600060a0820190506132c460008301886132a0565b6132d1602083018761317b565b6132de604083018661317b565b6132eb606083018561317b565b6132f8608083018461317b565b9695505050505050565b60006020828403121561331857613317612ea2565b5b6000613326848285016130ef565b91505092915050565b6000819050919050565b600061335461334f61334a8461307c565b61332f565b61307c565b9050919050565b600061336682613339565b9050919050565b60006133788261335b565b9050919050565b6133888161336d565b82525050565b60006020820190506133a3600083018461337f565b92915050565b6133b281612f31565b81146133bd57600080fd5b50565b6000813590506133cf816133a9565b92915050565b600080604083850312156133ec576133eb612ea2565b5b60006133fa858286016130ef565b925050602061340b858286016133c0565b9150509250929050565b600080fd5b600080fd5b7f4e487b7100000000000000000000000000000000000000000000000000000000600052604160045260246000fd5b61345782612fad565b810181811067ffffffffffffffff821117156134765761347561341f565b5b80604052505050565b6000613489612e98565b9050613495828261344e565b919050565b600067ffffffffffffffff8211156134b5576134b461341f565b5b6134be82612fad565b9050602081019050919050565b82818337600083830152505050565b60006134ed6134e88461349a565b61347f565b9050828152602081018484840111156135095761350861341a565b5b6135148482856134cb565b509392505050565b600082601f83011261353157613530613415565b5b81356135418482602086016134da565b91505092915050565b6000806000806080858703121561356457613563612ea2565b5b6000613572878288016130ef565b9450506020613583878288016130ef565b93505060406135948782880161303a565b925050606085013567ffffffffffffffff8111156135b5576135b4612ea7565b5b6135c18782880161351c565b91505092959194509250565b600080604083850312156135e4576135e3612ea2565b5b60006135f2858286016130ef565b9250506020613603858286016130ef565b9150509250929050565b7f4e487b7100000000000000000000000000000000000000000000000000000000600052602260045260246000fd5b6000600282049050600182168061365457607f821691505b6020821081036136675761366661360d565b5b50919050565b600060608201905061368260008301866130ae565b61368f602083018561317b565b61369c60408301846130ae565b949350505050565b60006040820190506136b960008301856130ae565b6136c6602083018461317b565b9392505050565b7f4e487b7100000000000000000000000000000000000000000000000000000000600052603260045260246000fd5b7f4f6e6c7920746f6b656e206f776e65722063616e20736574206272656564696e60008201527f6720666565000000000000000000000000000000000000000000000000000000602082015250565b6000613758602583612f72565b9150613763826136fc565b604082019050919050565b600060208201905081810360008301526137878161374b565b9050919050565b7f466565206d7573742062652067726561746572207468616e2030000000000000600082015250565b60006137c4601a83612f72565b91506137cf8261378e565b602082019050919050565b600060208201905081810360008301526137f3816137b7565b9050919050565b600081905092915050565b600061381082612f67565b61381a81856137fa565b935061382a818560208601612f83565b80840191505092915050565b60006138428285613805565b915061384e8284613805565b91508190509392505050565b7f436f6e74726163742069732073746f7070656400000000000000000000000000600082015250565b6000613890601383612f72565b915061389b8261385a565b602082019050919050565b600060208201905081810360008301526138bf81613883565b9050919050565b7f496e636f7272656374206272656564696e672066656500000000000000000000600082015250565b60006138fc601683612f72565b9150613907826138c6565b602082019050919050565b6000602082019050818103600083015261392b816138ef565b9050919050565b7f4e6f742061207369726500000000000000000000000000000000000000000000600082015250565b6000613968600a83612f72565b915061397382613932565b602082019050919050565b600060208201905081810360008301526139978161395b565b9050919050565b7f4e6f742061206272656564657200000000000000000000000000000000000000600082015250565b60006139d4600d83612f72565b91506139df8261399e565b602082019050919050565b60006020820190508181036000830152613a03816139c7565b9050919050565b7f5369726520627265656420706f74656e7469616c207265616368656400000000600082015250565b6000613a40601c83612f72565b9150613a4b82613a0a565b602082019050919050565b60006020820190508181036000830152613a6f81613a33565b9050919050565b7f4272656564657220627265656420706f74656e7469616c207265616368656400600082015250565b6000613aac601f83612f72565b9150613ab782613a76565b602082019050919050565b60006020820190508181036000830152613adb81613a9f565b9050919050565b7f546f6b656e73206d757374206265207468652073616d652067656e657261746960008201527f6f6e000000000000000000000000000000000000000000000000000000000000602082015250565b6000613b3e602283612f72565b9150613b4982613ae2565b604082019050919050565b60006020820190508181036000830152613b6d81613b31565b9050919050565b7f4e487b7100000000000000000000000000000000000000000000000000000000600052601160045260246000fd5b6000613bae82613019565b9150613bb983613019565b9250828201905080821115613bd157613bd0613b74565b5b92915050565b7f47656e65726174696f6e20636170207265616368656400000000000000000000600082015250565b6000613c0d601683612f72565b9150613c1882613bd7565b602082019050919050565b60006020820190508181036000830152613c3c81613c00565b9050919050565b7f4e487b7100000000000000000000000000000000000000000000000000000000600052601260045260246000fd5b6000613c7d82613019565b9150613c8883613019565b925082613c9857613c97613c43565b5b828204905092915050565b6000613cae82613019565b9150613cb983613019565b9250828202613cc781613019565b91508282048414831517613cde57613cdd613b74565b5b5092915050565b6000613cf082613019565b9150613cfb83613019565b9250828203905081811115613d1357613d12613b74565b5b92915050565b7f53697265206f776e657220697320696e76616c69640000000000000000000000600082015250565b6000613d4f601583612f72565b9150613d5a82613d19565b602082019050919050565b60006020820190508181036000830152613d7e81613d42565b9050919050565b6000613d9082613144565b915060ff8203613da357613da2613b74565b5b600182019050919050565b6000613db982613019565b91507fffffffffffffffffffffffffffffffffffffffffffffffffffffffffffffffff8203613deb57613dea613b74565b5b600182019050919050565b6000604082019050613e0b600083018561317b565b613e18602083018461317b565b9392505050565b600081519050919050565b600082825260208201905092915050565b6000613e4682613e1f565b613e508185613e2a565b9350613e60818560208601612f83565b613e6981612fad565b840191505092915050565b6000608082019050613e8960008301876130ae565b613e9660208301866130ae565b613ea3604083018561317b565b8181036060830152613eb58184613e3b565b905095945050505050565b600081519050613ecf81612ed8565b92915050565b600060208284031215613eeb57613eea612ea2565b5b6000613ef984828501613ec0565b91505092915050565b7f4e487b7100000000000000000000000000000000000000000000000000000000600052603160045260246000fdfea26469706673582212209e69a8433dbfb48bcb6327a1ca77782f7287a4e3f3fcf40ba58e6b88ed32680e64736f6c63430008140033",
    "linkReferences": {},
    "deployedLinkReferences": {}
}