{
    "_format": "hh-sol-artifact-1",
    "contractName": "EntityTrading",
    "sourceName": "contracts/TradeEntities.sol",
    "abi": [
        {
            "inputs": [
                {
                    "internalType": "address",
                    "name": "_entityContractAddress",
                    "type": "address"
                },
                {
                    "internalType": "address",
                    "name": "_nukeFundAddress",
                    "type": "address"
                },
                {
                    "internalType": "address",
                    "name": "_initialOwner",
                    "type": "address"
                }
            ],
            "stateMutability": "nonpayable",
            "type": "constructor"
        },
        {
            "inputs": [
                {
                    "internalType": "address",
                    "name": "owner",
                    "type": "address"
                }
            ],
            "name": "OwnableInvalidOwner",
            "type": "error"
        },
        {
            "inputs": [
                {
                    "internalType": "address",
                    "name": "account",
                    "type": "address"
                }
            ],
            "name": "OwnableUnauthorizedAccount",
            "type": "error"
        },
        {
            "inputs": [],
            "name": "ReentrancyGuardReentrantCall",
            "type": "error"
        },
        {
            "anonymous": false,
            "inputs": [
                {
                    "indexed": false,
                    "internalType": "bool",
                    "name": "isStopped",
                    "type": "bool"
                }
            ],
            "name": "EmergencyStopToggled",
            "type": "event"
        },
        {
            "anonymous": false,
            "inputs": [
                {
                    "indexed": true,
                    "internalType": "uint256",
                    "name": "tokenId",
                    "type": "uint256"
                },
                {
                    "indexed": true,
                    "internalType": "address",
                    "name": "seller",
                    "type": "address"
                },
                {
                    "indexed": false,
                    "internalType": "uint256",
                    "name": "price",
                    "type": "uint256"
                }
            ],
            "name": "EntityListed",
            "type": "event"
        },
        {
            "anonymous": false,
            "inputs": [
                {
                    "indexed": true,
                    "internalType": "uint256",
                    "name": "tokenId",
                    "type": "uint256"
                },
                {
                    "indexed": true,
                    "internalType": "address",
                    "name": "seller",
                    "type": "address"
                },
                {
                    "indexed": true,
                    "internalType": "address",
                    "name": "buyer",
                    "type": "address"
                },
                {
                    "indexed": false,
                    "internalType": "uint256",
                    "name": "price",
                    "type": "uint256"
                }
            ],
            "name": "EntitySold",
            "type": "event"
        },
        {
            "anonymous": false,
            "inputs": [
                {
                    "indexed": true,
                    "internalType": "uint256",
                    "name": "tokenId",
                    "type": "uint256"
                }
            ],
            "name": "ListingCancelled",
            "type": "event"
        },
        {
            "anonymous": false,
            "inputs": [
                {
                    "indexed": true,
                    "internalType": "address",
                    "name": "previousOwner",
                    "type": "address"
                }
            ],
            "name": "OwnershipRenounced",
            "type": "event"
        },
        {
            "anonymous": false,
            "inputs": [
                {
                    "indexed": true,
                    "internalType": "address",
                    "name": "from",
                    "type": "address"
                },
                {
                    "indexed": true,
                    "internalType": "address",
                    "name": "to",
                    "type": "address"
                }
            ],
            "name": "OwnershipTransferAttempted",
            "type": "event"
        },
        {
            "anonymous": false,
            "inputs": [
                {
                    "indexed": true,
                    "internalType": "address",
                    "name": "previousOwner",
                    "type": "address"
                },
                {
                    "indexed": true,
                    "internalType": "address",
                    "name": "newOwner",
                    "type": "address"
                }
            ],
            "name": "OwnershipTransferred",
            "type": "event"
        },
        {
            "inputs": [],
            "name": "DEV_SHARE_PERCENTAGE",
            "outputs": [
                {
                    "internalType": "uint256",
                    "name": "",
                    "type": "uint256"
                }
            ],
            "stateMutability": "view",
            "type": "function"
        },
        {
            "inputs": [],
            "name": "NUKEFUND_SHARE_PERCENTAGE",
            "outputs": [
                {
                    "internalType": "uint256",
                    "name": "",
                    "type": "uint256"
                }
            ],
            "stateMutability": "view",
            "type": "function"
        },
        {
            "inputs": [
                {
                    "internalType": "uint256",
                    "name": "tokenId",
                    "type": "uint256"
                }
            ],
            "name": "buyEntity",
            "outputs": [],
            "stateMutability": "payable",
            "type": "function"
        },
        {
            "inputs": [
                {
                    "internalType": "uint256",
                    "name": "tokenId",
                    "type": "uint256"
                }
            ],
            "name": "cancelListing",
            "outputs": [],
            "stateMutability": "nonpayable",
            "type": "function"
        },
        {
            "inputs": [],
            "name": "entityContract",
            "outputs": [
                {
                    "internalType": "contract IERC721",
                    "name": "",
                    "type": "address"
                }
            ],
            "stateMutability": "view",
            "type": "function"
        },
        {
            "inputs": [
                {
                    "internalType": "uint256",
                    "name": "tokenId",
                    "type": "uint256"
                },
                {
                    "internalType": "uint256",
                    "name": "price",
                    "type": "uint256"
                }
            ],
            "name": "listEntityForSale",
            "outputs": [],
            "stateMutability": "nonpayable",
            "type": "function"
        },
        {
            "inputs": [
                {
                    "internalType": "uint256",
                    "name": "",
                    "type": "uint256"
                }
            ],
            "name": "listings",
            "outputs": [
                {
                    "internalType": "address",
                    "name": "seller",
                    "type": "address"
                },
                {
                    "internalType": "uint256",
                    "name": "price",
                    "type": "uint256"
                },
                {
                    "internalType": "bool",
                    "name": "isActive",
                    "type": "bool"
                }
            ],
            "stateMutability": "view",
            "type": "function"
        },
        {
            "inputs": [],
            "name": "nukeFundAddress",
            "outputs": [
                {
                    "internalType": "address",
                    "name": "",
                    "type": "address"
                }
            ],
            "stateMutability": "view",
            "type": "function"
        },
        {
            "inputs": [],
            "name": "owner",
            "outputs": [
                {
                    "internalType": "address",
                    "name": "",
                    "type": "address"
                }
            ],
            "stateMutability": "view",
            "type": "function"
        },
        {
            "inputs": [],
            "name": "renounceOwnership",
            "outputs": [],
            "stateMutability": "nonpayable",
            "type": "function"
        },
        {
            "inputs": [],
            "name": "stopped",
            "outputs": [
                {
                    "internalType": "bool",
                    "name": "",
                    "type": "bool"
                }
            ],
            "stateMutability": "view",
            "type": "function"
        },
        {
            "inputs": [],
            "name": "toggleCircuitbreaker",
            "outputs": [],
            "stateMutability": "nonpayable",
            "type": "function"
        },
        {
            "inputs": [
                {
                    "internalType": "address",
                    "name": "newOwner",
                    "type": "address"
                }
            ],
            "name": "transferOwnership",
            "outputs": [],
            "stateMutability": "nonpayable",
            "type": "function"
        }
    ],
    "bytecode": "0x60806040526000600160146101000a81548160ff0219169083151502179055503480156200002c57600080fd5b5060405162001c5438038062001c5483398181016040528101906200005291906200029d565b806001600081905550600073ffffffffffffffffffffffffffffffffffffffff168173ffffffffffffffffffffffffffffffffffffffff1603620000d05760006040517f1e4fbdf7000000000000000000000000000000000000000000000000000000008152600401620000c791906200030a565b60405180910390fd5b620000e1816200016d60201b60201c565b5082600260006101000a81548173ffffffffffffffffffffffffffffffffffffffff021916908373ffffffffffffffffffffffffffffffffffffffff16021790555081600360006101000a81548173ffffffffffffffffffffffffffffffffffffffff021916908373ffffffffffffffffffffffffffffffffffffffff16021790555050505062000327565b6000600160009054906101000a900473ffffffffffffffffffffffffffffffffffffffff16905081600160006101000a81548173ffffffffffffffffffffffffffffffffffffffff021916908373ffffffffffffffffffffffffffffffffffffffff1602179055508173ffffffffffffffffffffffffffffffffffffffff168173ffffffffffffffffffffffffffffffffffffffff167f8be0079c531659141344cd1fd0a4f28419497f9722a3daafe3b4186f6b6457e060405160405180910390a35050565b600080fd5b600073ffffffffffffffffffffffffffffffffffffffff82169050919050565b6000620002658262000238565b9050919050565b620002778162000258565b81146200028357600080fd5b50565b60008151905062000297816200026c565b92915050565b600080600060608486031215620002b957620002b862000233565b5b6000620002c98682870162000286565b9350506020620002dc8682870162000286565b9250506040620002ef8682870162000286565b9150509250925092565b620003048162000258565b82525050565b6000602082019050620003216000830184620002f9565b92915050565b61191d80620003376000396000f3fe6080604052600436106100c25760003560e01c806375f12b211161007f578063dc771a4111610059578063dc771a411461020f578063de74e57b1461023a578063ee9151ae14610279578063f2fde38b146102a4576100c2565b806375f12b211461019057806385e62daf146101bb5780638da5cb5b146101e4576100c2565b8063014f875b146100c75780631015baed146100f257806325e4d7af14610109578063305a67a8146101255780635d5f3c1d1461014e578063715018a614610179575b600080fd5b3480156100d357600080fd5b506100dc6102cd565b6040516100e991906111db565b60405180910390f35b3480156100fe57600080fd5b506101076102d2565b005b610123600480360381019061011e9190611227565b610306565b005b34801561013157600080fd5b5061014c60048036038101906101479190611227565b61073a565b005b34801561015a57600080fd5b50610163610a48565b60405161017091906111db565b60405180910390f35b34801561018557600080fd5b5061018e610a4d565b005b34801561019c57600080fd5b506101a5610a61565b6040516101b2919061126f565b60405180910390f35b3480156101c757600080fd5b506101e260048036038101906101dd919061128a565b610a74565b005b3480156101f057600080fd5b506101f9610d7c565b604051610206919061130b565b60405180910390f35b34801561021b57600080fd5b50610224610da6565b6040516102319190611385565b60405180910390f35b34801561024657600080fd5b50610261600480360381019061025c9190611227565b610dcc565b604051610270939291906113a0565b60405180910390f35b34801561028557600080fd5b5061028e610e23565b60405161029b919061130b565b60405180910390f35b3480156102b057600080fd5b506102cb60048036038101906102c69190611403565b610e49565b005b600a81565b6102da610ecf565b600160149054906101000a900460ff1615600160146101000a81548160ff021916908315150217905550565b61030e610f56565b600160149054906101000a900460ff161561035e576040517f08c379a00000000000000000000000000000000000000000000000000000000081526004016103559061148d565b60405180910390fd5b6000600460008381526020019081526020016000206040518060600160405290816000820160009054906101000a900473ffffffffffffffffffffffffffffffffffffffff1673ffffffffffffffffffffffffffffffffffffffff1673ffffffffffffffffffffffffffffffffffffffff168152602001600182015481526020016002820160009054906101000a900460ff1615151515815250509050806040015161043f576040517f08c379a0000000000000000000000000000000000000000000000000000000008152600401610436906114f9565b60405180910390fd5b8060200151341015610486576040517f08c379a000000000000000000000000000000000000000000000000000000000815260040161047d90611565565b60405180910390fd5b60006064600a836020015161049b91906115b4565b6104a59190611625565b905060006064600a84602001516104bc91906115b4565b6104c69190611625565b9050600081836104d69190611656565b84602001516104e5919061168a565b90506104f082610f9c565b6104f983611099565b836000015173ffffffffffffffffffffffffffffffffffffffff166108fc829081150290604051600060405180830381858888f19350505050158015610543573d6000803e3d6000fd5b506000846040019015159081151581525050836004600087815260200190815260200160002060008201518160000160006101000a81548173ffffffffffffffffffffffffffffffffffffffff021916908373ffffffffffffffffffffffffffffffffffffffff1602179055506020820151816001015560408201518160020160006101000a81548160ff021916908315150217905550905050600260009054906101000a900473ffffffffffffffffffffffffffffffffffffffff1673ffffffffffffffffffffffffffffffffffffffff166323b872dd3033886040518463ffffffff1660e01b815260040161063c939291906116be565b600060405180830381600087803b15801561065657600080fd5b505af115801561066a573d6000803e3d6000fd5b50505050836000015173ffffffffffffffffffffffffffffffffffffffff166108fc85602001519081150290604051600060405180830381858888f193505050501580156106bc573d6000803e3d6000fd5b503373ffffffffffffffffffffffffffffffffffffffff16846000015173ffffffffffffffffffffffffffffffffffffffff16867f59fd9d9d6fb9c71bc542796f8fd679606a4754502ca0a027e35fce1abb9943a4876020015160405161072391906111db565b60405180910390a4505050506107376110ea565b50565b610742610f56565b600160149054906101000a900460ff1615610792576040517f08c379a00000000000000000000000000000000000000000000000000000000081526004016107899061148d565b60405180910390fd5b6000600460008381526020019081526020016000206040518060600160405290816000820160009054906101000a900473ffffffffffffffffffffffffffffffffffffffff1673ffffffffffffffffffffffffffffffffffffffff1673ffffffffffffffffffffffffffffffffffffffff168152602001600182015481526020016002820160009054906101000a900460ff16151515158152505090503373ffffffffffffffffffffffffffffffffffffffff16816000015173ffffffffffffffffffffffffffffffffffffffff16146108a1576040517f08c379a000000000000000000000000000000000000000000000000000000000815260040161089890611741565b60405180910390fd5b80604001516108e5576040517f08c379a00000000000000000000000000000000000000000000000000000000081526004016108dc906117ad565b60405180910390fd5b6000816040019015159081151581525050806004600084815260200190815260200160002060008201518160000160006101000a81548173ffffffffffffffffffffffffffffffffffffffff021916908373ffffffffffffffffffffffffffffffffffffffff1602179055506020820151816001015560408201518160020160006101000a81548160ff021916908315150217905550905050600260009054906101000a900473ffffffffffffffffffffffffffffffffffffffff1673ffffffffffffffffffffffffffffffffffffffff166323b872dd3033856040518463ffffffff1660e01b81526004016109dd939291906116be565b600060405180830381600087803b1580156109f757600080fd5b505af1158015610a0b573d6000803e3d6000fd5b50505050817f411aee90354c51b1b04cd563fcab2617142a9d50da19232d888547c8a1b7fd8a60405160405180910390a250610a456110ea565b50565b600a81565b610a55610ecf565b610a5f60006110f4565b565b600160149054906101000a900460ff1681565b610a7c610f56565b600160149054906101000a900460ff1615610acc576040517f08c379a0000000000000000000000000000000000000000000000000000000008152600401610ac39061148d565b60405180910390fd5b3373ffffffffffffffffffffffffffffffffffffffff16600260009054906101000a900473ffffffffffffffffffffffffffffffffffffffff1673ffffffffffffffffffffffffffffffffffffffff16636352211e846040518263ffffffff1660e01b8152600401610b3e91906111db565b602060405180830381865afa158015610b5b573d6000803e3d6000fd5b505050506040513d601f19601f82011682018060405250810190610b7f91906117e2565b73ffffffffffffffffffffffffffffffffffffffff1614610bd5576040517f08c379a0000000000000000000000000000000000000000000000000000000008152600401610bcc9061185b565b60405180910390fd5b600260009054906101000a900473ffffffffffffffffffffffffffffffffffffffff1673ffffffffffffffffffffffffffffffffffffffff166323b872dd3330856040518463ffffffff1660e01b8152600401610c34939291906116be565b600060405180830381600087803b158015610c4e57600080fd5b505af1158015610c62573d6000803e3d6000fd5b5050505060405180606001604052803373ffffffffffffffffffffffffffffffffffffffff168152602001828152602001600115158152506004600084815260200190815260200160002060008201518160000160006101000a81548173ffffffffffffffffffffffffffffffffffffffff021916908373ffffffffffffffffffffffffffffffffffffffff1602179055506020820151816001015560408201518160020160006101000a81548160ff0219169083151502179055509050503373ffffffffffffffffffffffffffffffffffffffff16827f09d308a0f92af20c998af9efb209f4123bc6cef7fed2bd271c55103986ef728c83604051610d6891906111db565b60405180910390a3610d786110ea565b5050565b6000600160009054906101000a900473ffffffffffffffffffffffffffffffffffffffff16905090565b600260009054906101000a900473ffffffffffffffffffffffffffffffffffffffff1681565b60046020528060005260406000206000915090508060000160009054906101000a900473ffffffffffffffffffffffffffffffffffffffff16908060010154908060020160009054906101000a900460ff16905083565b600360009054906101000a900473ffffffffffffffffffffffffffffffffffffffff1681565b610e51610ecf565b600073ffffffffffffffffffffffffffffffffffffffff168173ffffffffffffffffffffffffffffffffffffffff1603610ec35760006040517f1e4fbdf7000000000000000000000000000000000000000000000000000000008152600401610eba919061130b565b60405180910390fd5b610ecc816110f4565b50565b610ed76111ba565b73ffffffffffffffffffffffffffffffffffffffff16610ef5610d7c565b73ffffffffffffffffffffffffffffffffffffffff1614610f5457610f186111ba565b6040517f118cdaa7000000000000000000000000000000000000000000000000000000008152600401610f4b919061130b565b60405180910390fd5b565b600260005403610f92576040517f3ee5aeb500000000000000000000000000000000000000000000000000000000815260040160405180910390fd5b6002600081905550565b600073ffffffffffffffffffffffffffffffffffffffff16600360009054906101000a900473ffffffffffffffffffffffffffffffffffffffff1673ffffffffffffffffffffffffffffffffffffffff160361102d576040517f08c379a0000000000000000000000000000000000000000000000000000000008152600401611024906118c7565b60405180910390fd5b600360009054906101000a900473ffffffffffffffffffffffffffffffffffffffff1673ffffffffffffffffffffffffffffffffffffffff166108fc829081150290604051600060405180830381858888f19350505050158015611095573d6000803e3d6000fd5b5050565b6110a1610d7c565b73ffffffffffffffffffffffffffffffffffffffff166108fc829081150290604051600060405180830381858888f193505050501580156110e6573d6000803e3d6000fd5b5050565b6001600081905550565b6000600160009054906101000a900473ffffffffffffffffffffffffffffffffffffffff16905081600160006101000a81548173ffffffffffffffffffffffffffffffffffffffff021916908373ffffffffffffffffffffffffffffffffffffffff1602179055508173ffffffffffffffffffffffffffffffffffffffff168173ffffffffffffffffffffffffffffffffffffffff167f8be0079c531659141344cd1fd0a4f28419497f9722a3daafe3b4186f6b6457e060405160405180910390a35050565b600033905090565b6000819050919050565b6111d5816111c2565b82525050565b60006020820190506111f060008301846111cc565b92915050565b600080fd5b611204816111c2565b811461120f57600080fd5b50565b600081359050611221816111fb565b92915050565b60006020828403121561123d5761123c6111f6565b5b600061124b84828501611212565b91505092915050565b60008115159050919050565b61126981611254565b82525050565b60006020820190506112846000830184611260565b92915050565b600080604083850312156112a1576112a06111f6565b5b60006112af85828601611212565b92505060206112c085828601611212565b9150509250929050565b600073ffffffffffffffffffffffffffffffffffffffff82169050919050565b60006112f5826112ca565b9050919050565b611305816112ea565b82525050565b600060208201905061132060008301846112fc565b92915050565b6000819050919050565b600061134b611346611341846112ca565b611326565b6112ca565b9050919050565b600061135d82611330565b9050919050565b600061136f82611352565b9050919050565b61137f81611364565b82525050565b600060208201905061139a6000830184611376565b92915050565b60006060820190506113b560008301866112fc565b6113c260208301856111cc565b6113cf6040830184611260565b949350505050565b6113e0816112ea565b81146113eb57600080fd5b50565b6000813590506113fd816113d7565b92915050565b600060208284031215611419576114186111f6565b5b6000611427848285016113ee565b91505092915050565b600082825260208201905092915050565b7f436f6e74726163742069732073746f7070656400000000000000000000000000600082015250565b6000611477601383611430565b915061148282611441565b602082019050919050565b600060208201905081810360008301526114a68161146a565b9050919050565b7f456e74697479206e6f7420666f722073616c6500000000000000000000000000600082015250565b60006114e3601383611430565b91506114ee826114ad565b602082019050919050565b60006020820190508181036000830152611512816114d6565b9050919050565b7f496e73756666696369656e74207061796d656e74000000000000000000000000600082015250565b600061154f601483611430565b915061155a82611519565b602082019050919050565b6000602082019050818103600083015261157e81611542565b9050919050565b7f4e487b7100000000000000000000000000000000000000000000000000000000600052601160045260246000fd5b60006115bf826111c2565b91506115ca836111c2565b92508282026115d8816111c2565b915082820484148315176115ef576115ee611585565b5b5092915050565b7f4e487b7100000000000000000000000000000000000000000000000000000000600052601260045260246000fd5b6000611630826111c2565b915061163b836111c2565b92508261164b5761164a6115f6565b5b828204905092915050565b6000611661826111c2565b915061166c836111c2565b925082820190508082111561168457611683611585565b5b92915050565b6000611695826111c2565b91506116a0836111c2565b92508282039050818111156116b8576116b7611585565b5b92915050565b60006060820190506116d360008301866112fc565b6116e060208301856112fc565b6116ed60408301846111cc565b949350505050565b7f596f7520617265206e6f74207468652073656c6c657200000000000000000000600082015250565b600061172b601683611430565b9150611736826116f5565b602082019050919050565b6000602082019050818103600083015261175a8161171e565b9050919050565b7f4c697374696e67206973206e6f74206163746976650000000000000000000000600082015250565b6000611797601583611430565b91506117a282611761565b602082019050919050565b600060208201905081810360008301526117c68161178a565b9050919050565b6000815190506117dc816113d7565b92915050565b6000602082840312156117f8576117f76111f6565b5b6000611806848285016117cd565b91505092915050565b7f596f75206d757374206f776e2074686520656e74697479000000000000000000600082015250565b6000611845601783611430565b91506118508261180f565b602082019050919050565b6000602082019050818103600083015261187481611838565b9050919050565b7f4e756b6546756e642061646472657373206e6f74207365740000000000000000600082015250565b60006118b1601883611430565b91506118bc8261187b565b602082019050919050565b600060208201905081810360008301526118e0816118a4565b905091905056fea2646970667358221220749ebe469ec2259ed506e9ea87bbb8928a899dec3bae1818b433ac92b1377f2f64736f6c63430008140033",
    "linkReferences": {},
    "deployedLinkReferences": {}
}