{
    "_format": "hh-sol-artifact-1",
    "contractName": "Mint",
    "sourceName": "contracts/Mint.sol",
    "abi": [
        {
            "inputs": [
                {
                    "internalType": "address",
                    "name": "_honeypotAddress",
                    "type": "address"
                },
                {
                    "internalType": "address",
                    "name": "_breedableTokenAddress",
                    "type": "address"
                },
                {
                    "internalType": "address",
                    "name": "initialOwner",
                    "type": "address"
                }
            ],
            "stateMutability": "nonpayable",
            "type": "constructor"
        },
        {
            "inputs": [
                {
                    "internalType": "address",
                    "name": "sender",
                    "type": "address"
                },
                {
                    "internalType": "uint256",
                    "name": "tokenId",
                    "type": "uint256"
                },
                {
                    "internalType": "address",
                    "name": "owner",
                    "type": "address"
                }
            ],
            "name": "ERC721IncorrectOwner",
            "type": "error"
        },
        {
            "inputs": [
                {
                    "internalType": "address",
                    "name": "operator",
                    "type": "address"
                },
                {
                    "internalType": "uint256",
                    "name": "tokenId",
                    "type": "uint256"
                }
            ],
            "name": "ERC721InsufficientApproval",
            "type": "error"
        },
        {
            "inputs": [
                {
                    "internalType": "address",
                    "name": "approver",
                    "type": "address"
                }
            ],
            "name": "ERC721InvalidApprover",
            "type": "error"
        },
        {
            "inputs": [
                {
                    "internalType": "address",
                    "name": "operator",
                    "type": "address"
                }
            ],
            "name": "ERC721InvalidOperator",
            "type": "error"
        },
        {
            "inputs": [
                {
                    "internalType": "address",
                    "name": "owner",
                    "type": "address"
                }
            ],
            "name": "ERC721InvalidOwner",
            "type": "error"
        },
        {
            "inputs": [
                {
                    "internalType": "address",
                    "name": "receiver",
                    "type": "address"
                }
            ],
            "name": "ERC721InvalidReceiver",
            "type": "error"
        },
        {
            "inputs": [
                {
                    "internalType": "address",
                    "name": "sender",
                    "type": "address"
                }
            ],
            "name": "ERC721InvalidSender",
            "type": "error"
        },
        {
            "inputs": [
                {
                    "internalType": "uint256",
                    "name": "tokenId",
                    "type": "uint256"
                }
            ],
            "name": "ERC721NonexistentToken",
            "type": "error"
        },
        {
            "inputs": [
                {
                    "internalType": "address",
                    "name": "owner",
                    "type": "address"
                }
            ],
            "name": "OwnableInvalidOwner",
            "type": "error"
        },
        {
            "inputs": [
                {
                    "internalType": "address",
                    "name": "account",
                    "type": "address"
                }
            ],
            "name": "OwnableUnauthorizedAccount",
            "type": "error"
        },
        {
            "inputs": [],
            "name": "ReentrancyGuardReentrantCall",
            "type": "error"
        },
        {
            "anonymous": false,
            "inputs": [
                {
                    "indexed": true,
                    "internalType": "address",
                    "name": "owner",
                    "type": "address"
                },
                {
                    "indexed": true,
                    "internalType": "address",
                    "name": "approved",
                    "type": "address"
                },
                {
                    "indexed": true,
                    "internalType": "uint256",
                    "name": "tokenId",
                    "type": "uint256"
                }
            ],
            "name": "Approval",
            "type": "event"
        },
        {
            "anonymous": false,
            "inputs": [
                {
                    "indexed": true,
                    "internalType": "address",
                    "name": "owner",
                    "type": "address"
                },
                {
                    "indexed": true,
                    "internalType": "address",
                    "name": "operator",
                    "type": "address"
                },
                {
                    "indexed": false,
                    "internalType": "bool",
                    "name": "approved",
                    "type": "bool"
                }
            ],
            "name": "ApprovalForAll",
            "type": "event"
        },
        {
            "anonymous": false,
            "inputs": [
                {
                    "indexed": true,
                    "internalType": "uint256",
                    "name": "tokenId",
                    "type": "uint256"
                },
                {
                    "indexed": false,
                    "internalType": "uint256",
                    "name": "currentClaimShare",
                    "type": "uint256"
                },
                {
                    "indexed": false,
                    "internalType": "uint256",
                    "name": "currentBreedPotential",
                    "type": "uint256"
                }
            ],
            "name": "AttributesQueried",
            "type": "event"
        },
        {
            "anonymous": false,
            "inputs": [
                {
                    "indexed": true,
                    "internalType": "uint256",
                    "name": "tokenId",
                    "type": "uint256"
                },
                {
                    "indexed": false,
                    "internalType": "uint256",
                    "name": "newClaimShare",
                    "type": "uint256"
                },
                {
                    "indexed": false,
                    "internalType": "uint256",
                    "name": "newBreedPotential",
                    "type": "uint256"
                }
            ],
            "name": "AttributesUpdated",
            "type": "event"
        },
        {
            "anonymous": false,
            "inputs": [
                {
                    "indexed": true,
                    "internalType": "uint256",
                    "name": "tokenId",
                    "type": "uint256"
                },
                {
                    "indexed": false,
                    "internalType": "uint256",
                    "name": "newBreedPotential",
                    "type": "uint256"
                }
            ],
            "name": "BreedingOppotunitiesIncreased",
            "type": "event"
        },
        {
            "anonymous": false,
            "inputs": [
                {
                    "indexed": true,
                    "internalType": "uint256",
                    "name": "tokenId",
                    "type": "uint256"
                },
                {
                    "indexed": false,
                    "internalType": "uint256",
                    "name": "newClaimShare",
                    "type": "uint256"
                }
            ],
            "name": "ClaimShareIncreased",
            "type": "event"
        },
        {
            "anonymous": false,
            "inputs": [
                {
                    "indexed": false,
                    "internalType": "bool",
                    "name": "isStopped",
                    "type": "bool"
                }
            ],
            "name": "EmergencyStopToggled",
            "type": "event"
        },
        {
            "anonymous": false,
            "inputs": [
                {
                    "indexed": true,
                    "internalType": "uint256",
                    "name": "tokenId",
                    "type": "uint256"
                },
                {
                    "indexed": false,
                    "internalType": "enum Mint.EntityType",
                    "name": "entityType",
                    "type": "uint8"
                },
                {
                    "indexed": false,
                    "internalType": "uint256",
                    "name": "claimShare",
                    "type": "uint256"
                },
                {
                    "indexed": false,
                    "internalType": "uint256",
                    "name": "breedPotential",
                    "type": "uint256"
                },
                {
                    "indexed": false,
                    "internalType": "uint256",
                    "name": "generation",
                    "type": "uint256"
                }
            ],
            "name": "Entityminted",
            "type": "event"
        },
        {
            "anonymous": false,
            "inputs": [
                {
                    "indexed": true,
                    "internalType": "address",
                    "name": "previousOwner",
                    "type": "address"
                }
            ],
            "name": "OwnershipRenounced",
            "type": "event"
        },
        {
            "anonymous": false,
            "inputs": [
                {
                    "indexed": true,
                    "internalType": "address",
                    "name": "from",
                    "type": "address"
                },
                {
                    "indexed": true,
                    "internalType": "address",
                    "name": "to",
                    "type": "address"
                }
            ],
            "name": "OwnershipTransferAttempted",
            "type": "event"
        },
        {
            "anonymous": false,
            "inputs": [
                {
                    "indexed": true,
                    "internalType": "address",
                    "name": "previousOwner",
                    "type": "address"
                },
                {
                    "indexed": true,
                    "internalType": "address",
                    "name": "newOwner",
                    "type": "address"
                }
            ],
            "name": "OwnershipTransferred",
            "type": "event"
        },
        {
            "anonymous": false,
            "inputs": [
                {
                    "indexed": true,
                    "internalType": "uint256",
                    "name": "tokenId",
                    "type": "uint256"
                }
            ],
            "name": "TokenBurned",
            "type": "event"
        },
        {
            "anonymous": false,
            "inputs": [
                {
                    "indexed": true,
                    "internalType": "address",
                    "name": "from",
                    "type": "address"
                },
                {
                    "indexed": true,
                    "internalType": "address",
                    "name": "to",
                    "type": "address"
                },
                {
                    "indexed": true,
                    "internalType": "uint256",
                    "name": "tokenId",
                    "type": "uint256"
                }
            ],
            "name": "Transfer",
            "type": "event"
        },
        {
            "inputs": [],
            "name": "MAX_ENTITIES",
            "outputs": [
                {
                    "internalType": "uint256",
                    "name": "",
                    "type": "uint256"
                }
            ],
            "stateMutability": "view",
            "type": "function"
        },
        {
            "inputs": [],
            "name": "PRICE_INCREMENT",
            "outputs": [
                {
                    "internalType": "uint256",
                    "name": "",
                    "type": "uint256"
                }
            ],
            "stateMutability": "view",
            "type": "function"
        },
        {
            "inputs": [],
            "name": "START_PRICE",
            "outputs": [
                {
                    "internalType": "uint256",
                    "name": "",
                    "type": "uint256"
                }
            ],
            "stateMutability": "view",
            "type": "function"
        },
        {
            "inputs": [],
            "name": "activeGeneration",
            "outputs": [
                {
                    "internalType": "uint256",
                    "name": "",
                    "type": "uint256"
                }
            ],
            "stateMutability": "view",
            "type": "function"
        },
        {
            "inputs": [],
            "name": "advanceGeneration",
            "outputs": [],
            "stateMutability": "nonpayable",
            "type": "function"
        },
        {
            "inputs": [],
            "name": "annualBlocks",
            "outputs": [
                {
                    "internalType": "uint256",
                    "name": "",
                    "type": "uint256"
                }
            ],
            "stateMutability": "view",
            "type": "function"
        },
        {
            "inputs": [
                {
                    "internalType": "address",
                    "name": "to",
                    "type": "address"
                },
                {
                    "internalType": "uint256",
                    "name": "tokenId",
                    "type": "uint256"
                }
            ],
            "name": "approve",
            "outputs": [],
            "stateMutability": "nonpayable",
            "type": "function"
        },
        {
            "inputs": [
                {
                    "internalType": "address",
                    "name": "owner",
                    "type": "address"
                }
            ],
            "name": "balanceOf",
            "outputs": [
                {
                    "internalType": "uint256",
                    "name": "",
                    "type": "uint256"
                }
            ],
            "stateMutability": "view",
            "type": "function"
        },
        {
            "inputs": [
                {
                    "internalType": "uint256",
                    "name": "tokenId",
                    "type": "uint256"
                }
            ],
            "name": "burnToken",
            "outputs": [],
            "stateMutability": "view",
            "type": "function"
        },
        {
            "inputs": [
                {
                    "internalType": "uint256",
                    "name": "tokenId",
                    "type": "uint256"
                }
            ],
            "name": "calculateCurrentAttributes",
            "outputs": [
                {
                    "internalType": "uint256",
                    "name": "currentClaimShare",
                    "type": "uint256"
                },
                {
                    "internalType": "uint256",
                    "name": "currentBreedPotential",
                    "type": "uint256"
                }
            ],
            "stateMutability": "nonpayable",
            "type": "function"
        },
        {
            "inputs": [
                {
                    "internalType": "uint256",
                    "name": "",
                    "type": "uint256"
                }
            ],
            "name": "entities",
            "outputs": [
                {
                    "internalType": "enum Mint.EntityType",
                    "name": "entityType",
                    "type": "uint8"
                },
                {
                    "internalType": "uint256",
                    "name": "claimShare",
                    "type": "uint256"
                },
                {
                    "internalType": "uint256",
                    "name": "breedPotential",
                    "type": "uint256"
                },
                {
                    "internalType": "uint256",
                    "name": "birthBlock",
                    "type": "uint256"
                },
                {
                    "internalType": "uint256",
                    "name": "lastUpdateBlock",
                    "type": "uint256"
                },
                {
                    "internalType": "uint256",
                    "name": "generation",
                    "type": "uint256"
                },
                {
                    "internalType": "uint256",
                    "name": "lastBreedPotentialUpdate",
                    "type": "uint256"
                }
            ],
            "stateMutability": "view",
            "type": "function"
        },
        {
            "inputs": [],
            "name": "generation",
            "outputs": [
                {
                    "internalType": "uint256",
                    "name": "",
                    "type": "uint256"
                }
            ],
            "stateMutability": "view",
            "type": "function"
        },
        {
            "inputs": [
                {
                    "internalType": "uint256",
                    "name": "tokenId",
                    "type": "uint256"
                }
            ],
            "name": "getApproved",
            "outputs": [
                {
                    "internalType": "address",
                    "name": "",
                    "type": "address"
                }
            ],
            "stateMutability": "view",
            "type": "function"
        },
        {
            "inputs": [
                {
                    "internalType": "uint256",
                    "name": "tokenId",
                    "type": "uint256"
                }
            ],
            "name": "getCurrentAttributes",
            "outputs": [
                {
                    "internalType": "uint256",
                    "name": "currentClaimShare",
                    "type": "uint256"
                },
                {
                    "internalType": "uint256",
                    "name": "currentBreedPotential",
                    "type": "uint256"
                }
            ],
            "stateMutability": "view",
            "type": "function"
        },
        {
            "inputs": [],
            "name": "honeypotAddress",
            "outputs": [
                {
                    "internalType": "address",
                    "name": "",
                    "type": "address"
                }
            ],
            "stateMutability": "view",
            "type": "function"
        },
        {
            "inputs": [],
            "name": "honeypotContract",
            "outputs": [
                {
                    "internalType": "contract IHoneypot",
                    "name": "",
                    "type": "address"
                }
            ],
            "stateMutability": "view",
            "type": "function"
        },
        {
            "inputs": [
                {
                    "internalType": "address",
                    "name": "owner",
                    "type": "address"
                },
                {
                    "internalType": "address",
                    "name": "operator",
                    "type": "address"
                }
            ],
            "name": "isApprovedForAll",
            "outputs": [
                {
                    "internalType": "bool",
                    "name": "",
                    "type": "bool"
                }
            ],
            "stateMutability": "view",
            "type": "function"
        },
        {
            "inputs": [
                {
                    "internalType": "uint256",
                    "name": "",
                    "type": "uint256"
                }
            ],
            "name": "lastNukeTime",
            "outputs": [
                {
                    "internalType": "uint256",
                    "name": "",
                    "type": "uint256"
                }
            ],
            "stateMutability": "view",
            "type": "function"
        },
        {
            "inputs": [],
            "name": "mint",
            "outputs": [],
            "stateMutability": "payable",
            "type": "function"
        },
        {
            "inputs": [],
            "name": "mintedCount",
            "outputs": [
                {
                    "internalType": "uint256",
                    "name": "",
                    "type": "uint256"
                }
            ],
            "stateMutability": "view",
            "type": "function"
        },
        {
            "inputs": [],
            "name": "name",
            "outputs": [
                {
                    "internalType": "string",
                    "name": "",
                    "type": "string"
                }
            ],
            "stateMutability": "view",
            "type": "function"
        },
        {
            "inputs": [],
            "name": "owner",
            "outputs": [
                {
                    "internalType": "address",
                    "name": "",
                    "type": "address"
                }
            ],
            "stateMutability": "view",
            "type": "function"
        },
        {
            "inputs": [
                {
                    "internalType": "uint256",
                    "name": "tokenId",
                    "type": "uint256"
                }
            ],
            "name": "ownerOf",
            "outputs": [
                {
                    "internalType": "address",
                    "name": "",
                    "type": "address"
                }
            ],
            "stateMutability": "view",
            "type": "function"
        },
        {
            "inputs": [],
            "name": "renounceOwnership",
            "outputs": [],
            "stateMutability": "nonpayable",
            "type": "function"
        },
        {
            "inputs": [
                {
                    "internalType": "address",
                    "name": "from",
                    "type": "address"
                },
                {
                    "internalType": "address",
                    "name": "to",
                    "type": "address"
                },
                {
                    "internalType": "uint256",
                    "name": "tokenId",
                    "type": "uint256"
                }
            ],
            "name": "safeTransferFrom",
            "outputs": [],
            "stateMutability": "nonpayable",
            "type": "function"
        },
        {
            "inputs": [
                {
                    "internalType": "address",
                    "name": "from",
                    "type": "address"
                },
                {
                    "internalType": "address",
                    "name": "to",
                    "type": "address"
                },
                {
                    "internalType": "uint256",
                    "name": "tokenId",
                    "type": "uint256"
                },
                {
                    "internalType": "bytes",
                    "name": "data",
                    "type": "bytes"
                }
            ],
            "name": "safeTransferFrom",
            "outputs": [],
            "stateMutability": "nonpayable",
            "type": "function"
        },
        {
            "inputs": [
                {
                    "internalType": "address",
                    "name": "operator",
                    "type": "address"
                },
                {
                    "internalType": "bool",
                    "name": "approved",
                    "type": "bool"
                }
            ],
            "name": "setApprovalForAll",
            "outputs": [],
            "stateMutability": "nonpayable",
            "type": "function"
        },
        {
            "inputs": [
                {
                    "internalType": "uint256",
                    "name": "tokenId",
                    "type": "uint256"
                }
            ],
            "name": "someFunction",
            "outputs": [],
            "stateMutability": "nonpayable",
            "type": "function"
        },
        {
            "inputs": [],
            "name": "stopped",
            "outputs": [
                {
                    "internalType": "bool",
                    "name": "",
                    "type": "bool"
                }
            ],
            "stateMutability": "view",
            "type": "function"
        },
        {
            "inputs": [
                {
                    "internalType": "bytes4",
                    "name": "interfaceId",
                    "type": "bytes4"
                }
            ],
            "name": "supportsInterface",
            "outputs": [
                {
                    "internalType": "bool",
                    "name": "",
                    "type": "bool"
                }
            ],
            "stateMutability": "view",
            "type": "function"
        },
        {
            "inputs": [],
            "name": "symbol",
            "outputs": [
                {
                    "internalType": "string",
                    "name": "",
                    "type": "string"
                }
            ],
            "stateMutability": "view",
            "type": "function"
        },
        {
            "inputs": [],
            "name": "toggleCircuitbreaker",
            "outputs": [],
            "stateMutability": "nonpayable",
            "type": "function"
        },
        {
            "inputs": [
                {
                    "internalType": "uint256",
                    "name": "tokenId",
                    "type": "uint256"
                }
            ],
            "name": "tokenURI",
            "outputs": [
                {
                    "internalType": "string",
                    "name": "",
                    "type": "string"
                }
            ],
            "stateMutability": "view",
            "type": "function"
        },
        {
            "inputs": [],
            "name": "totalRaised",
            "outputs": [
                {
                    "internalType": "uint256",
                    "name": "",
                    "type": "uint256"
                }
            ],
            "stateMutability": "view",
            "type": "function"
        },
        {
            "inputs": [
                {
                    "internalType": "address",
                    "name": "from",
                    "type": "address"
                },
                {
                    "internalType": "address",
                    "name": "to",
                    "type": "address"
                },
                {
                    "internalType": "uint256",
                    "name": "tokenId",
                    "type": "uint256"
                }
            ],
            "name": "transferFrom",
            "outputs": [],
            "stateMutability": "nonpayable",
            "type": "function"
        },
        {
            "inputs": [
                {
                    "internalType": "address",
                    "name": "newOwner",
                    "type": "address"
                }
            ],
            "name": "transferOwnership",
            "outputs": [],
            "stateMutability": "nonpayable",
            "type": "function"
        },
        {
            "inputs": [
                {
                    "internalType": "uint256",
                    "name": "tokenId",
                    "type": "uint256"
                }
            ],
            "name": "updateBreedPotential",
            "outputs": [],
            "stateMutability": "nonpayable",
            "type": "function"
        }
    ],
    "bytecode": "0x60806040526000600660146101000a81548160ff02191690831515021790555060016009556000600e553480156200003657600080fd5b5060405162003bcc38038062003bcc83398181016040528101906200005c91906200037a565b806040518060400160405280600a81526020017f47656e31456e74697479000000000000000000000000000000000000000000008152506040518060400160405280600381526020017f47314500000000000000000000000000000000000000000000000000000000008152508160009081620000da919062000650565b508060019081620000ec919062000650565b505050600073ffffffffffffffffffffffffffffffffffffffff168173ffffffffffffffffffffffffffffffffffffffff1603620001645760006040517f1e4fbdf70000000000000000000000000000000000000000000000000000000081526004016200015b919062000748565b60405180910390fd5b62000175816200024a60201b60201c565b50600160078190555082600f60006101000a81548173ffffffffffffffffffffffffffffffffffffffff021916908373ffffffffffffffffffffffffffffffffffffffff16021790555082600b60006101000a81548173ffffffffffffffffffffffffffffffffffffffff021916908373ffffffffffffffffffffffffffffffffffffffff16021790555081600a60006101000a81548173ffffffffffffffffffffffffffffffffffffffff021916908373ffffffffffffffffffffffffffffffffffffffff16021790555050505062000765565b6000600660009054906101000a900473ffffffffffffffffffffffffffffffffffffffff16905081600660006101000a81548173ffffffffffffffffffffffffffffffffffffffff021916908373ffffffffffffffffffffffffffffffffffffffff1602179055508173ffffffffffffffffffffffffffffffffffffffff168173ffffffffffffffffffffffffffffffffffffffff167f8be0079c531659141344cd1fd0a4f28419497f9722a3daafe3b4186f6b6457e060405160405180910390a35050565b600080fd5b600073ffffffffffffffffffffffffffffffffffffffff82169050919050565b6000620003428262000315565b9050919050565b620003548162000335565b81146200036057600080fd5b50565b600081519050620003748162000349565b92915050565b60008060006060848603121562000396576200039562000310565b5b6000620003a68682870162000363565b9350506020620003b98682870162000363565b9250506040620003cc8682870162000363565b9150509250925092565b600081519050919050565b7f4e487b7100000000000000000000000000000000000000000000000000000000600052604160045260246000fd5b7f4e487b7100000000000000000000000000000000000000000000000000000000600052602260045260246000fd5b600060028204905060018216806200045857607f821691505b6020821081036200046e576200046d62000410565b5b50919050565b60008190508160005260206000209050919050565b60006020601f8301049050919050565b600082821b905092915050565b600060088302620004d87fffffffffffffffffffffffffffffffffffffffffffffffffffffffffffffffff8262000499565b620004e4868362000499565b95508019841693508086168417925050509392505050565b6000819050919050565b6000819050919050565b6000620005316200052b6200052584620004fc565b62000506565b620004fc565b9050919050565b6000819050919050565b6200054d8362000510565b620005656200055c8262000538565b848454620004a6565b825550505050565b600090565b6200057c6200056d565b6200058981848462000542565b505050565b5b81811015620005b157620005a560008262000572565b6001810190506200058f565b5050565b601f8211156200060057620005ca8162000474565b620005d58462000489565b81016020851015620005e5578190505b620005fd620005f48562000489565b8301826200058e565b50505b505050565b600082821c905092915050565b6000620006256000198460080262000605565b1980831691505092915050565b600062000640838362000612565b9150826002028217905092915050565b6200065b82620003d6565b67ffffffffffffffff811115620006775762000676620003e1565b5b6200068382546200043f565b62000690828285620005b5565b600060209050601f831160018114620006c85760008415620006b3578287015190505b620006bf858262000632565b8655506200072f565b601f198416620006d88662000474565b60005b828110156200070257848901518255600182019150602085019450602081019050620006db565b868310156200072257848901516200071e601f89168262000612565b8355505b6001600288020188555050505b505050505050565b620007428162000335565b82525050565b60006020820190506200075f600083018462000737565b92915050565b61345780620007756000396000f3fe60806040526004361061021a5760003560e01c80636d25d80211610123578063a22cb465116100ab578063cf4227bd1161006f578063cf4227bd146107be578063cf721b15146107e9578063da6f655514610814578063e985e9c51461083d578063f2fde38b1461087a5761021a565b8063a22cb465146106d9578063b88d4fde14610702578063bb2f337c1461072b578063c5c4744c14610756578063c87b56dd146107815761021a565b806375f12b21116100f257806375f12b21146106045780637b47ec1a1461062f5780638050aa6c146106585780638da5cb5b1461068357806395d89b41146106ae5761021a565b80636d25d8021461055c5780637062c0941461058757806370a08231146105b0578063715018a6146105ed5761021a565b806323b872dd116101a657806342842e0e1161017557806342842e0e14610471578063539312121461049a57806359dabcd6146104c55780636331883b146104dc5780636352211e1461051f5761021a565b806323b872dd146103b457806330ae4e66146103dd5780633609ac8f1461040857806336531030146104335761021a565b8063095ea7b3116101ed578063095ea7b3146103015780631015baed1461032a5780631249c58b14610341578063172195221461034b57806317eb2979146103765761021a565b806301ffc9a71461021f57806306fdde031461025c578063081812fc146102875780630879033c146102c4575b600080fd5b34801561022b57600080fd5b50610246600480360381019061024191906126e4565b6108a3565b604051610253919061272c565b60405180910390f35b34801561026857600080fd5b50610271610985565b60405161027e91906127d7565b60405180910390f35b34801561029357600080fd5b506102ae60048036038101906102a9919061282f565b610a17565b6040516102bb919061289d565b60405180910390f35b3480156102d057600080fd5b506102eb60048036038101906102e6919061282f565b610a33565b6040516102f891906128c7565b60405180910390f35b34801561030d57600080fd5b506103286004803603810190610323919061290e565b610a4b565b005b34801561033657600080fd5b5061033f610a61565b005b610349610a95565b005b34801561035757600080fd5b50610360610dec565b60405161036d91906128c7565b60405180910390f35b34801561038257600080fd5b5061039d6004803603810190610398919061282f565b610df2565b6040516103ab92919061294e565b60405180910390f35b3480156103c057600080fd5b506103db60048036038101906103d69190612977565b610e92565b005b3480156103e957600080fd5b506103f2610f94565b6040516103ff91906128c7565b60405180910390f35b34801561041457600080fd5b5061041d610f9b565b60405161042a91906128c7565b60405180910390f35b34801561043f57600080fd5b5061045a6004803603810190610455919061282f565b610fa6565b60405161046892919061294e565b60405180910390f35b34801561047d57600080fd5b5061049860048036038101906104939190612977565b61112b565b005b3480156104a657600080fd5b506104af61114b565b6040516104bc91906128c7565b60405180910390f35b3480156104d157600080fd5b506104da611151565b005b3480156104e857600080fd5b5061050360048036038101906104fe919061282f565b6111fb565b6040516105169796959493929190612a41565b60405180910390f35b34801561052b57600080fd5b506105466004803603810190610541919061282f565b61124a565b604051610553919061289d565b60405180910390f35b34801561056857600080fd5b5061057161125c565b60405161057e91906128c7565b60405180910390f35b34801561059357600080fd5b506105ae60048036038101906105a9919061282f565b611267565b005b3480156105bc57600080fd5b506105d760048036038101906105d29190612ab0565b611275565b6040516105e491906128c7565b60405180910390f35b3480156105f957600080fd5b5061060261132f565b005b34801561061057600080fd5b50610619611343565b604051610626919061272c565b60405180910390f35b34801561063b57600080fd5b506106566004803603810190610651919061282f565b611356565b005b34801561066457600080fd5b5061066d611439565b60405161067a9190612b3c565b60405180910390f35b34801561068f57600080fd5b5061069861145f565b6040516106a5919061289d565b60405180910390f35b3480156106ba57600080fd5b506106c3611489565b6040516106d091906127d7565b60405180910390f35b3480156106e557600080fd5b5061070060048036038101906106fb9190612b83565b61151b565b005b34801561070e57600080fd5b5061072960048036038101906107249190612cf8565b611531565b005b34801561073757600080fd5b5061074061154e565b60405161074d919061289d565b60405180910390f35b34801561076257600080fd5b5061076b611574565b60405161077891906128c7565b60405180910390f35b34801561078d57600080fd5b506107a860048036038101906107a3919061282f565b61157a565b6040516107b591906127d7565b60405180910390f35b3480156107ca57600080fd5b506107d36115e3565b6040516107e091906128c7565b60405180910390f35b3480156107f557600080fd5b506107fe6115e9565b60405161080b91906128c7565b60405180910390f35b34801561082057600080fd5b5061083b6004803603810190610836919061282f565b6115ef565b005b34801561084957600080fd5b50610864600480360381019061085f9190612d7b565b6116aa565b604051610871919061272c565b60405180910390f35b34801561088657600080fd5b506108a1600480360381019061089c9190612ab0565b61173e565b005b60007f80ac58cd000000000000000000000000000000000000000000000000000000007bffffffffffffffffffffffffffffffffffffffffffffffffffffffff1916827bffffffffffffffffffffffffffffffffffffffffffffffffffffffff1916148061096e57507f5b5e139f000000000000000000000000000000000000000000000000000000007bffffffffffffffffffffffffffffffffffffffffffffffffffffffff1916827bffffffffffffffffffffffffffffffffffffffffffffffffffffffff1916145b8061097e575061097d826117c4565b5b9050919050565b60606000805461099490612dea565b80601f01602080910402602001604051908101604052809291908181526020018280546109c090612dea565b8015610a0d5780601f106109e257610100808354040283529160200191610a0d565b820191906000526020600020905b8154815290600101906020018083116109f057829003601f168201915b5050505050905090565b6000610a228261182e565b50610a2c826118b6565b9050919050565b600d6020528060005260406000206000915090505481565b610a5d8282610a586118f3565b6118fb565b5050565b610a6961190d565b600660149054906101000a900460ff1615600660146101000a81548160ff021916908315150217905550565b610a9d611994565b600660149054906101000a900460ff1615610aed576040517f08c379a0000000000000000000000000000000000000000000000000000000008152600401610ae490612e67565b60405180910390fd5b6000662386f26fc10000600e54610b049190612eb6565b662386f26fc10000610b169190612ef8565b9050612710600e5410610b5e576040517f08c379a0000000000000000000000000000000000000000000000000000000008152600401610b5590612f78565b60405180910390fd5b80341015610ba1576040517f08c379a0000000000000000000000000000000000000000000000000000000008152600401610b9890612fe4565b60405180910390fd5b6000600a34610bb09190613033565b905060008134610bc09190613064565b905060006001600e54610bd39190612ef8565b90506000610bdf6119da565b90506000610beb611a42565b90506000806002600e54610bff9190613098565b14610c0b576001610c0e565b60005b90506040518060e00160405280826001811115610c2e57610c2d6129ca565b5b8152602001848152602001838152602001438152602001438152602001600854815260200143815250600c600086815260200190815260200160002060008201518160000160006101000a81548160ff02191690836001811115610c9557610c946129ca565b5b02179055506020820151816001015560408201518160020155606082015181600301556080820151816004015560a0820151816005015560c08201518160060155905050600e6000815480929190610cec906130c9565b91905055503460106000828254610d039190612ef8565b92505081905550610d1261145f565b73ffffffffffffffffffffffffffffffffffffffff166108fc879081150290604051600060405180830381858888f19350505050158015610d57573d6000803e3d6000fd5b50600b60009054906101000a900473ffffffffffffffffffffffffffffffffffffffff1673ffffffffffffffffffffffffffffffffffffffff1663d0e30db0866040518263ffffffff1660e01b81526004016000604051808303818588803b158015610dc257600080fd5b505af1158015610dd6573d6000803e3d6000fd5b505050505050505050505050610dea611aa9565b565b60085481565b6000806000600c600085815260200190815260200160002090506000816004015443610e1e9190613064565b90506000811115610e7d576000606462249f00846001015484610e419190612eb6565b610e4b9190613033565b610e559190613033565b905080836001016000828254610e6b9190612ef8565b92505081905550438360040181905550505b81600101548260020154935093505050915091565b600073ffffffffffffffffffffffffffffffffffffffff168273ffffffffffffffffffffffffffffffffffffffff1603610f045760006040517f64a0ae92000000000000000000000000000000000000000000000000000000008152600401610efb919061289d565b60405180910390fd5b6000610f188383610f136118f3565b611ab3565b90508373ffffffffffffffffffffffffffffffffffffffff168173ffffffffffffffffffffffffffffffffffffffff1614610f8e578382826040517f64283d7b000000000000000000000000000000000000000000000000000000008152600401610f8593929190613111565b60405180910390fd5b50505050565b62249f0081565b662386f26fc1000081565b6000806000600c60008581526020019081526020016000206040518060e00160405290816000820160009054906101000a900460ff166001811115610fee57610fed6129ca565b5b600181111561100057610fff6129ca565b5b81526020016001820154815260200160028201548152602001600382015481526020016004820154815260200160058201548152602001600682015481525050905060008160800151436110549190613064565b90506000606462249f0084602001518461106e9190612eb6565b6110789190613033565b6110829190613033565b9050600082111561112357600062249f006064846110a09190612eb6565b6110aa9190613033565b905060006064826064600a88602001516110c49190612eb6565b6110ce9190613033565b6110d89190612eb6565b6110e29190613033565b905080856020018181516110f69190612ef8565b91508181525050438560800181815250508285602001516111179190612ef8565b96508460400151955050505b505050915091565b61114683838360405180602001604052806000815250611531565b505050565b61271081565b600a60009054906101000a900473ffffffffffffffffffffffffffffffffffffffff1673ffffffffffffffffffffffffffffffffffffffff163373ffffffffffffffffffffffffffffffffffffffff16146111e1576040517f08c379a00000000000000000000000000000000000000000000000000000000081526004016111d890613194565b60405180910390fd5b600960008154809291906111f4906130c9565b9190505550565b600c6020528060005260406000206000915090508060000160009054906101000a900460ff16908060010154908060020154908060030154908060040154908060050154908060060154905087565b60006112558261182e565b9050919050565b662386f26fc1000081565b61127081610df2565b505050565b60008073ffffffffffffffffffffffffffffffffffffffff168273ffffffffffffffffffffffffffffffffffffffff16036112e85760006040517f89c62b640000000000000000000000000000000000000000000000000000000081526004016112df919061289d565b60405180910390fd5b600360008373ffffffffffffffffffffffffffffffffffffffff1673ffffffffffffffffffffffffffffffffffffffff168152602001908152602001600020549050919050565b61133761190d565b6113416000611ccd565b565b600660149054906101000a900460ff1681565b60006113618261124a565b90508073ffffffffffffffffffffffffffffffffffffffff166113826118f3565b73ffffffffffffffffffffffffffffffffffffffff1614806113de57506113a76118f3565b73ffffffffffffffffffffffffffffffffffffffff166113c683610a17565b73ffffffffffffffffffffffffffffffffffffffff16145b806113f657506113f5816113f06118f3565b6116aa565b5b611435576040517f08c379a000000000000000000000000000000000000000000000000000000000815260040161142c90613200565b60405180910390fd5b5050565b600b60009054906101000a900473ffffffffffffffffffffffffffffffffffffffff1681565b6000600660009054906101000a900473ffffffffffffffffffffffffffffffffffffffff16905090565b60606001805461149890612dea565b80601f01602080910402602001604051908101604052809291908181526020018280546114c490612dea565b80156115115780601f106114e657610100808354040283529160200191611511565b820191906000526020600020905b8154815290600101906020018083116114f457829003601f168201915b5050505050905090565b61152d6115266118f3565b8383611d93565b5050565b61153c848484610e92565b61154884848484611f02565b50505050565b600f60009054906101000a900473ffffffffffffffffffffffffffffffffffffffff1681565b60105481565b60606115858261182e565b5060006115906120b9565b905060008151116115b057604051806020016040528060008152506115db565b806115ba846120d0565b6040516020016115cb92919061325c565b6040516020818303038152906040525b915050919050565b60095481565b600e5481565b6000600c6000838152602001908152602001600020905060008160060154436116189190613064565b905062249f0081106116a557600062249f00826116359190613033565b90508060026116449190612eb6565b8360020160008282546116579190612ef8565b92505081905550438360060181905550837f8eda3856b1cb9c31ebb81d21ec603079bf3d222006c3d11cc4c09657505515a3846002015460405161169b91906128c7565b60405180910390a2505b505050565b6000600560008473ffffffffffffffffffffffffffffffffffffffff1673ffffffffffffffffffffffffffffffffffffffff16815260200190815260200160002060008373ffffffffffffffffffffffffffffffffffffffff1673ffffffffffffffffffffffffffffffffffffffff16815260200190815260200160002060009054906101000a900460ff16905092915050565b61174661190d565b600073ffffffffffffffffffffffffffffffffffffffff168173ffffffffffffffffffffffffffffffffffffffff16036117b85760006040517f1e4fbdf70000000000000000000000000000000000000000000000000000000081526004016117af919061289d565b60405180910390fd5b6117c181611ccd565b50565b60007f01ffc9a7000000000000000000000000000000000000000000000000000000007bffffffffffffffffffffffffffffffffffffffffffffffffffffffff1916827bffffffffffffffffffffffffffffffffffffffffffffffffffffffff1916149050919050565b60008061183a8361219e565b9050600073ffffffffffffffffffffffffffffffffffffffff168173ffffffffffffffffffffffffffffffffffffffff16036118ad57826040517f7e2732890000000000000000000000000000000000000000000000000000000081526004016118a491906128c7565b60405180910390fd5b80915050919050565b60006004600083815260200190815260200160002060009054906101000a900473ffffffffffffffffffffffffffffffffffffffff169050919050565b600033905090565b61190883838360016121db565b505050565b6119156118f3565b73ffffffffffffffffffffffffffffffffffffffff1661193361145f565b73ffffffffffffffffffffffffffffffffffffffff1614611992576119566118f3565b6040517f118cdaa7000000000000000000000000000000000000000000000000000000008152600401611989919061289d565b60405180910390fd5b565b6002600754036119d0576040517f3ee5aeb500000000000000000000000000000000000000000000000000000000815260040160405180910390fd5b6002600781905550565b6000806001905060006109c49050600082826119f69190613064565b4233604051602001611a099291906132e9565b6040516020818303038152906040528051906020012060001c611a2c9190613098565b90508281611a3a9190612ef8565b935050505090565b6000806002905060006010905060008282611a5d9190613064565b4233604051602001611a709291906132e9565b6040516020818303038152906040528051906020012060001c611a939190613098565b90508281611aa19190612ef8565b935050505090565b6001600781905550565b600080611abf8461219e565b9050600073ffffffffffffffffffffffffffffffffffffffff168373ffffffffffffffffffffffffffffffffffffffff1614611b0157611b008184866123a0565b5b600073ffffffffffffffffffffffffffffffffffffffff168173ffffffffffffffffffffffffffffffffffffffff1614611b9257611b436000856000806121db565b6001600360008373ffffffffffffffffffffffffffffffffffffffff1673ffffffffffffffffffffffffffffffffffffffff168152602001908152602001600020600082825403925050819055505b600073ffffffffffffffffffffffffffffffffffffffff168573ffffffffffffffffffffffffffffffffffffffff1614611c15576001600360008773ffffffffffffffffffffffffffffffffffffffff1673ffffffffffffffffffffffffffffffffffffffff168152602001908152602001600020600082825401925050819055505b846002600086815260200190815260200160002060006101000a81548173ffffffffffffffffffffffffffffffffffffffff021916908373ffffffffffffffffffffffffffffffffffffffff160217905550838573ffffffffffffffffffffffffffffffffffffffff168273ffffffffffffffffffffffffffffffffffffffff167fddf252ad1be2c89b69c2b068fc378daa952ba7f163c4a11628f55a4df523b3ef60405160405180910390a4809150509392505050565b6000600660009054906101000a900473ffffffffffffffffffffffffffffffffffffffff16905081600660006101000a81548173ffffffffffffffffffffffffffffffffffffffff021916908373ffffffffffffffffffffffffffffffffffffffff1602179055508173ffffffffffffffffffffffffffffffffffffffff168173ffffffffffffffffffffffffffffffffffffffff167f8be0079c531659141344cd1fd0a4f28419497f9722a3daafe3b4186f6b6457e060405160405180910390a35050565b600073ffffffffffffffffffffffffffffffffffffffff168273ffffffffffffffffffffffffffffffffffffffff1603611e0457816040517f5b08ba18000000000000000000000000000000000000000000000000000000008152600401611dfb919061289d565b60405180910390fd5b80600560008573ffffffffffffffffffffffffffffffffffffffff1673ffffffffffffffffffffffffffffffffffffffff16815260200190815260200160002060008473ffffffffffffffffffffffffffffffffffffffff1673ffffffffffffffffffffffffffffffffffffffff16815260200190815260200160002060006101000a81548160ff0219169083151502179055508173ffffffffffffffffffffffffffffffffffffffff168373ffffffffffffffffffffffffffffffffffffffff167f17307eab39ab6107e8899845ad3d59bd9653f200f220920489ca2b5937696c3183604051611ef5919061272c565b60405180910390a3505050565b60008373ffffffffffffffffffffffffffffffffffffffff163b11156120b3578273ffffffffffffffffffffffffffffffffffffffff1663150b7a02611f466118f3565b8685856040518563ffffffff1660e01b8152600401611f68949392919061336a565b6020604051808303816000875af1925050508015611fa457506040513d601f19601f82011682018060405250810190611fa191906133cb565b60015b612028573d8060008114611fd4576040519150601f19603f3d011682016040523d82523d6000602084013e611fd9565b606091505b50600081510361202057836040517f64a0ae92000000000000000000000000000000000000000000000000000000008152600401612017919061289d565b60405180910390fd5b805181602001fd5b63150b7a0260e01b7bffffffffffffffffffffffffffffffffffffffffffffffffffffffff1916817bffffffffffffffffffffffffffffffffffffffffffffffffffffffff1916146120b157836040517f64a0ae920000000000000000000000000000000000000000000000000000000081526004016120a8919061289d565b60405180910390fd5b505b50505050565b606060405180602001604052806000815250905090565b6060600060016120df84612464565b01905060008167ffffffffffffffff8111156120fe576120fd612bcd565b5b6040519080825280601f01601f1916602001820160405280156121305781602001600182028036833780820191505090505b509050600082602001820190505b600115612193578080600190039150507f3031323334353637383961626364656600000000000000000000000000000000600a86061a8153600a858161218757612186613004565b5b0494506000850361213e575b819350505050919050565b60006002600083815260200190815260200160002060009054906101000a900473ffffffffffffffffffffffffffffffffffffffff169050919050565b80806122145750600073ffffffffffffffffffffffffffffffffffffffff168273ffffffffffffffffffffffffffffffffffffffff1614155b156123485760006122248461182e565b9050600073ffffffffffffffffffffffffffffffffffffffff168373ffffffffffffffffffffffffffffffffffffffff161415801561228f57508273ffffffffffffffffffffffffffffffffffffffff168173ffffffffffffffffffffffffffffffffffffffff1614155b80156122a257506122a081846116aa565b155b156122e457826040517fa9fbf51f0000000000000000000000000000000000000000000000000000000081526004016122db919061289d565b60405180910390fd5b811561234657838573ffffffffffffffffffffffffffffffffffffffff168273ffffffffffffffffffffffffffffffffffffffff167f8c5be1e5ebec7d5bd14f71427d1e84f3dd0314c0f7b2291e5b200ac8c7c3b92560405160405180910390a45b505b836004600085815260200190815260200160002060006101000a81548173ffffffffffffffffffffffffffffffffffffffff021916908373ffffffffffffffffffffffffffffffffffffffff16021790555050505050565b6123ab8383836125b7565b61245f57600073ffffffffffffffffffffffffffffffffffffffff168373ffffffffffffffffffffffffffffffffffffffff160361242057806040517f7e27328900000000000000000000000000000000000000000000000000000000815260040161241791906128c7565b60405180910390fd5b81816040517f177e802f0000000000000000000000000000000000000000000000000000000081526004016124569291906133f8565b60405180910390fd5b505050565b600080600090507a184f03e93ff9f4daa797ed6e38ed64bf6a1f01000000000000000083106124c2577a184f03e93ff9f4daa797ed6e38ed64bf6a1f01000000000000000083816124b8576124b7613004565b5b0492506040810190505b6d04ee2d6d415b85acef810000000083106124ff576d04ee2d6d415b85acef810000000083816124f5576124f4613004565b5b0492506020810190505b662386f26fc10000831061252e57662386f26fc10000838161252457612523613004565b5b0492506010810190505b6305f5e1008310612557576305f5e100838161254d5761254c613004565b5b0492506008810190505b612710831061257c57612710838161257257612571613004565b5b0492506004810190505b6064831061259f576064838161259557612594613004565b5b0492506002810190505b600a83106125ae576001810190505b80915050919050565b60008073ffffffffffffffffffffffffffffffffffffffff168373ffffffffffffffffffffffffffffffffffffffff161415801561266f57508273ffffffffffffffffffffffffffffffffffffffff168473ffffffffffffffffffffffffffffffffffffffff161480612630575061262f84846116aa565b5b8061266e57508273ffffffffffffffffffffffffffffffffffffffff16612656836118b6565b73ffffffffffffffffffffffffffffffffffffffff16145b5b90509392505050565b6000604051905090565b600080fd5b600080fd5b60007fffffffff0000000000000000000000000000000000000000000000000000000082169050919050565b6126c18161268c565b81146126cc57600080fd5b50565b6000813590506126de816126b8565b92915050565b6000602082840312156126fa576126f9612682565b5b6000612708848285016126cf565b91505092915050565b60008115159050919050565b61272681612711565b82525050565b6000602082019050612741600083018461271d565b92915050565b600081519050919050565b600082825260208201905092915050565b60005b83811015612781578082015181840152602081019050612766565b60008484015250505050565b6000601f19601f8301169050919050565b60006127a982612747565b6127b38185612752565b93506127c3818560208601612763565b6127cc8161278d565b840191505092915050565b600060208201905081810360008301526127f1818461279e565b905092915050565b6000819050919050565b61280c816127f9565b811461281757600080fd5b50565b60008135905061282981612803565b92915050565b60006020828403121561284557612844612682565b5b60006128538482850161281a565b91505092915050565b600073ffffffffffffffffffffffffffffffffffffffff82169050919050565b60006128878261285c565b9050919050565b6128978161287c565b82525050565b60006020820190506128b2600083018461288e565b92915050565b6128c1816127f9565b82525050565b60006020820190506128dc60008301846128b8565b92915050565b6128eb8161287c565b81146128f657600080fd5b50565b600081359050612908816128e2565b92915050565b6000806040838503121561292557612924612682565b5b6000612933858286016128f9565b92505060206129448582860161281a565b9150509250929050565b600060408201905061296360008301856128b8565b61297060208301846128b8565b9392505050565b6000806000606084860312156129905761298f612682565b5b600061299e868287016128f9565b93505060206129af868287016128f9565b92505060406129c08682870161281a565b9150509250925092565b7f4e487b7100000000000000000000000000000000000000000000000000000000600052602160045260246000fd5b60028110612a0a57612a096129ca565b5b50565b6000819050612a1b826129f9565b919050565b6000612a2b82612a0d565b9050919050565b612a3b81612a20565b82525050565b600060e082019050612a56600083018a612a32565b612a6360208301896128b8565b612a7060408301886128b8565b612a7d60608301876128b8565b612a8a60808301866128b8565b612a9760a08301856128b8565b612aa460c08301846128b8565b98975050505050505050565b600060208284031215612ac657612ac5612682565b5b6000612ad4848285016128f9565b91505092915050565b6000819050919050565b6000612b02612afd612af88461285c565b612add565b61285c565b9050919050565b6000612b1482612ae7565b9050919050565b6000612b2682612b09565b9050919050565b612b3681612b1b565b82525050565b6000602082019050612b516000830184612b2d565b92915050565b612b6081612711565b8114612b6b57600080fd5b50565b600081359050612b7d81612b57565b92915050565b60008060408385031215612b9a57612b99612682565b5b6000612ba8858286016128f9565b9250506020612bb985828601612b6e565b9150509250929050565b600080fd5b600080fd5b7f4e487b7100000000000000000000000000000000000000000000000000000000600052604160045260246000fd5b612c058261278d565b810181811067ffffffffffffffff82111715612c2457612c23612bcd565b5b80604052505050565b6000612c37612678565b9050612c438282612bfc565b919050565b600067ffffffffffffffff821115612c6357612c62612bcd565b5b612c6c8261278d565b9050602081019050919050565b82818337600083830152505050565b6000612c9b612c9684612c48565b612c2d565b905082815260208101848484011115612cb757612cb6612bc8565b5b612cc2848285612c79565b509392505050565b600082601f830112612cdf57612cde612bc3565b5b8135612cef848260208601612c88565b91505092915050565b60008060008060808587031215612d1257612d11612682565b5b6000612d20878288016128f9565b9450506020612d31878288016128f9565b9350506040612d428782880161281a565b925050606085013567ffffffffffffffff811115612d6357612d62612687565b5b612d6f87828801612cca565b91505092959194509250565b60008060408385031215612d9257612d91612682565b5b6000612da0858286016128f9565b9250506020612db1858286016128f9565b9150509250929050565b7f4e487b7100000000000000000000000000000000000000000000000000000000600052602260045260246000fd5b60006002820490506001821680612e0257607f821691505b602082108103612e1557612e14612dbb565b5b50919050565b7f436f6e74726163742069732073746f7070656400000000000000000000000000600082015250565b6000612e51601383612752565b9150612e5c82612e1b565b602082019050919050565b60006020820190508181036000830152612e8081612e44565b9050919050565b7f4e487b7100000000000000000000000000000000000000000000000000000000600052601160045260246000fd5b6000612ec1826127f9565b9150612ecc836127f9565b9250828202612eda816127f9565b91508282048414831517612ef157612ef0612e87565b5b5092915050565b6000612f03826127f9565b9150612f0e836127f9565b9250828201905080821115612f2657612f25612e87565b5b92915050565b7f416c6c20656e746974696573206d696e74656400000000000000000000000000600082015250565b6000612f62601383612752565b9150612f6d82612f2c565b602082019050919050565b60006020820190508181036000830152612f9181612f55565b9050919050565b7f45746865722073656e74206973206e6f7420636f727265637400000000000000600082015250565b6000612fce601983612752565b9150612fd982612f98565b602082019050919050565b60006020820190508181036000830152612ffd81612fc1565b9050919050565b7f4e487b7100000000000000000000000000000000000000000000000000000000600052601260045260246000fd5b600061303e826127f9565b9150613049836127f9565b92508261305957613058613004565b5b828204905092915050565b600061306f826127f9565b915061307a836127f9565b925082820390508181111561309257613091612e87565b5b92915050565b60006130a3826127f9565b91506130ae836127f9565b9250826130be576130bd613004565b5b828206905092915050565b60006130d4826127f9565b91507fffffffffffffffffffffffffffffffffffffffffffffffffffffffffffffffff820361310657613105612e87565b5b600182019050919050565b6000606082019050613126600083018661288e565b61313360208301856128b8565b613140604083018461288e565b949350505050565b7f556e617574686f72697a65640000000000000000000000000000000000000000600082015250565b600061317e600c83612752565b915061318982613148565b602082019050919050565b600060208201905081810360008301526131ad81613171565b9050919050565b7f63616c6c6572206973206e6f74206f776e6572206e6f7220617070726f766564600082015250565b60006131ea602083612752565b91506131f5826131b4565b602082019050919050565b60006020820190508181036000830152613219816131dd565b9050919050565b600081905092915050565b600061323682612747565b6132408185613220565b9350613250818560208601612763565b80840191505092915050565b6000613268828561322b565b9150613274828461322b565b91508190509392505050565b6000819050919050565b61329b613296826127f9565b613280565b82525050565b60008160601b9050919050565b60006132b9826132a1565b9050919050565b60006132cb826132ae565b9050919050565b6132e36132de8261287c565b6132c0565b82525050565b60006132f5828561328a565b60208201915061330582846132d2565b6014820191508190509392505050565b600081519050919050565b600082825260208201905092915050565b600061333c82613315565b6133468185613320565b9350613356818560208601612763565b61335f8161278d565b840191505092915050565b600060808201905061337f600083018761288e565b61338c602083018661288e565b61339960408301856128b8565b81810360608301526133ab8184613331565b905095945050505050565b6000815190506133c5816126b8565b92915050565b6000602082840312156133e1576133e0612682565b5b60006133ef848285016133b6565b91505092915050565b600060408201905061340d600083018561288e565b61341a60208301846128b8565b939250505056fea2646970667358221220861fb5f95f12b651d5cd332ed6773a20be731780a90d596254764a596530480a64736f6c63430008140033",
    "linkReferences": {},
    "deployedLinkReferences": {}
}