{
    "_format": "hh-sol-artifact-1",
    "contractName": "NukeFund",
    "sourceName": "contracts/NukeFund.sol",
    "abi": [
        {
            "inputs": [
                {
                    "internalType": "address",
                    "name": "_mintContractAddress",
                    "type": "address"
                }
            ],
            "stateMutability": "nonpayable",
            "type": "constructor"
        },
        {
            "inputs": [
                {
                    "internalType": "address",
                    "name": "owner",
                    "type": "address"
                }
            ],
            "name": "OwnableInvalidOwner",
            "type": "error"
        },
        {
            "inputs": [
                {
                    "internalType": "address",
                    "name": "account",
                    "type": "address"
                }
            ],
            "name": "OwnableUnauthorizedAccount",
            "type": "error"
        },
        {
            "inputs": [],
            "name": "ReentrancyGuardReentrantCall",
            "type": "error"
        },
        {
            "anonymous": false,
            "inputs": [
                {
                    "indexed": false,
                    "internalType": "bool",
                    "name": "isStopped",
                    "type": "bool"
                }
            ],
            "name": "EmergencyStopToggled",
            "type": "event"
        },
        {
            "anonymous": false,
            "inputs": [
                {
                    "indexed": false,
                    "internalType": "uint256",
                    "name": "newBalance",
                    "type": "uint256"
                }
            ],
            "name": "FundBalanceUpdated",
            "type": "event"
        },
        {
            "anonymous": false,
            "inputs": [
                {
                    "indexed": true,
                    "internalType": "address",
                    "name": "owner",
                    "type": "address"
                },
                {
                    "indexed": false,
                    "internalType": "uint256",
                    "name": "tokenId",
                    "type": "uint256"
                },
                {
                    "indexed": false,
                    "internalType": "uint256",
                    "name": "claimAmount",
                    "type": "uint256"
                }
            ],
            "name": "Nuked",
            "type": "event"
        },
        {
            "anonymous": false,
            "inputs": [
                {
                    "indexed": true,
                    "internalType": "address",
                    "name": "previousOwner",
                    "type": "address"
                }
            ],
            "name": "OwnershipRenounced",
            "type": "event"
        },
        {
            "anonymous": false,
            "inputs": [
                {
                    "indexed": true,
                    "internalType": "address",
                    "name": "from",
                    "type": "address"
                },
                {
                    "indexed": true,
                    "internalType": "address",
                    "name": "to",
                    "type": "address"
                }
            ],
            "name": "OwnershipTransferAttempted",
            "type": "event"
        },
        {
            "anonymous": false,
            "inputs": [
                {
                    "indexed": true,
                    "internalType": "address",
                    "name": "previousOwner",
                    "type": "address"
                },
                {
                    "indexed": true,
                    "internalType": "address",
                    "name": "newOwner",
                    "type": "address"
                }
            ],
            "name": "OwnershipTransferred",
            "type": "event"
        },
        {
            "anonymous": false,
            "inputs": [
                {
                    "indexed": true,
                    "internalType": "address",
                    "name": "sender",
                    "type": "address"
                },
                {
                    "indexed": false,
                    "internalType": "uint256",
                    "name": "amount",
                    "type": "uint256"
                }
            ],
            "name": "depositEvent",
            "type": "event"
        },
        {
            "anonymous": false,
            "inputs": [
                {
                    "indexed": true,
                    "internalType": "address",
                    "name": "recipient",
                    "type": "address"
                },
                {
                    "indexed": false,
                    "internalType": "uint256",
                    "name": "amount",
                    "type": "uint256"
                }
            ],
            "name": "withdrawalEvent",
            "type": "event"
        },
        {
            "inputs": [],
            "name": "deposit",
            "outputs": [],
            "stateMutability": "payable",
            "type": "function"
        },
        {
            "inputs": [],
            "name": "fund",
            "outputs": [
                {
                    "internalType": "uint256",
                    "name": "",
                    "type": "uint256"
                }
            ],
            "stateMutability": "view",
            "type": "function"
        },
        {
            "inputs": [],
            "name": "getFundBalance",
            "outputs": [
                {
                    "internalType": "uint256",
                    "name": "",
                    "type": "uint256"
                }
            ],
            "stateMutability": "view",
            "type": "function"
        },
        {
            "inputs": [],
            "name": "mintContract",
            "outputs": [
                {
                    "internalType": "contract IMint",
                    "name": "",
                    "type": "address"
                }
            ],
            "stateMutability": "view",
            "type": "function"
        },
        {
            "inputs": [
                {
                    "internalType": "uint256",
                    "name": "tokenId",
                    "type": "uint256"
                }
            ],
            "name": "nuke",
            "outputs": [],
            "stateMutability": "nonpayable",
            "type": "function"
        },
        {
            "inputs": [],
            "name": "owner",
            "outputs": [
                {
                    "internalType": "address",
                    "name": "",
                    "type": "address"
                }
            ],
            "stateMutability": "view",
            "type": "function"
        },
        {
            "inputs": [],
            "name": "renounceOwnership",
            "outputs": [],
            "stateMutability": "nonpayable",
            "type": "function"
        },
        {
            "inputs": [],
            "name": "stopped",
            "outputs": [
                {
                    "internalType": "bool",
                    "name": "",
                    "type": "bool"
                }
            ],
            "stateMutability": "view",
            "type": "function"
        },
        {
            "inputs": [],
            "name": "toggleCircuitbreaker",
            "outputs": [],
            "stateMutability": "nonpayable",
            "type": "function"
        },
        {
            "inputs": [
                {
                    "internalType": "uint256",
                    "name": "",
                    "type": "uint256"
                }
            ],
            "name": "tokenMaturityTime",
            "outputs": [
                {
                    "internalType": "uint256",
                    "name": "",
                    "type": "uint256"
                }
            ],
            "stateMutability": "view",
            "type": "function"
        },
        {
            "inputs": [
                {
                    "internalType": "address",
                    "name": "newOwner",
                    "type": "address"
                }
            ],
            "name": "transferOwnership",
            "outputs": [],
            "stateMutability": "nonpayable",
            "type": "function"
        },
        {
            "inputs": [
                {
                    "internalType": "uint256",
                    "name": "amount",
                    "type": "uint256"
                }
            ],
            "name": "withdraw",
            "outputs": [],
            "stateMutability": "nonpayable",
            "type": "function"
        }
    ],
    "bytecode": "0x60806040526000600160146101000a81548160ff0219169083151502179055503480156200002c57600080fd5b50604051620014e9380380620014e983398181016040528101906200005291906200025a565b336001600081905550600073ffffffffffffffffffffffffffffffffffffffff168173ffffffffffffffffffffffffffffffffffffffff1603620000d05760006040517f1e4fbdf7000000000000000000000000000000000000000000000000000000008152600401620000c791906200029d565b60405180910390fd5b620000e1816200012a60201b60201c565b5080600260006101000a81548173ffffffffffffffffffffffffffffffffffffffff021916908373ffffffffffffffffffffffffffffffffffffffff16021790555050620002ba565b6000600160009054906101000a900473ffffffffffffffffffffffffffffffffffffffff16905081600160006101000a81548173ffffffffffffffffffffffffffffffffffffffff021916908373ffffffffffffffffffffffffffffffffffffffff1602179055508173ffffffffffffffffffffffffffffffffffffffff168173ffffffffffffffffffffffffffffffffffffffff167f8be0079c531659141344cd1fd0a4f28419497f9722a3daafe3b4186f6b6457e060405160405180910390a35050565b600080fd5b600073ffffffffffffffffffffffffffffffffffffffff82169050919050565b60006200022282620001f5565b9050919050565b620002348162000215565b81146200024057600080fd5b50565b600081519050620002548162000229565b92915050565b600060208284031215620002735762000272620001f0565b5b6000620002838482850162000243565b91505092915050565b620002978162000215565b82525050565b6000602082019050620002b460008301846200028c565b92915050565b61121f80620002ca6000396000f3fe6080604052600436106100a75760003560e01c8063ae9662f511610064578063ae9662f514610182578063b60d4288146101bf578063d0b6b6db146101ea578063d0e30db014610215578063dae9e3791461021f578063f2fde38b1461024a576100a7565b80630d95508d146100ac5780631015baed146100d55780632e1a7d4d146100ec578063715018a61461011557806375f12b211461012c5780638da5cb5b14610157575b600080fd5b3480156100b857600080fd5b506100d360048036038101906100ce9190610cbc565b610273565b005b3480156100e157600080fd5b506100ea610658565b005b3480156100f857600080fd5b50610113600480360381019061010e9190610cbc565b61068c565b005b34801561012157600080fd5b5061012a6107f8565b005b34801561013857600080fd5b5061014161080c565b60405161014e9190610d04565b60405180910390f35b34801561016357600080fd5b5061016c61081f565b6040516101799190610d60565b60405180910390f35b34801561018e57600080fd5b506101a960048036038101906101a49190610cbc565b610849565b6040516101b69190610d8a565b60405180910390f35b3480156101cb57600080fd5b506101d4610861565b6040516101e19190610d8a565b60405180910390f35b3480156101f657600080fd5b506101ff610867565b60405161020c9190610e04565b60405180910390f35b61021d61088d565b005b34801561022b57600080fd5b50610234610a4c565b6040516102419190610d8a565b60405180910390f35b34801561025657600080fd5b50610271600480360381019061026c9190610e4b565b610a56565b005b61027b610adc565b600160149054906101000a900460ff16156102cb576040517f08c379a00000000000000000000000000000000000000000000000000000000081526004016102c290610ed5565b60405180910390fd5b3373ffffffffffffffffffffffffffffffffffffffff16600260009054906101000a900473ffffffffffffffffffffffffffffffffffffffff1673ffffffffffffffffffffffffffffffffffffffff16636352211e836040518263ffffffff1660e01b815260040161033d9190610d8a565b602060405180830381865afa15801561035a573d6000803e3d6000fd5b505050506040513d601f19601f8201168201806040525081019061037e9190610f0a565b73ffffffffffffffffffffffffffffffffffffffff16146103d4576040517f08c379a00000000000000000000000000000000000000000000000000000000081526004016103cb90610f83565b60405180910390fd5b6000600260009054906101000a900473ffffffffffffffffffffffffffffffffffffffff1673ffffffffffffffffffffffffffffffffffffffff1663de7ded9e836040518263ffffffff1660e01b81526004016104319190610d8a565b602060405180830381865afa15801561044e573d6000803e3d6000fd5b505050506040513d601f19601f820116820180604052508101906104729190610fb8565b90506003548111156104b9576040517f08c379a00000000000000000000000000000000000000000000000000000000081526004016104b090611031565b60405180910390fd5b600460008381526020019081526020016000205442101561050f576040517f08c379a00000000000000000000000000000000000000000000000000000000081526004016105069061109d565b60405180910390fd5b806003600082825461052191906110ec565b925050819055503373ffffffffffffffffffffffffffffffffffffffff166108fc829081150290604051600060405180830381858888f1935050505015801561056e573d6000803e3d6000fd5b50600260009054906101000a900473ffffffffffffffffffffffffffffffffffffffff1673ffffffffffffffffffffffffffffffffffffffff16637b47ec1a836040518263ffffffff1660e01b81526004016105ca9190610d8a565b600060405180830381600087803b1580156105e457600080fd5b505af11580156105f8573d6000803e3d6000fd5b505050503373ffffffffffffffffffffffffffffffffffffffff167f8c9149f14ad96a26724a68fd0cc1d0ed43cdbf7e29d39c7857ca4c1d5b5a864d8383604051610644929190611120565b60405180910390a250610655610b22565b50565b610660610b2c565b600160149054906101000a900460ff1615600160146101000a81548160ff021916908315150217905550565b610694610b2c565b61069c610adc565b600160149054906101000a900460ff16156106ec576040517f08c379a00000000000000000000000000000000000000000000000000000000081526004016106e390610ed5565b60405180910390fd5b600354811115610731576040517f08c379a000000000000000000000000000000000000000000000000000000000815260040161072890611031565b60405180910390fd5b806003600082825461074391906110ec565b9250508190555061075261081f565b73ffffffffffffffffffffffffffffffffffffffff166108fc829081150290604051600060405180830381858888f19350505050158015610797573d6000803e3d6000fd5b506107a061081f565b73ffffffffffffffffffffffffffffffffffffffff167fdb08d597821b1c166560f377fe9bc04596133de2c5425997a1281594ca871cb9826040516107e59190610d8a565b60405180910390a26107f5610b22565b50565b610800610b2c565b61080a6000610bb3565b565b600160149054906101000a900460ff1681565b6000600160009054906101000a900473ffffffffffffffffffffffffffffffffffffffff16905090565b60046020528060005260406000206000915090505481565b60035481565b600260009054906101000a900473ffffffffffffffffffffffffffffffffffffffff1681565b600160149054906101000a900460ff16156108dd576040517f08c379a00000000000000000000000000000000000000000000000000000000081526004016108d490610ed5565b60405180910390fd5b600260009054906101000a900473ffffffffffffffffffffffffffffffffffffffff1673ffffffffffffffffffffffffffffffffffffffff163373ffffffffffffffffffffffffffffffffffffffff16148061096b575061093c61081f565b73ffffffffffffffffffffffffffffffffffffffff163373ffffffffffffffffffffffffffffffffffffffff16145b6109aa576040517f08c379a00000000000000000000000000000000000000000000000000000000081526004016109a190611195565b60405180910390fd5b34600360008282546109bc91906111b5565b925050819055503373ffffffffffffffffffffffffffffffffffffffff167f47170ad76c9bbdb15dfbafd993321119023982de922af38d00684afaac15b8ea34604051610a099190610d8a565b60405180910390a27f1c12d443904f86e97d1a2e676cef66e79b25b1d1f6eb270c0a700526edf9b182600354604051610a429190610d8a565b60405180910390a1565b6000600354905090565b610a5e610b2c565b600073ffffffffffffffffffffffffffffffffffffffff168173ffffffffffffffffffffffffffffffffffffffff1603610ad05760006040517f1e4fbdf7000000000000000000000000000000000000000000000000000000008152600401610ac79190610d60565b60405180910390fd5b610ad981610bb3565b50565b600260005403610b18576040517f3ee5aeb500000000000000000000000000000000000000000000000000000000815260040160405180910390fd5b6002600081905550565b6001600081905550565b610b34610c79565b73ffffffffffffffffffffffffffffffffffffffff16610b5261081f565b73ffffffffffffffffffffffffffffffffffffffff1614610bb157610b75610c79565b6040517f118cdaa7000000000000000000000000000000000000000000000000000000008152600401610ba89190610d60565b60405180910390fd5b565b6000600160009054906101000a900473ffffffffffffffffffffffffffffffffffffffff16905081600160006101000a81548173ffffffffffffffffffffffffffffffffffffffff021916908373ffffffffffffffffffffffffffffffffffffffff1602179055508173ffffffffffffffffffffffffffffffffffffffff168173ffffffffffffffffffffffffffffffffffffffff167f8be0079c531659141344cd1fd0a4f28419497f9722a3daafe3b4186f6b6457e060405160405180910390a35050565b600033905090565b600080fd5b6000819050919050565b610c9981610c86565b8114610ca457600080fd5b50565b600081359050610cb681610c90565b92915050565b600060208284031215610cd257610cd1610c81565b5b6000610ce084828501610ca7565b91505092915050565b60008115159050919050565b610cfe81610ce9565b82525050565b6000602082019050610d196000830184610cf5565b92915050565b600073ffffffffffffffffffffffffffffffffffffffff82169050919050565b6000610d4a82610d1f565b9050919050565b610d5a81610d3f565b82525050565b6000602082019050610d756000830184610d51565b92915050565b610d8481610c86565b82525050565b6000602082019050610d9f6000830184610d7b565b92915050565b6000819050919050565b6000610dca610dc5610dc084610d1f565b610da5565b610d1f565b9050919050565b6000610ddc82610daf565b9050919050565b6000610dee82610dd1565b9050919050565b610dfe81610de3565b82525050565b6000602082019050610e196000830184610df5565b92915050565b610e2881610d3f565b8114610e3357600080fd5b50565b600081359050610e4581610e1f565b92915050565b600060208284031215610e6157610e60610c81565b5b6000610e6f84828501610e36565b91505092915050565b600082825260208201905092915050565b7f436f6e74726163742069732073746f7070656400000000000000000000000000600082015250565b6000610ebf601383610e78565b9150610eca82610e89565b602082019050919050565b60006020820190508181036000830152610eee81610eb2565b9050919050565b600081519050610f0481610e1f565b92915050565b600060208284031215610f2057610f1f610c81565b5b6000610f2e84828501610ef5565b91505092915050565b7f4e6f7420746865206f776e657200000000000000000000000000000000000000600082015250565b6000610f6d600d83610e78565b9150610f7882610f37565b602082019050919050565b60006020820190508181036000830152610f9c81610f60565b9050919050565b600081519050610fb281610c90565b92915050565b600060208284031215610fce57610fcd610c81565b5b6000610fdc84828501610fa3565b91505092915050565b7f496e73756666696369656e742066756e64000000000000000000000000000000600082015250565b600061101b601183610e78565b915061102682610fe5565b602082019050919050565b6000602082019050818103600083015261104a8161100e565b9050919050565b7f546f6b656e206973206e6f74206d617475726520796574000000000000000000600082015250565b6000611087601783610e78565b915061109282611051565b602082019050919050565b600060208201905081810360008301526110b68161107a565b9050919050565b7f4e487b7100000000000000000000000000000000000000000000000000000000600052601160045260246000fd5b60006110f782610c86565b915061110283610c86565b925082820390508181111561111a576111196110bd565b5b92915050565b60006040820190506111356000830185610d7b565b6111426020830184610d7b565b9392505050565b7f556e617574686f72697a65640000000000000000000000000000000000000000600082015250565b600061117f600c83610e78565b915061118a82611149565b602082019050919050565b600060208201905081810360008301526111ae81611172565b9050919050565b60006111c082610c86565b91506111cb83610c86565b92508282019050808211156111e3576111e26110bd565b5b9291505056fea2646970667358221220d731fe62d5ced622a66e5d26317b6d4b55c1f2927e0f27bf999c9b2816d0ebec64736f6c63430008140033",
    "linkReferences": {},
    "deployedLinkReferences": {}
}