{
  "_format": "hh-sol-artifact-1",
  "contractName": "Airdrop",
  "sourceName": "contracts/Airdrop/Airdrop.sol",
  "abi": [
    {
      "anonymous": false,
      "inputs": [
        {
          "indexed": true,
          "internalType": "address",
          "name": "previousOwner",
          "type": "address"
        },
        {
          "indexed": true,
          "internalType": "address",
          "name": "newOwner",
          "type": "address"
        }
      ],
      "name": "OwnershipTransferred",
      "type": "event"
    },
    {
      "anonymous": false,
      "inputs": [
        {
          "indexed": false,
          "internalType": "address",
          "name": "account",
          "type": "address"
        }
      ],
      "name": "Paused",
      "type": "event"
    },
    {
      "anonymous": false,
      "inputs": [
        {
          "indexed": false,
          "internalType": "address",
          "name": "account",
          "type": "address"
        }
      ],
      "name": "Unpaused",
      "type": "event"
    },
    {
      "inputs": [
        {
          "internalType": "address",
          "name": "user",
          "type": "address"
        },
        {
          "internalType": "uint256",
          "name": "amount",
          "type": "uint256"
        }
      ],
      "name": "addUserAmount",
      "outputs": [],
      "stateMutability": "nonpayable",
      "type": "function"
    },
    {
      "inputs": [],
      "name": "airdropStarted",
      "outputs": [
        {
          "internalType": "bool",
          "name": "",
          "type": "bool"
        }
      ],
      "stateMutability": "view",
      "type": "function"
    },
    {
      "inputs": [],
      "name": "allowDaoFund",
      "outputs": [],
      "stateMutability": "nonpayable",
      "type": "function"
    },
    {
      "inputs": [],
      "name": "claim",
      "outputs": [],
      "stateMutability": "nonpayable",
      "type": "function"
    },
    {
      "inputs": [],
      "name": "daoFundAllowed",
      "outputs": [
        {
          "internalType": "bool",
          "name": "",
          "type": "bool"
        }
      ],
      "stateMutability": "view",
      "type": "function"
    },
    {
      "inputs": [],
      "name": "owner",
      "outputs": [
        {
          "internalType": "address",
          "name": "",
          "type": "address"
        }
      ],
      "stateMutability": "view",
      "type": "function"
    },
    {
      "inputs": [],
      "name": "paused",
      "outputs": [
        {
          "internalType": "bool",
          "name": "",
          "type": "bool"
        }
      ],
      "stateMutability": "view",
      "type": "function"
    },
    {
      "inputs": [],
      "name": "renounceOwnership",
      "outputs": [],
      "stateMutability": "nonpayable",
      "type": "function"
    },
    {
      "inputs": [
        {
          "internalType": "address",
          "name": "_traitToken",
          "type": "address"
        }
      ],
      "name": "setTraitToken",
      "outputs": [],
      "stateMutability": "nonpayable",
      "type": "function"
    },
    {
      "inputs": [
        {
          "internalType": "uint256",
          "name": "amount",
          "type": "uint256"
        }
      ],
      "name": "startAirdrop",
      "outputs": [],
      "stateMutability": "nonpayable",
      "type": "function"
    },
    {
      "inputs": [
        {
          "internalType": "address",
          "name": "user",
          "type": "address"
        },
        {
          "internalType": "uint256",
          "name": "amount",
          "type": "uint256"
        }
      ],
      "name": "subUserAmount",
      "outputs": [],
      "stateMutability": "nonpayable",
      "type": "function"
    },
    {
      "inputs": [],
      "name": "totalTokenAmount",
      "outputs": [
        {
          "internalType": "uint256",
          "name": "",
          "type": "uint256"
        }
      ],
      "stateMutability": "view",
      "type": "function"
    },
    {
      "inputs": [],
      "name": "totalValue",
      "outputs": [
        {
          "internalType": "uint256",
          "name": "",
          "type": "uint256"
        }
      ],
      "stateMutability": "view",
      "type": "function"
    },
    {
      "inputs": [],
      "name": "traitToken",
      "outputs": [
        {
          "internalType": "contract IERC20",
          "name": "",
          "type": "address"
        }
      ],
      "stateMutability": "view",
      "type": "function"
    },
    {
      "inputs": [
        {
          "internalType": "address",
          "name": "newOwner",
          "type": "address"
        }
      ],
      "name": "transferOwnership",
      "outputs": [],
      "stateMutability": "nonpayable",
      "type": "function"
    },
    {
      "inputs": [
        {
          "internalType": "address",
          "name": "",
          "type": "address"
        }
      ],
      "name": "userInfo",
      "outputs": [
        {
          "internalType": "uint256",
          "name": "",
          "type": "uint256"
        }
      ],
      "stateMutability": "view",
      "type": "function"
    }
  ],
  "bytecode": "0x608060405234801561001057600080fd5b5061001a3361002d565b600180556002805460ff1916905561007d565b600080546001600160a01b038381166001600160a01b0319831681178455604051919092169283917f8be0079c531659141344cd1fd0a4f28419497f9722a3daafe3b4186f6b6457e09190a35050565b610a5e8061008c6000396000f3fe608060405234801561001057600080fd5b50600436106101005760003560e01c80637a14eddb11610097578063b827d00211610066578063b827d002146101f8578063beae207f1461020b578063d4c3eea01461021e578063f2fde38b1461022757600080fd5b80637a14eddb146101955780638da5cb5b146101a657806392f5ac81146101cb578063939e2575146101de57600080fd5b80634e71d92d116100d35780634e71d92d146101675780635c975abb1461016f57806361b512a71461017a578063715018a61461018d57600080fd5b80630337b3aa1461010557806304269d3314610121578063143c2a311461012b5780631959a00214610147575b600080fd5b61010e60035481565b6040519081526020015b60405180910390f35b61012961023a565b005b600254610100900460ff165b6040519015158152602001610118565b61010e6101553660046108fd565b60056020526000908152604090205481565b6101296102ea565b60025460ff16610137565b61012961018836600461091f565b610451565b610129610538565b60025462010000900460ff16610137565b6000546001600160a01b03165b6040516001600160a01b039091168152602001610118565b6101296101d93660046108fd565b61054a565b6002546101b390630100000090046001600160a01b031681565b61012961020636600461091f565b61057e565b610129610219366004610949565b6105ff565b61010e60045481565b6101296102353660046108fd565b610722565b610242610798565b600254610100900460ff1661028c5760405162461bcd60e51b815260206004820152600b60248201526a139bdd081cdd185c9d195960aa1b60448201526064015b60405180910390fd5b60025462010000900460ff16156102d75760405162461bcd60e51b815260206004820152600f60248201526e105b1c9958591e48185b1b1bddd959608a1b6044820152606401610283565b6002805462ff0000191662010000179055565b6102f26107f2565b6102fa610838565b600254610100900460ff1661033f5760405162461bcd60e51b815260206004820152600b60248201526a139bdd081cdd185c9d195960aa1b6044820152606401610283565b3360009081526005602052604090205461038a5760405162461bcd60e51b815260206004820152600c60248201526b4e6f7420656c696769626c6560a01b6044820152606401610283565b600454336000908152600560205260408120546003549192916103ad9190610978565b6103b79190610995565b60025460405163a9059cbb60e01b815233600482015260248101839052919250630100000090046001600160a01b03169063a9059cbb906044016020604051808303816000875af1158015610410573d6000803e3d6000fd5b505050506040513d601f19601f8201168201806040525081019061043491906109b7565b50503360009081526005602052604081205561044f60018055565b565b6104596107f2565b610461610838565b610469610798565b600254610100900460ff16156104915760405162461bcd60e51b8152600401610283906109d9565b6001600160a01b0382166000908152600560205260409020548111156104ea5760405162461bcd60e51b815260206004820152600e60248201526d125b9d985b1a5908185b5bdd5b9d60921b6044820152606401610283565b6001600160a01b03821660009081526005602052604081208054839290610512908490610a02565b92505081905550806004600082825461052b9190610a02565b9091555050600180555050565b610540610798565b61044f6000610891565b610552610798565b600280546001600160a01b039092166301000000026301000000600160b81b0319909216919091179055565b6105866107f2565b61058e610838565b610596610798565b600254610100900460ff16156105be5760405162461bcd60e51b8152600401610283906109d9565b6001600160a01b038216600090815260056020526040812080548392906105e6908490610a15565b92505081905550806004600082825461052b9190610a15565b6106076107f2565b61060f610838565b610617610798565b600254610100900460ff161561063f5760405162461bcd60e51b8152600401610283906109d9565b600081116106805760405162461bcd60e51b815260206004820152600e60248201526d125b9d985b1a5908185b5bdd5b9d60921b6044820152606401610283565b6002546040516323b872dd60e01b81523260048201523060248201526044810183905263010000009091046001600160a01b0316906323b872dd906064016020604051808303816000875af11580156106dd573d6000803e3d6000fd5b505050506040513d601f19601f8201168201806040525081019061070191906109b7565b506002805461ff001916610100179055600381905561071f60018055565b50565b61072a610798565b6001600160a01b03811661078f5760405162461bcd60e51b815260206004820152602660248201527f4f776e61626c653a206e6577206f776e657220697320746865207a65726f206160448201526564647265737360d01b6064820152608401610283565b61071f81610891565b6000546001600160a01b0316331461044f5760405162461bcd60e51b815260206004820181905260248201527f4f776e61626c653a2063616c6c6572206973206e6f7420746865206f776e65726044820152606401610283565b60025460ff161561044f5760405162461bcd60e51b815260206004820152601060248201526f14185d5cd8589b194e881c185d5cd95960821b6044820152606401610283565b60026001540361088a5760405162461bcd60e51b815260206004820152601f60248201527f5265656e7472616e637947756172643a207265656e7472616e742063616c6c006044820152606401610283565b6002600155565b600080546001600160a01b038381166001600160a01b0319831681178455604051919092169283917f8be0079c531659141344cd1fd0a4f28419497f9722a3daafe3b4186f6b6457e09190a35050565b80356001600160a01b03811681146108f857600080fd5b919050565b60006020828403121561090f57600080fd5b610918826108e1565b9392505050565b6000806040838503121561093257600080fd5b61093b836108e1565b946020939093013593505050565b60006020828403121561095b57600080fd5b5035919050565b634e487b7160e01b600052601160045260246000fd5b808202811582820484141761098f5761098f610962565b92915050565b6000826109b257634e487b7160e01b600052601260045260246000fd5b500490565b6000602082840312156109c957600080fd5b8151801515811461091857600080fd5b6020808252600f908201526e105b1c9958591e481cdd185c9d1959608a1b604082015260600190565b8181038181111561098f5761098f610962565b8082018082111561098f5761098f61096256fea2646970667358221220a3a656412aec9db5f09b5d62dc7971bdc499eb8de98974b996d007d61651181a64736f6c63430008140033",
  "linkReferences": {},
  "deployedLinkReferences": {}
}