{
  "_format": "hh-sol-artifact-1",
  "contractName": "DevFund",
  "sourceName": "contracts/DevFund/DevFund.sol",
  "abi": [
    {
      "anonymous": false,
      "inputs": [
        {
          "indexed": true,
          "internalType": "address",
          "name": "dev",
          "type": "address"
        }
      ],
      "name": "AddDev",
      "type": "event"
    },
    {
      "anonymous": false,
      "inputs": [
        {
          "indexed": true,
          "internalType": "address",
          "name": "dev",
          "type": "address"
        },
        {
          "indexed": false,
          "internalType": "uint256",
          "name": "amount",
          "type": "uint256"
        }
      ],
      "name": "Claim",
      "type": "event"
    },
    {
      "anonymous": false,
      "inputs": [
        {
          "indexed": true,
          "internalType": "address",
          "name": "from",
          "type": "address"
        },
        {
          "indexed": false,
          "internalType": "uint256",
          "name": "amount",
          "type": "uint256"
        }
      ],
      "name": "FundReceived",
      "type": "event"
    },
    {
      "anonymous": false,
      "inputs": [
        {
          "indexed": true,
          "internalType": "address",
          "name": "previousOwner",
          "type": "address"
        },
        {
          "indexed": true,
          "internalType": "address",
          "name": "newOwner",
          "type": "address"
        }
      ],
      "name": "OwnershipTransferred",
      "type": "event"
    },
    {
      "anonymous": false,
      "inputs": [
        {
          "indexed": false,
          "internalType": "address",
          "name": "account",
          "type": "address"
        }
      ],
      "name": "Paused",
      "type": "event"
    },
    {
      "anonymous": false,
      "inputs": [
        {
          "indexed": true,
          "internalType": "address",
          "name": "dev",
          "type": "address"
        }
      ],
      "name": "RemoveDev",
      "type": "event"
    },
    {
      "anonymous": false,
      "inputs": [
        {
          "indexed": false,
          "internalType": "address",
          "name": "account",
          "type": "address"
        }
      ],
      "name": "Unpaused",
      "type": "event"
    },
    {
      "inputs": [
        {
          "internalType": "address",
          "name": "user",
          "type": "address"
        }
      ],
      "name": "addDev",
      "outputs": [],
      "stateMutability": "nonpayable",
      "type": "function"
    },
    {
      "inputs": [],
      "name": "claim",
      "outputs": [],
      "stateMutability": "nonpayable",
      "type": "function"
    },
    {
      "inputs": [
        {
          "internalType": "address",
          "name": "",
          "type": "address"
        }
      ],
      "name": "devInfo",
      "outputs": [
        {
          "internalType": "uint256",
          "name": "rewardDebt",
          "type": "uint256"
        },
        {
          "internalType": "uint256",
          "name": "pendingRewards",
          "type": "uint256"
        }
      ],
      "stateMutability": "view",
      "type": "function"
    },
    {
      "inputs": [
        {
          "internalType": "address",
          "name": "",
          "type": "address"
        }
      ],
      "name": "isDev",
      "outputs": [
        {
          "internalType": "bool",
          "name": "",
          "type": "bool"
        }
      ],
      "stateMutability": "view",
      "type": "function"
    },
    {
      "inputs": [],
      "name": "owner",
      "outputs": [
        {
          "internalType": "address",
          "name": "",
          "type": "address"
        }
      ],
      "stateMutability": "view",
      "type": "function"
    },
    {
      "inputs": [],
      "name": "paused",
      "outputs": [
        {
          "internalType": "bool",
          "name": "",
          "type": "bool"
        }
      ],
      "stateMutability": "view",
      "type": "function"
    },
    {
      "inputs": [
        {
          "internalType": "address",
          "name": "user",
          "type": "address"
        }
      ],
      "name": "pendingRewards",
      "outputs": [
        {
          "internalType": "uint256",
          "name": "",
          "type": "uint256"
        }
      ],
      "stateMutability": "view",
      "type": "function"
    },
    {
      "inputs": [
        {
          "internalType": "address",
          "name": "user",
          "type": "address"
        }
      ],
      "name": "removeDev",
      "outputs": [],
      "stateMutability": "nonpayable",
      "type": "function"
    },
    {
      "inputs": [],
      "name": "renounceOwnership",
      "outputs": [],
      "stateMutability": "nonpayable",
      "type": "function"
    },
    {
      "inputs": [],
      "name": "rewardPerDev",
      "outputs": [
        {
          "internalType": "uint256",
          "name": "",
          "type": "uint256"
        }
      ],
      "stateMutability": "view",
      "type": "function"
    },
    {
      "inputs": [],
      "name": "totalDevCount",
      "outputs": [
        {
          "internalType": "uint256",
          "name": "",
          "type": "uint256"
        }
      ],
      "stateMutability": "view",
      "type": "function"
    },
    {
      "inputs": [
        {
          "internalType": "address",
          "name": "newOwner",
          "type": "address"
        }
      ],
      "name": "transferOwnership",
      "outputs": [],
      "stateMutability": "nonpayable",
      "type": "function"
    },
    {
      "stateMutability": "payable",
      "type": "receive"
    }
  ],
  "bytecode": "0x608060405234801561001057600080fd5b5061001a3361002d565b600180556002805460ff1916905561007d565b600080546001600160a01b038381166001600160a01b0319831681178455604051919092169283917f8be0079c531659141344cd1fd0a4f28419497f9722a3daafe3b4186f6b6457e09190a35050565b6109ee8061008c6000396000f3fe6080604052600436106100ab5760003560e01c806382f802481161006457806382f80248146102945780638da5cb5b146102aa578063b91d3ace146102d2578063c4026d7b146102f2578063cceb0fbc14610312578063f2fde38b1461035b57600080fd5b80630c3f64bf146101c757806331d7a2621461020c578063321f4a111461023a5780634e71d92d146102505780635c975abb14610267578063715018a61461027f57600080fd5b366101c257600354156100e1576003546100c59034610940565b600460008282546100d69190610962565b9091555061018b9050565b600080546040516001600160a01b039091169034908381818185875af1925050503d806000811461012e576040519150601f19603f3d011682016040523d82523d6000602084013e610133565b606091505b50509050806101895760405162461bcd60e51b815260206004820152601d60248201527f4661696c656420746f2073656e6420457468657220746f206f776e657200000060448201526064015b60405180910390fd5b505b60405134815233907f54a5b8782470a0d2c022b3b9e5e729503ac5dbdfe053afeb4559f9297f7565a69060200160405180910390a2005b600080fd5b3480156101d357600080fd5b506101f76101e2366004610975565b60056020526000908152604090205460ff1681565b60405190151581526020015b60405180910390f35b34801561021857600080fd5b5061022c610227366004610975565b61037b565b604051908152602001610203565b34801561024657600080fd5b5061022c60045481565b34801561025c57600080fd5b506102656103cd565b005b34801561027357600080fd5b5060025460ff166101f7565b34801561028b57600080fd5b5061026561047a565b3480156102a057600080fd5b5061022c60035481565b3480156102b657600080fd5b506000546040516001600160a01b039091168152602001610203565b3480156102de57600080fd5b506102656102ed366004610975565b61048c565b3480156102fe57600080fd5b5061026561030d366004610975565b61057a565b34801561031e57600080fd5b5061034661032d366004610975565b6006602052600090815260409020805460019091015482565b60408051928352602083019190915201610203565b34801561036757600080fd5b50610265610376366004610975565b6106b4565b6001600160a01b0381166000908152600660205260408120546004546103a191906109a5565b6001600160a01b0383166000908152600660205260409020600101546103c79190610962565b92915050565b6103d561072d565b6103dd610773565b33600090815260066020526040812080546004549192916103fe91906109a5565b826001015461040d9190610962565b9050801561046957600061042133836107cc565b905061042d81836109a5565b600184015560405181815233907f47cee97cb7acd717b3c0aa1435d004cd5b3c8c57d70dbceb4e4458bbd60e39d49060200160405180910390a2505b50600454905561047860018055565b565b610482610880565b61047860006108da565b610494610880565b6001600160a01b03811660009081526005602052604090205460ff16156104f25760405162461bcd60e51b8152602060048201526012602482015271105b1c9958591e481c9959da5cdd195c995960721b6044820152606401610180565b6001600160a01b0381166000908152600560205260408120805460ff19166001908117909155600380549192909161052b908490610962565b90915550506004546001600160a01b03821660008181526006602052604080822093909355915190917f6cc9ca71b1449fb438ba830579ccf46aa6ba9c1d031962654d03a9698181ae6291a250565b610582610880565b6001600160a01b03811660009081526005602052604090205460ff166105dc5760405162461bcd60e51b815260206004820152600f60248201526e4e6f7420646576206164647265737360881b6044820152606401610180565b6001600160a01b0381166000908152600560205260408120805460ff19169055600380546001929061060f9084906109a5565b90915550506001600160a01b03811660009081526006602052604090205460045461063a91906109a5565b6001600160a01b03821660009081526006602052604081206001018054909190610665908490610962565b90915550506004546001600160a01b03821660008181526006602052604080822093909355915190917f45867a7042effa572a3eca706a15679b95cf7b7f6d2958475d2762d4e5877be291a250565b6106bc610880565b6001600160a01b0381166107215760405162461bcd60e51b815260206004820152602660248201527f4f776e61626c653a206e6577206f776e657220697320746865207a65726f206160448201526564647265737360d01b6064820152608401610180565b61072a816108da565b50565b60025460ff16156104785760405162461bcd60e51b815260206004820152601060248201526f14185d5cd8589b194e881c185d5cd95960821b6044820152606401610180565b6002600154036107c55760405162461bcd60e51b815260206004820152601f60248201527f5265656e7472616e637947756172643a207265656e7472616e742063616c6c006044820152606401610180565b6002600155565b60003031808311156107dc578092505b6000846001600160a01b03168460405160006040518083038185875af1925050503d8060008114610829576040519150601f19603f3d011682016040523d82523d6000602084013e61082e565b606091505b50509050806108775760405162461bcd60e51b815260206004820152601560248201527411985a5b1959081d1bc81cd95b990814995dd85c99605a1b6044820152606401610180565b50919392505050565b6000546001600160a01b031633146104785760405162461bcd60e51b815260206004820181905260248201527f4f776e61626c653a2063616c6c6572206973206e6f7420746865206f776e65726044820152606401610180565b600080546001600160a01b038381166001600160a01b0319831681178455604051919092169283917f8be0079c531659141344cd1fd0a4f28419497f9722a3daafe3b4186f6b6457e09190a35050565b634e487b7160e01b600052601160045260246000fd5b60008261095d57634e487b7160e01b600052601260045260246000fd5b500490565b808201808211156103c7576103c761092a565b60006020828403121561098757600080fd5b81356001600160a01b038116811461099e57600080fd5b9392505050565b818103818111156103c7576103c761092a56fea26469706673582212204bd7ff23541540d2a92da32dad9b6163a38cd5909466a161ae0fb7193167508164736f6c63430008140033",
  "linkReferences": {},
  "deployedLinkReferences": {}
}